{
  "contractName": "AccessControl",
  "abi": [
    {
      "constant": false,
      "inputs": [
        {
          "name": "oldAdmin",
          "type": "address"
        }
      ],
      "name": "removeAdmin",
      "outputs": [],
      "payable": false,
      "type": "function",
      "stateMutability": "nonpayable"
    },
    {
      "constant": false,
      "inputs": [
        {
          "name": "newManager",
          "type": "address"
        }
      ],
      "name": "addManager",
      "outputs": [],
      "payable": false,
      "type": "function",
      "stateMutability": "nonpayable"
    },
    {
      "constant": true,
      "inputs": [
        {
          "name": "",
          "type": "address"
        }
      ],
      "name": "admins",
      "outputs": [
        {
          "name": "",
          "type": "bool"
        }
      ],
      "payable": false,
      "type": "function",
      "stateMutability": "view"
    },
    {
      "constant": false,
      "inputs": [
        {
          "name": "newAdmin",
          "type": "address"
        }
      ],
      "name": "addAdmin",
      "outputs": [],
      "payable": false,
      "type": "function",
      "stateMutability": "nonpayable"
    },
    {
      "constant": false,
      "inputs": [
        {
          "name": "oldManager",
          "type": "address"
        }
      ],
      "name": "removeManager",
      "outputs": [],
      "payable": false,
      "type": "function",
      "stateMutability": "nonpayable"
    },
    {
      "constant": true,
      "inputs": [
        {
          "name": "",
          "type": "address"
        }
      ],
      "name": "managers",
      "outputs": [
        {
          "name": "",
          "type": "bool"
        }
      ],
      "payable": false,
      "type": "function",
      "stateMutability": "view"
    },
    {
      "inputs": [],
      "payable": false,
      "type": "constructor",
      "stateMutability": "nonpayable"
    }
  ],
  "bytecode": "0x6060604052341561000f57600080fd5b60016000803373ffffffffffffffffffffffffffffffffffffffff1673ffffffffffffffffffffffffffffffffffffffff16815260200190815260200160002060006101000a81548160ff021916908315150217905550610603806100756000396000f300606060405260043610610078576000357c0100000000000000000000000000000000000000000000000000000000900463ffffffff1680631785f53c1461007d5780632d06177a146100b6578063429b62e5146100ef5780637048027514610140578063ac18de4314610179578063fdff9b4d146101b2575b600080fd5b341561008857600080fd5b6100b4600480803573ffffffffffffffffffffffffffffffffffffffff16906020019091905050610203565b005b34156100c157600080fd5b6100ed600480803573ffffffffffffffffffffffffffffffffffffffff169060200190919050506102b2565b005b34156100fa57600080fd5b610126600480803573ffffffffffffffffffffffffffffffffffffffff169060200190919050506103cc565b604051808215151515815260200191505060405180910390f35b341561014b57600080fd5b610177600480803573ffffffffffffffffffffffffffffffffffffffff169060200190919050506103ec565b005b341561018457600080fd5b6101b0600480803573ffffffffffffffffffffffffffffffffffffffff16906020019091905050610507565b005b34156101bd57600080fd5b6101e9600480803573ffffffffffffffffffffffffffffffffffffffff169060200190919050506105b7565b604051808215151515815260200191505060405180910390f35b600115156000803373ffffffffffffffffffffffffffffffffffffffff1673ffffffffffffffffffffffffffffffffffffffff16815260200190815260200160002060009054906101000a900460ff16151514151561026157600080fd5b6000808273ffffffffffffffffffffffffffffffffffffffff1673ffffffffffffffffffffffffffffffffffffffff16815260200190815260200160002060006101000a81549060ff021916905550565b600115156000803373ffffffffffffffffffffffffffffffffffffffff1673ffffffffffffffffffffffffffffffffffffffff16815260200190815260200160002060009054906101000a900460ff16151514151561031057600080fd5b600115156000808373ffffffffffffffffffffffffffffffffffffffff1673ffffffffffffffffffffffffffffffffffffffff16815260200190815260200160002060009054906101000a900460ff16151514156103725761037181610203565b5b60018060008373ffffffffffffffffffffffffffffffffffffffff1673ffffffffffffffffffffffffffffffffffffffff16815260200190815260200160002060006101000a81548160ff02191690831515021790555050565b60006020528060005260406000206000915054906101000a900460ff1681565b600115156000803373ffffffffffffffffffffffffffffffffffffffff1673ffffffffffffffffffffffffffffffffffffffff16815260200190815260200160002060009054906101000a900460ff16151514151561044a57600080fd5b60011515600160008373ffffffffffffffffffffffffffffffffffffffff1673ffffffffffffffffffffffffffffffffffffffff16815260200190815260200160002060009054906101000a900460ff16151514156104ad576104ac81610507565b5b60016000808373ffffffffffffffffffffffffffffffffffffffff1673ffffffffffffffffffffffffffffffffffffffff16815260200190815260200160002060006101000a81548160ff02191690831515021790555050565b600115156000803373ffffffffffffffffffffffffffffffffffffffff1673ffffffffffffffffffffffffffffffffffffffff16815260200190815260200160002060009054906101000a900460ff16151514151561056557600080fd5b600160008273ffffffffffffffffffffffffffffffffffffffff1673ffffffffffffffffffffffffffffffffffffffff16815260200190815260200160002060006101000a81549060ff021916905550565b60016020528060005260406000206000915054906101000a900460ff16815600a165627a7a72305820c057b37727827d1aff07d79f1366eb298ed70ee99a403a238cf2c82b498588c20029",
  "source": "pragma solidity ^0.4.11;\n\n\ncontract AccessControl {\n    mapping(address => bool) public admins;\n    mapping(address => bool) public managers;\n    \n    modifier adminOnly() {\n        require(admins[msg.sender] == true);\n\n        _;\n    }\n\n    modifier managerOnly() {\n        require(managers[msg.sender] == true || admins[msg.sender] == true);\n\n        _;\n    }\n\n    function AccessControl() {\n        admins[msg.sender] = true;\n    }\n\n    function addAdmin(address newAdmin) adminOnly {\n        if (managers[newAdmin] == true)\n            removeManager(newAdmin);\n            \n        admins[newAdmin] = true;\n    }\n\n    function addManager(address newManager) adminOnly {\n        if (admins[newManager] == true)\n            removeAdmin(newManager);\n        \n        managers[newManager] = true;\n    }\n\n    function removeAdmin(address oldAdmin) adminOnly {\n        delete admins[oldAdmin];\n    }\n\n    function removeManager(address oldManager) adminOnly {\n        delete managers[oldManager];\n    }\n}\n",
  "sourcePath": "/home/q3k/Work/getline/getline-dapp/dapp/contracts/common/AccessControl.sol",
  "compiler": {
    "name": "solc",
    "version": "0.4.18+commit.9cf6e910.Emscripten.clang"
  },
  "schemaVersion": "1.0.1",
  "updatedAt": "2017-11-13T17:53:27.288Z"
}