{
  "contractName": "AutoInvestor",
  "abi": [
    {
      "constant": false,
      "inputs": [
        {
          "name": "loan",
          "type": "address"
        }
      ],
      "name": "invest",
      "outputs": [],
      "payable": false,
      "type": "function",
      "stateMutability": "nonpayable"
    },
    {
      "inputs": [
        {
          "name": "_collateralToken",
          "type": "address"
        },
        {
          "name": "_tokenA",
          "type": "address"
        },
        {
          "name": "_tokenB",
          "type": "address"
        }
      ],
      "payable": false,
      "type": "constructor",
      "stateMutability": "nonpayable"
    },
    {
      "anonymous": false,
      "inputs": [
        {
          "indexed": true,
          "name": "loan",
          "type": "address"
        }
      ],
      "name": "Invested",
      "type": "event"
    }
  ],
  "bytecode": "0x6060604052341561000f57600080fd5b60405160608061073583398101604052808051906020019091908051906020019091908051906020019091905050826000806101000a81548173ffffffffffffffffffffffffffffffffffffffff021916908373ffffffffffffffffffffffffffffffffffffffff16021790555081600160006101000a81548173ffffffffffffffffffffffffffffffffffffffff021916908373ffffffffffffffffffffffffffffffffffffffff16021790555080600260006101000a81548173ffffffffffffffffffffffffffffffffffffffff021916908373ffffffffffffffffffffffffffffffffffffffff160217905550505050610624806101116000396000f300606060405260043610610041576000357c0100000000000000000000000000000000000000000000000000000000900463ffffffff16806303f9c79314610046575b600080fd5b341561005157600080fd5b61007d600480803573ffffffffffffffffffffffffffffffffffffffff1690602001909190505061007f565b005b60008060008060009054906101000a900473ffffffffffffffffffffffffffffffffffffffff1673ffffffffffffffffffffffffffffffffffffffff168473ffffffffffffffffffffffffffffffffffffffff1663b2016bd46000604051602001526040518163ffffffff167c0100000000000000000000000000000000000000000000000000000000028152600401602060405180830381600087803b151561012857600080fd5b6102c65a03f1151561013957600080fd5b5050506040518051905073ffffffffffffffffffffffffffffffffffffffff1614151561016557600080fd5b8373ffffffffffffffffffffffffffffffffffffffff1663c710ccd66000604051602001526040518163ffffffff167c0100000000000000000000000000000000000000000000000000000000028152600401602060405180830381600087803b15156101d157600080fd5b6102c65a03f115156101e257600080fd5b505050604051805190509250600160009054906101000a900473ffffffffffffffffffffffffffffffffffffffff1673ffffffffffffffffffffffffffffffffffffffff168373ffffffffffffffffffffffffffffffffffffffff1614806102975750600260009054906101000a900473ffffffffffffffffffffffffffffffffffffffff1673ffffffffffffffffffffffffffffffffffffffff168373ffffffffffffffffffffffffffffffffffffffff16145b15156102a257600080fd5b8291508373ffffffffffffffffffffffffffffffffffffffff1663ca5f42826000604051602001526040518163ffffffff167c0100000000000000000000000000000000000000000000000000000000028152600401602060405180830381600087803b151561031157600080fd5b6102c65a03f1151561032257600080fd5b5050506040518051905090508173ffffffffffffffffffffffffffffffffffffffff16638067271a6000604051602001526040518163ffffffff167c0100000000000000000000000000000000000000000000000000000000028152600401602060405180830381600087803b151561039a57600080fd5b6102c65a03f115156103ab57600080fd5b5050506040518051905081111515156103c357600080fd5b8173ffffffffffffffffffffffffffffffffffffffff166324d427a9306040518263ffffffff167c0100000000000000000000000000000000000000000000000000000000028152600401808273ffffffffffffffffffffffffffffffffffffffff1673ffffffffffffffffffffffffffffffffffffffff168152602001915050600060405180830381600087803b151561045d57600080fd5b6102c65a03f1151561046e57600080fd5b5050508173ffffffffffffffffffffffffffffffffffffffff1663095ea7b385836000604051602001526040518363ffffffff167c0100000000000000000000000000000000000000000000000000000000028152600401808373ffffffffffffffffffffffffffffffffffffffff1673ffffffffffffffffffffffffffffffffffffffff16815260200182815260200192505050602060405180830381600087803b151561051c57600080fd5b6102c65a03f1151561052d57600080fd5b50505060405180519050508373ffffffffffffffffffffffffffffffffffffffff1663e8b5e51f6040518163ffffffff167c0100000000000000000000000000000000000000000000000000000000028152600401600060405180830381600087803b151561059b57600080fd5b6102c65a03f115156105ac57600080fd5b5050508373ffffffffffffffffffffffffffffffffffffffff167fcbb217ba4b5dcd6d9c1ecf52e874be5dc26237e9f198d0f086097c419333366b60405160405180910390a2505050505600a165627a7a72305820d3b7cfd84b9a446640fcc5f5478d965a5e2023346f5caf0d45a6c548167c885e0029",
  "source": "pragma solidity ^0.4.11;\n\nimport \"../tokens/IToken.sol\";\nimport \"../tokens/PrintableToken.sol\";\nimport \"../loans/Loan.sol\";\n\n\n// Auto-invests total amount in loan by printing money\ncontract AutoInvestor {\n    PrintableToken private collateralToken;\n    PrintableToken private tokenA;\n    PrintableToken private tokenB;\n\n    event Invested(Loan indexed loan);\n\n    function AutoInvestor(\n        PrintableToken _collateralToken,\n        PrintableToken _tokenA,\n        PrintableToken _tokenB\n    ) {\n        collateralToken = _collateralToken;\n        tokenA = _tokenA;\n        tokenB = _tokenB;\n    }\n\n    function invest(Loan loan) {\n        require(loan.collateralToken() == collateralToken);\n        IToken borrowedIToken = loan.borrowedToken();\n        require(borrowedIToken == tokenA || borrowedIToken == tokenB);\n\n        PrintableToken borrowedToken = PrintableToken(borrowedIToken);\n        uint256 amountWanted = loan.amountWanted();\n\n        require(amountWanted <= borrowedToken.printValue());\n\n        borrowedToken.print(this);\n        borrowedToken.approve(loan, amountWanted);\n        loan.invest();\n        Invested(loan);\n    }\n}\n",
  "sourcePath": "/home/q3k/Work/getline/getline-dapp/dapp/contracts/demo/AutoInvestor.sol",
  "compiler": {
    "name": "solc",
    "version": "0.4.18+commit.9cf6e910.Emscripten.clang"
  },
  "schemaVersion": "1.0.1",
  "updatedAt": "2017-11-13T17:53:27.290Z"
}