{
  "contractName": "InvestorLedger",
  "abi": [
    {
      "constant": true,
      "inputs": [
        {
          "name": "ledger",
          "type": "InvestorLedger.Ledger storage"
        },
        {
          "name": "investor",
          "type": "address"
        }
      ],
      "name": "amountInvested",
      "outputs": [
        {
          "name": "amount",
          "type": "uint256"
        }
      ],
      "payable": false,
      "stateMutability": "view",
      "type": "function"
    },
    {
      "constant": false,
      "inputs": [
        {
          "name": "ledger",
          "type": "InvestorLedger.Ledger storage"
        },
        {
          "name": "caller",
          "type": "address"
        }
      ],
      "name": "collateralCollectionProcess",
      "outputs": [],
      "payable": false,
      "stateMutability": "nonpayable",
      "type": "function"
    },
    {
      "constant": false,
      "inputs": [
        {
          "name": "ledger",
          "type": "InvestorLedger.Ledger storage"
        }
      ],
      "name": "processTimeouts",
      "outputs": [
        {
          "name": "",
          "type": "bool"
        }
      ],
      "payable": false,
      "stateMutability": "nonpayable",
      "type": "function"
    },
    {
      "constant": true,
      "inputs": [
        {
          "name": "ledger",
          "type": "InvestorLedger.Ledger storage"
        }
      ],
      "name": "paybackRequired",
      "outputs": [
        {
          "name": "amount",
          "type": "uint256"
        }
      ],
      "payable": false,
      "stateMutability": "view",
      "type": "function"
    },
    {
      "constant": false,
      "inputs": [
        {
          "name": "ledger",
          "type": "InvestorLedger.Ledger storage"
        },
        {
          "name": "caller",
          "type": "address"
        }
      ],
      "name": "canWithdrawCollateralToken",
      "outputs": [
        {
          "name": "_amount",
          "type": "uint256"
        }
      ],
      "payable": false,
      "stateMutability": "nonpayable",
      "type": "function"
    },
    {
      "constant": false,
      "inputs": [
        {
          "name": "ledger",
          "type": "InvestorLedger.Ledger storage"
        },
        {
          "name": "caller",
          "type": "address"
        }
      ],
      "name": "canWithdrawLoanToken",
      "outputs": [
        {
          "name": "_amount",
          "type": "uint256"
        }
      ],
      "payable": false,
      "stateMutability": "nonpayable",
      "type": "function"
    },
    {
      "constant": false,
      "inputs": [
        {
          "name": "ledger",
          "type": "InvestorLedger.Ledger storage"
        },
        {
          "name": "caller",
          "type": "address"
        }
      ],
      "name": "fundraisingProcess",
      "outputs": [],
      "payable": false,
      "stateMutability": "nonpayable",
      "type": "function"
    },
    {
      "constant": false,
      "inputs": [
        {
          "name": "ledger",
          "type": "InvestorLedger.Ledger storage"
        },
        {
          "name": "caller",
          "type": "address"
        }
      ],
      "name": "paybackProcess",
      "outputs": [],
      "payable": false,
      "stateMutability": "nonpayable",
      "type": "function"
    },
    {
      "constant": false,
      "inputs": [
        {
          "name": "ledger",
          "type": "InvestorLedger.Ledger storage"
        },
        {
          "name": "caller",
          "type": "address"
        }
      ],
      "name": "withdraw",
      "outputs": [],
      "payable": false,
      "stateMutability": "nonpayable",
      "type": "function"
    },
    {
      "anonymous": false,
      "inputs": [
        {
          "indexed": true,
          "name": "loan",
          "type": "address"
        },
        {
          "indexed": false,
          "name": "from",
          "type": "uint8"
        },
        {
          "indexed": false,
          "name": "to",
          "type": "uint8"
        }
      ],
      "name": "StateTransition",
      "type": "event"
    },
    {
      "anonymous": false,
      "inputs": [
        {
          "indexed": true,
          "name": "loan",
          "type": "address"
        },
        {
          "indexed": true,
          "name": "investor",
          "type": "address"
        }
      ],
      "name": "NewInvestor",
      "type": "event"
    },
    {
      "anonymous": false,
      "inputs": [
        {
          "indexed": true,
          "name": "loan",
          "type": "address"
        },
        {
          "indexed": true,
          "name": "investor",
          "type": "address"
        },
        {
          "indexed": false,
          "name": "amount",
          "type": "uint256"
        }
      ],
      "name": "InvestmentSent",
      "type": "event"
    },
    {
      "anonymous": false,
      "inputs": [
        {
          "indexed": true,
          "name": "loan",
          "type": "address"
        },
        {
          "indexed": true,
          "name": "to",
          "type": "address"
        },
        {
          "indexed": false,
          "name": "withdrawalType",
          "type": "uint8"
        },
        {
          "indexed": false,
          "name": "amount",
          "type": "uint256"
        }
      ],
      "name": "Withdrawal",
      "type": "event"
    }
  ],
  "bytecode": "0x6060604052341561000f57600080fd5b611c9f8061001e6000396000f300606060405260043610610099576000357c0100000000000000000000000000000000000000000000000000000000900463ffffffff16806343a2e1b01461009e5780636a64cb02146100e9578063875e88c1146101205780638cf388d814610150578063cc857d351461017c578063cd5e88a4146101c7578063dc93f39a14610212578063e491b05814610249578063e93f82f214610280575b600080fd5b6100d3600480803590602001909190803573ffffffffffffffffffffffffffffffffffffffff169060200190919050506102b7565b6040518082815260200191505060405180910390f35b61011e600480803590602001909190803573ffffffffffffffffffffffffffffffffffffffff16906020019091905050610306565b005b610136600480803590602001909190505061073c565b604051808215151515815260200191505060405180910390f35b6101666004808035906020019091905050610826565b6040518082815260200191505060405180910390f35b6101b1600480803590602001909190803573ffffffffffffffffffffffffffffffffffffffff16906020019091905050610843565b6040518082815260200191505060405180910390f35b6101fc600480803590602001909190803573ffffffffffffffffffffffffffffffffffffffff16906020019091905050610b11565b6040518082815260200191505060405180910390f35b610247600480803590602001909190803573ffffffffffffffffffffffffffffffffffffffff16906020019091905050610cca565b005b61027e600480803590602001909190803573ffffffffffffffffffffffffffffffffffffffff1690602001909190505061130c565b005b6102b5600480803590602001909190803573ffffffffffffffffffffffffffffffffffffffff16906020019091905050611662565b005b60008260060160008373ffffffffffffffffffffffffffffffffffffffff1673ffffffffffffffffffffffffffffffffffffffff16815260200190815260200160002060000154905092915050565b6000806000600581111561031657fe5b84600a0160009054906101000a900460ff16600581111561033357fe5b14151561033f57600080fd5b8360020160009054906101000a900473ffffffffffffffffffffffffffffffffffffffff1673ffffffffffffffffffffffffffffffffffffffff168373ffffffffffffffffffffffffffffffffffffffff161415610736578360000160009054906101000a900473ffffffffffffffffffffffffffffffffffffffff1673ffffffffffffffffffffffffffffffffffffffff1663dd62ed3e8560020160009054906101000a900473ffffffffffffffffffffffffffffffffffffffff16306000604051602001526040518363ffffffff167c0100000000000000000000000000000000000000000000000000000000028152600401808373ffffffffffffffffffffffffffffffffffffffff1673ffffffffffffffffffffffffffffffffffffffff1681526020018273ffffffffffffffffffffffffffffffffffffffff1673ffffffffffffffffffffffffffffffffffffffff16815260200192505050602060405180830381600087803b15156104b657600080fd5b6102c65a03f115156104c757600080fd5b5050506040518051905091506000821115610735574290508184600501600082825401925050819055506104fc846001611a26565b8360040160029054906101000a900467ffffffffffffffff1681018460080160006101000a81548167ffffffffffffffff021916908367ffffffffffffffff1602179055508067ffffffffffffffff168460080160009054906101000a900467ffffffffffffffff1667ffffffffffffffff1611151561057b57600080fd5b8360080160009054906101000a900467ffffffffffffffff1667ffffffffffffffff1684600401600a9054906101000a900467ffffffffffffffff168560080160009054906101000a900467ffffffffffffffff160167ffffffffffffffff161115156105e757600080fd5b8360000160009054906101000a900473ffffffffffffffffffffffffffffffffffffffff1673ffffffffffffffffffffffffffffffffffffffff166323b872dd8560020160009054906101000a900473ffffffffffffffffffffffffffffffffffffffff1630856000604051602001526040518463ffffffff167c0100000000000000000000000000000000000000000000000000000000028152600401808473ffffffffffffffffffffffffffffffffffffffff1673ffffffffffffffffffffffffffffffffffffffff1681526020018373ffffffffffffffffffffffffffffffffffffffff1673ffffffffffffffffffffffffffffffffffffffff1681526020018281526020019350505050602060405180830381600087803b151561070e57600080fd5b6102c65a03f1151561071f57600080fd5b50505060405180519050151561073457600080fd5b5b5b50505050565b60006001600581111561074b57fe5b82600a0160009054906101000a900460ff16600581111561076857fe5b14156107ad578160080160009054906101000a900467ffffffffffffffff1667ffffffffffffffff164211156107ac576107a3826005611a26565b60009050610821565b5b600260058111156107ba57fe5b82600a0160009054906101000a900460ff1660058111156107d757fe5b141561081c578160080160089054906101000a900467ffffffffffffffff1667ffffffffffffffff1642111561081b57610812826004611a26565b60009050610821565b5b600190505b919050565b6000610836828360030154611af8565b8260030154019050919050565b6000806000806000806108558861073c565b506003600581111561086357fe5b88600a0160009054906101000a900460ff16600581111561088057fe5b1480156108dc57508760020160009054906101000a900473ffffffffffffffffffffffffffffffffffffffff1673ffffffffffffffffffffffffffffffffffffffff168773ffffffffffffffffffffffffffffffffffffffff16145b1561093957876005015494508760090160008873ffffffffffffffffffffffffffffffffffffffff1673ffffffffffffffffffffffffffffffffffffffff1681526020019081526020016000206001015493508385039550610b06565b60058081111561094557fe5b88600a0160009054906101000a900460ff16600581111561096257fe5b1480156109be57508760020160009054906101000a900473ffffffffffffffffffffffffffffffffffffffff1673ffffffffffffffffffffffffffffffffffffffff168773ffffffffffffffffffffffffffffffffffffffff16145b15610a1b57876005015494508760090160008873ffffffffffffffffffffffffffffffffffffffff1673ffffffffffffffffffffffffffffffffffffffff1681526020019081526020016000206001015493508385039550610b06565b60046005811115610a2857fe5b88600a0160009054906101000a900460ff166005811115610a4557fe5b1415610b0157876005015494508760060160008873ffffffffffffffffffffffffffffffffffffffff1673ffffffffffffffffffffffffffffffffffffffff1681526020019081526020016000206000015492508760070154915081858402811515610aad57fe5b0490508760090160008873ffffffffffffffffffffffffffffffffffffffff1673ffffffffffffffffffffffffffffffffffffffff1681526020019081526020016000206001015493508381039550610b06565b600095505b505050505092915050565b6000806000610b1f8561073c565b5060036005811115610b2d57fe5b85600a0160009054906101000a900460ff166005811115610b4a57fe5b1415610bf6578460060160008573ffffffffffffffffffffffffffffffffffffffff1673ffffffffffffffffffffffffffffffffffffffff168152602001908152602001600020600001549150610ba18583611af8565b820191508460090160008573ffffffffffffffffffffffffffffffffffffffff1673ffffffffffffffffffffffffffffffffffffffff1681526020019081526020016000206000015490508082039250610cc2565b600580811115610c0257fe5b85600a0160009054906101000a900460ff166005811115610c1f57fe5b1415610cbd578460060160008573ffffffffffffffffffffffffffffffffffffffff1673ffffffffffffffffffffffffffffffffffffffff1681526020019081526020016000206000015491508460090160008573ffffffffffffffffffffffffffffffffffffffff1673ffffffffffffffffffffffffffffffffffffffff1681526020019081526020016000206000015490508082039250610cc2565b600092505b505092915050565b600080600080600060016005811115610cdf57fe5b87600a0160009054906101000a900460ff166005811115610cfc57fe5b141515610d0857600080fd5b610d118761073c565b1515610d1c57611303565b8660070154876003015403945085935073__Math__________________________________637ae2b5c78860010160009054906101000a900473ffffffffffffffffffffffffffffffffffffffff1673ffffffffffffffffffffffffffffffffffffffff1663dd62ed3e87306000604051602001526040518363ffffffff167c0100000000000000000000000000000000000000000000000000000000028152600401808373ffffffffffffffffffffffffffffffffffffffff1673ffffffffffffffffffffffffffffffffffffffff1681526020018273ffffffffffffffffffffffffffffffffffffffff1673ffffffffffffffffffffffffffffffffffffffff16815260200192505050602060405180830381600087803b1515610e4157600080fd5b6102c65a03f11515610e5257600080fd5b50505060405180519050876000604051602001526040518363ffffffff167c0100000000000000000000000000000000000000000000000000000000028152600401808381526020018281526020019250505060206040518083038186803b1515610ebc57600080fd5b6102c65a03f41515610ecd57600080fd5b5050506040518051905092506000831115611302574291508660060160008573ffffffffffffffffffffffffffffffffffffffff1673ffffffffffffffffffffffffffffffffffffffff1681526020019081526020016000209050600081600001541415610f90578373ffffffffffffffffffffffffffffffffffffffff163073ffffffffffffffffffffffffffffffffffffffff167f089503121e3a176aa77097b457324d86df56c14f7c42b15e9455f4a2dd13ea0060405160405180910390a35b806000015483826000015401111515610fa857600080fd5b866007015483886007015401111515610fc057600080fd5b82816000016000828254019250508190555082876007016000828254019250508190555086600301548760070154141561104557610fff876002611a26565b86600401600a9054906101000a900467ffffffffffffffff1682018760080160086101000a81548167ffffffffffffffff021916908367ffffffffffffffff1602179055505b8373ffffffffffffffffffffffffffffffffffffffff163073ffffffffffffffffffffffffffffffffffffffff167f417aeb1e4d67843ed08689d9d481faf9cd9fd76750fafa6bb047db4a709526b6856040518082815260200191505060405180910390a38660010160009054906101000a900473ffffffffffffffffffffffffffffffffffffffff1673ffffffffffffffffffffffffffffffffffffffff166323b872dd8530866000604051602001526040518463ffffffff167c0100000000000000000000000000000000000000000000000000000000028152600401808473ffffffffffffffffffffffffffffffffffffffff1673ffffffffffffffffffffffffffffffffffffffff1681526020018373ffffffffffffffffffffffffffffffffffffffff1673ffffffffffffffffffffffffffffffffffffffff1681526020018281526020019350505050602060405180830381600087803b15156111ad57600080fd5b6102c65a03f115156111be57600080fd5b5050506040518051905015156111d357600080fd5b866003015487600701541415611301578660010160009054906101000a900473ffffffffffffffffffffffffffffffffffffffff1673ffffffffffffffffffffffffffffffffffffffff1663a9059cbb8860020160009054906101000a900473ffffffffffffffffffffffffffffffffffffffff1689600301546000604051602001526040518363ffffffff167c0100000000000000000000000000000000000000000000000000000000028152600401808373ffffffffffffffffffffffffffffffffffffffff1673ffffffffffffffffffffffffffffffffffffffff16815260200182815260200192505050602060405180830381600087803b15156112da57600080fd5b6102c65a03f115156112eb57600080fd5b50505060405180519050151561130057600080fd5b5b5b5b50505050505050565b60006002600581111561131b57fe5b83600a0160009054906101000a900460ff16600581111561133857fe5b14151561134457600080fd5b61134d8361073c565b15156113585761165d565b8260020160009054906101000a900473ffffffffffffffffffffffffffffffffffffffff1673ffffffffffffffffffffffffffffffffffffffff168273ffffffffffffffffffffffffffffffffffffffff161415156113b65761165d565b6113bf83610826565b9050808360010160009054906101000a900473ffffffffffffffffffffffffffffffffffffffff1673ffffffffffffffffffffffffffffffffffffffff1663dd62ed3e8560020160009054906101000a900473ffffffffffffffffffffffffffffffffffffffff16306000604051602001526040518363ffffffff167c0100000000000000000000000000000000000000000000000000000000028152600401808373ffffffffffffffffffffffffffffffffffffffff1673ffffffffffffffffffffffffffffffffffffffff1681526020018273ffffffffffffffffffffffffffffffffffffffff1673ffffffffffffffffffffffffffffffffffffffff16815260200192505050602060405180830381600087803b15156114e157600080fd5b6102c65a03f115156114f257600080fd5b5050506040518051905010151561165c5761150e836003611a26565b8260010160009054906101000a900473ffffffffffffffffffffffffffffffffffffffff1673ffffffffffffffffffffffffffffffffffffffff166323b872dd8460020160009054906101000a900473ffffffffffffffffffffffffffffffffffffffff1630846000604051602001526040518463ffffffff167c0100000000000000000000000000000000000000000000000000000000028152600401808473ffffffffffffffffffffffffffffffffffffffff1673ffffffffffffffffffffffffffffffffffffffff1681526020018373ffffffffffffffffffffffffffffffffffffffff1673ffffffffffffffffffffffffffffffffffffffff1681526020018281526020019350505050602060405180830381600087803b151561163557600080fd5b6102c65a03f1151561164657600080fd5b50505060405180519050151561165b57600080fd5b5b5b505050565b60008061166f8484610b11565b9150600082111561184257818460090160008573ffffffffffffffffffffffffffffffffffffffff1673ffffffffffffffffffffffffffffffffffffffff168152602001908152602001600020600001600082825401925050819055508273ffffffffffffffffffffffffffffffffffffffff163073ffffffffffffffffffffffffffffffffffffffff167f426458a7fd1553330538bddbf7201f4964084433c1d1a3e78f2c610c2b35fdf56001856040518083600281111561172e57fe5b60ff1681526020018281526020019250505060405180910390a38360010160009054906101000a900473ffffffffffffffffffffffffffffffffffffffff1673ffffffffffffffffffffffffffffffffffffffff1663a9059cbb84846000604051602001526040518363ffffffff167c0100000000000000000000000000000000000000000000000000000000028152600401808373ffffffffffffffffffffffffffffffffffffffff1673ffffffffffffffffffffffffffffffffffffffff16815260200182815260200192505050602060405180830381600087803b151561181757600080fd5b6102c65a03f1151561182857600080fd5b50505060405180519050151561183d57600080fd5b611a20565b61184c8484610843565b90506000811115611a1f57808460090160008573ffffffffffffffffffffffffffffffffffffffff1673ffffffffffffffffffffffffffffffffffffffff168152602001908152602001600020600101600082825401925050819055508273ffffffffffffffffffffffffffffffffffffffff163073ffffffffffffffffffffffffffffffffffffffff167f426458a7fd1553330538bddbf7201f4964084433c1d1a3e78f2c610c2b35fdf56002846040518083600281111561190b57fe5b60ff1681526020018281526020019250505060405180910390a38360000160009054906101000a900473ffffffffffffffffffffffffffffffffffffffff1673ffffffffffffffffffffffffffffffffffffffff1663a9059cbb84836000604051602001526040518363ffffffff167c0100000000000000000000000000000000000000000000000000000000028152600401808373ffffffffffffffffffffffffffffffffffffffff1673ffffffffffffffffffffffffffffffffffffffff16815260200182815260200192505050602060405180830381600087803b15156119f457600080fd5b6102c65a03f11515611a0557600080fd5b505050604051805190501515611a1a57600080fd5b611a20565b5b50505050565b611a4182600a0160009054906101000a900460ff1682611b28565b1515611a4c57600080fd5b3073ffffffffffffffffffffffffffffffffffffffff167f637e4ae611c85d1dffaa11fe12beebc3c69d9ac079055bbc121d0cac03900eac83600a0160009054906101000a900460ff168360405180836005811115611aa757fe5b60ff168152602001826005811115611abb57fe5b60ff1681526020019250505060405180910390a28082600a0160006101000a81548160ff02191690836005811115611aef57fe5b02179055505050565b60006103e88360040160009054906101000a900461ffff1661ffff168302811515611b1f57fe5b04905092915050565b6000806005811115611b3657fe5b836005811115611b4257fe5b1415611b795760016005811115611b5557fe5b826005811115611b6157fe5b1415611b705760019050611c6d565b60009050611c6d565b60016005811115611b8657fe5b836005811115611b9257fe5b1415611bf05760026005811115611ba557fe5b826005811115611bb157fe5b1415611bc05760019050611c6d565b600580811115611bcc57fe5b826005811115611bd857fe5b1415611be75760019050611c6d565b60009050611c6d565b60026005811115611bfd57fe5b836005811115611c0957fe5b1415611c685760036005811115611c1c57fe5b826005811115611c2857fe5b1415611c375760019050611c6d565b60046005811115611c4457fe5b826005811115611c5057fe5b1415611c5f5760019050611c6d565b60009050611c6d565b600090505b929150505600a165627a7a723058202d682d993246c7b41af36952a878a0a11ea983edf29cb7e284715c8032b3ee3b0029",
  "source": "pragma solidity ^0.4.17;\n\nimport \"../tokens/IToken.sol\";\nimport \"../common/Math.sol\";\n\n\nlibrary InvestorLedger {\n    /// Events\n\n    // A state transition in the loan FSM occured.\n    event StateTransition(\n        address indexed loan,\n        State from,\n        State to\n    );\n\n    // A new investor has invested.\n    event NewInvestor(\n        address indexed loan,\n        address indexed investor\n    );\n\n    // An investment has been sent.\n    event InvestmentSent(\n        address indexed loan,\n        address indexed investor,\n        uint256 amount\n    );\n\n    enum WithdrawalType {\n        Invalid,\n        // Address has withdrawn loan tokens.\n        LoanTokens,\n        // Address has withdrawn collateral tokens.\n        CollateralTokens\n    }\n\n    // An address has withdrawn funds.\n    event Withdrawal(\n        address indexed loan,\n        address indexed to,\n        WithdrawalType withdrawalType,\n        uint256 amount\n    );\n\n    uint constant PERMIL = 1000;\n\n    enum State {\n        // Loan is waiting for collateral to be received from borrower.\n        CollateralCollection,\n        // Loan is waiting to be funded by investors.\n        Fundraising,\n        // Loan is waiting for withdrawal from borrower.\n        Payback,\n        // Loan has been paid back succesfully.\n        Paidback,\n        // Loan has defaulted before it has been fully paid back.\n        Defaulted,\n        // Loan has been cancelled by borrower or has not gathered funds in\n        // time.\n        Canceled\n    }\n\n    // legalTransition is a safeguard function to be used in functions that\n    // modify the Ledger state. It is not checked when the state does not\n    // change (so all A -> A transitions are implicitly allowed).\n    function legalTransition(State from, State to) pure private returns (bool legal) {\n        // No switch statements in Solidity. We'll use a bunch of if-else\n        // blocks, as the alternative is handcrafted assembly.\n        if (from == State.CollateralCollection) {\n            // Loan has collected collateral.\n            if (to == State.Fundraising) {\n                return true;\n            }\n            return false;\n        }\n        if (from == State.Fundraising) {\n            // Loan has raised funds succesfully.\n            if (to == State.Payback) {\n                return true;\n            }\n            // Loan has not raised funds succesfully - let borrower and\n            // investors (if any) collect their tokens back.\n            if (to == State.Canceled) {\n                return true;\n            }\n            return false;\n        }\n        if (from == State.Payback) {\n            // Loan has been paid back successfully.\n            if (to == State.Paidback) {\n                return true;\n            }\n            // Loan has defaulted.\n            if (to == State.Defaulted) {\n                return true;\n            }\n            return false;\n        }\n        return false;\n    }\n\n    // newState applies a state transition to the ledger FSM and ensures it is\n    // legal.\n    function newState(Ledger storage ledger, State next) private {\n        require(legalTransition(ledger.state, next));\n        StateTransition(this, ledger.state, next);\n        ledger.state = next;\n    }\n\n    // Ledger is the main state object of an ongoing loan ledger.\n    struct Ledger {\n        /// Constant ledger parameters.\n        // Token used as collateral.\n        IToken collateralToken;\n        // Main loan Token.\n        IToken loanToken;\n        // Receiver of the loan.\n        address borrower;\n        // How much loanToken does borrower want to borrow.\n        uint256 amountWanted;\n        // Interest of loan in permils.\n        uint16  interestPermil;\n        // Delta (in seconds) between collateral collected and fundraising ending.\n        uint64 fundraisingDelta;\n        // Delta (in seconds)  between fundraising ending and payback needed.\n        uint64 paybackDelta;\n\n        /// Mutable ledger state.\n        // Total collateralToken gathered for loan. It increases from 0 to\n        // the loan collateral when its' gathered.\n        uint256 receivedCollateral;\n        // Data about each investor. It gets upserted any time a new investment\n        // is added.\n        mapping(address => InvestorData) investorData;\n        // Sum of all investments, updated when investorData is updated.\n        uint256 totalAmountInvested;\n        // Absolute timestamp of fundraising deadline, in block time (seconds).\n        // Calculated when we switch to the fundraising state.\n        uint64 fundraisingDeadline;\n        // Absolute timestamp of payback deadline, in block time (seconds).\n        // Calculated when we switch to the payback state.\n        uint64 paybackDeadline;\n\n        /// Withdrawal counters. These increase as different types of withdrawals\n        /// are performed.\n        mapping(address => WithdrawalData) withdrawalData;\n\n        /// Main ledger FSM state.\n        State state;\n    }\n\n    struct InvestorData {\n        uint256 amountInvested;\n    }\n\n    struct WithdrawalData {\n        uint256 loanWithdrawn;\n        uint256 collateralWithdrawn;\n    }\n\n    /// View functions for the Ledger structure that calculate denormalized\n    /// data based on investment status.\n    \n    // amountInvested(address) returns how much was invested into this loan by\n    // a particular address.\n    function amountInvested(Ledger storage ledger, address investor) view public returns (uint256 amount) {\n        return ledger.investorData[investor].amountInvested;\n    }\n\n    // paybackRequired returns how much payback is/will be required for this\n    // loan (loan amount + interest).\n    function paybackRequired(Ledger storage ledger) view public returns (uint256 amount) {\n        return ledger.amountWanted + calculateInterest(ledger, ledger.amountWanted);\n    }\n\n    // calculateInterest is a convenience function to calculate the interest\n    // of this loan on a given value.\n    function calculateInterest(Ledger storage ledger, uint256 investment) view private returns (uint256 interest) {\n        return investment * ledger.interestPermil / PERMIL;\n    }\n\n    // openAccount is a static constructor of the Ledger state object.\n    // @param collateralToken: Token to be used as collateral during the loan.\n    // @param loanToken: Token to be loaned.\n    // @param borrower: Receiver of the loan.\n    // @param totalLoanNeded: How much loanToken does borrower want to borrow.\n    // @param interestPermil: Loan interest, in permil (1/10th of a percent).\n    function openAccount(\n        IToken collateralToken,\n        IToken loanToken,\n        address borrower,\n        uint256 amountWanted,\n        uint16 interestPermil,\n        uint64 fundraisingDelta,\n        uint64 paybackDelta) internal view returns (Ledger account)\n    {\n        // Argument validation.\n        require(fundraisingDelta > 0);\n        require(paybackDelta > 0);\n        require(amountWanted > 0);\n        require(block.timestamp + fundraisingDelta + paybackDelta > block.timestamp);\n        require(block.timestamp + fundraisingDelta + paybackDelta > block.timestamp + fundraisingDelta);\n\n        // Fill new state object.\n        account.collateralToken = collateralToken;\n        account.loanToken = loanToken;\n        account.amountWanted = amountWanted;\n        account.interestPermil = interestPermil;\n        account.borrower = borrower;\n        account.state = State.CollateralCollection;\n        account.fundraisingDelta = fundraisingDelta;\n        account.paybackDelta = paybackDelta;\n        account.fundraisingDeadline = 0;\n        account.paybackDeadline = 0;\n\n        // And return it.\n        return account;\n    }\n\n    function processTimeouts(Ledger storage ledger) public returns (bool) {\n        if (ledger.state == State.Fundraising) {\n            if (block.timestamp > ledger.fundraisingDeadline) {\n                newState(ledger, State.Canceled);\n                return false;\n            }\n        }\n\n        if (ledger.state == State.Payback) {\n            if (block.timestamp > ledger.paybackDeadline) {\n                newState(ledger, State.Defaulted);\n                return false;\n            }\n        }\n\n        return true;\n    }\n\n    // collateralCollectionProcess performs processing within the\n    // CollateralCollection state of the loan FSM and possibly advances to its'\n    // next state. It can:\n    //  - collect the collateral from the borrower and mark the loan as\n    //    Fundraising (the loan now has a collateral it needs to send back)\n    function collateralCollectionProcess(Ledger storage ledger, address caller) public {\n        require(ledger.state == State.CollateralCollection);\n        // Only allow borrower to perform the state transition, otherwise we\n        // could permit races where a malicious actor performs the state\n        // transition when the borrower is not ready to do so.\n        if (caller == ledger.borrower) {\n            var allowance = ledger.collateralToken.allowance(ledger.borrower, this);\n            if (allowance > 0) {\n                uint64 timestamp = uint64(block.timestamp);\n                ledger.receivedCollateral += allowance;\n                newState(ledger, State.Fundraising);\n                ledger.fundraisingDeadline = timestamp + ledger.fundraisingDelta;\n                require(ledger.fundraisingDeadline > timestamp);\n                require(ledger.fundraisingDeadline + ledger.paybackDelta > ledger.fundraisingDeadline);\n\n                require(\n                    ledger.collateralToken.transferFrom(\n                        ledger.borrower,\n                        this,\n                        allowance\n                    )\n                );\n            }\n        }\n    }\n\n    // fundraisingProcess performs processing within the Fundraising state of\n    // the loan FSM and possibly advances to its' next state. It can:\n    // - collect funds from an investor and mark them in a mapping\n    // - if loan is fully funded, send out the investments to the borrower and\n    //   advance to the Payback state\n    // - if timeout is reached, advance to the Canceled state\n    function fundraisingProcess(Ledger storage ledger, address caller) public {\n        require(ledger.state == State.Fundraising);\n\n        if (!processTimeouts(ledger)) {\n            return;\n        }\n\n        uint256 amountNeeded = ledger.amountWanted - ledger.totalAmountInvested;\n        address investor = caller;\n        // Do not invest more than required to fullfill amountWanted.\n        var investmentAmount = Math.min(\n            ledger.loanToken.allowance(investor, this),\n            amountNeeded\n        );\n        if (investmentAmount > 0) {\n            uint64 timestamp = uint64(block.timestamp);\n            var investorData = ledger.investorData[investor];\n            if (investorData.amountInvested == 0) {\n                NewInvestor(this, investor);\n            }\n            // Note down the investment.\n            require(investorData.amountInvested + investmentAmount > investorData.amountInvested);\n            require(ledger.totalAmountInvested + investmentAmount > ledger.totalAmountInvested);\n            investorData.amountInvested += investmentAmount;\n            ledger.totalAmountInvested += investmentAmount;\n            // Did we just gather all investments required?\n            if (ledger.totalAmountInvested == ledger.amountWanted) {\n                newState(ledger, State.Payback);\n                ledger.paybackDeadline = timestamp + ledger.paybackDelta;\n            }\n            // Transfer the investment to the receiving contract.\n            InvestmentSent(this, investor, investmentAmount);\n            require(\n                ledger.loanToken.transferFrom(\n                    investor,\n                    this,\n                    investmentAmount\n                )\n            );\n            // If this was the last required invesment, transfer all the\n            // invested money to the borrower.\n            if (ledger.totalAmountInvested == ledger.amountWanted) {\n                require(\n                    ledger.loanToken.transfer(\n                        ledger.borrower,\n                        ledger.amountWanted\n                    )\n                );\n            }\n        }\n    }\n\n    // paybackProcess prforms processing within the Payback state of the loan\n    // FSM and possibly advances to its' next state. It can:\n    // - collect a full payback from the borrower and advance to the Paidback\n    //   state\n    // - if timeout is reached, advance to the Paidback state\n    function paybackProcess(Ledger storage ledger, address caller) public {\n        require(ledger.state == State.Payback);\n\n        if (!processTimeouts(ledger)) {\n            return;\n        }\n        if (caller != ledger.borrower) {\n            return;\n        }\n\n        // Gather payback, if possible.\n        uint256 payback = paybackRequired(ledger);\n        if (ledger.loanToken.allowance(ledger.borrower, this) >= payback) {\n            newState(ledger, State.Paidback);\n            require(\n                ledger.loanToken.transferFrom(\n                    ledger.borrower,\n                    this,\n                    payback\n                )\n            );\n        }\n    }\n\n    // canWithdrawLoanToken performs processing to see if a given address can\n    // withdraw loan tokens in one of the final states (Paidback, Canceled,\n    // Defaulted)\n    function canWithdrawLoanToken(Ledger storage ledger, address caller) public returns (uint256 _amount) {\n        processTimeouts(ledger);\n\n        if (ledger.state == State.Paidback) {\n            // In Paidback, investors can withdraw investment with interest.\n            uint256 invested = ledger.investorData[caller].amountInvested;\n            invested += calculateInterest(ledger, invested);\n            uint256 withdrawn = ledger.withdrawalData[caller].loanWithdrawn;\n            return invested - withdrawn;\n        }\n\n        if (ledger.state == State.Canceled) {\n            // If the loan was canceled before investment was finished,\n            // investors can get their investment back without interest.\n            invested = ledger.investorData[caller].amountInvested;\n            withdrawn = ledger.withdrawalData[caller].loanWithdrawn;\n            return invested - withdrawn;\n        }\n\n        return 0;\n    }\n\n    // canWithdrawCollateralToken performs processing to see if a given address\n    // can withdraw collateral tokens in one of the final states (Paidback,\n    // Canceled, Defaulted)\n    function canWithdrawCollateralToken(Ledger storage ledger, address caller) public returns (uint256 _amount) {\n        processTimeouts(ledger);\n\n        if (ledger.state == State.Paidback && caller == ledger.borrower) {\n            // In Paidback, the borrower can withdraw their collateral fully.\n            uint256 collected = ledger.receivedCollateral;\n            uint256 withdrawn = ledger.withdrawalData[caller].collateralWithdrawn;\n            return collected - withdrawn;\n        }\n        if (ledger.state == State.Canceled && caller == ledger.borrower) {\n            // In Canceled, the borrower can withdraw their collateral fully.\n            collected = ledger.receivedCollateral;\n            withdrawn = ledger.withdrawalData[caller].collateralWithdrawn;\n            return collected - withdrawn;\n        }\n        if (ledger.state == State.Defaulted) {\n            // In defaulted, investors can withdraw the collateral prorated by\n            // their investment.\n            collected = ledger.receivedCollateral;\n            uint256 invested = ledger.investorData[caller].amountInvested;\n            uint256 totalInvested = ledger.totalAmountInvested;\n            uint256 share = invested * collected / totalInvested;\n            withdrawn = ledger.withdrawalData[caller].collateralWithdrawn;\n            return share - withdrawn;\n        }\n\n        return 0;\n    }\n\n    // withdraw performs withdrawal to a given address of a loan or collateral\n    // token (whichever is available).\n    function withdraw(Ledger storage ledger, address caller) public {\n        uint256 loan = canWithdrawLoanToken(ledger, caller);\n        if (loan > 0) {\n            ledger.withdrawalData[caller].loanWithdrawn += loan;\n            Withdrawal(\n                this,\n                caller,\n                WithdrawalType.LoanTokens,\n                loan\n            );\n            require(\n                ledger.loanToken.transfer(\n                    caller,\n                    loan\n                )\n            );\n            return;\n        }\n        uint256 collateral = canWithdrawCollateralToken(ledger, caller);\n        if (collateral > 0) {\n            ledger.withdrawalData[caller].collateralWithdrawn += collateral;\n            Withdrawal(\n                this,\n                caller,\n                WithdrawalType.CollateralTokens,\n                collateral\n            );\n            require(\n                ledger.collateralToken.transfer(\n                    caller,\n                    collateral\n                )\n            );\n            return;\n        }\n    }\n\n}\n",
  "sourcePath": "/home/q3k/Work/getline/getline/dapp/contracts/loans/InvestorLedger.sol",
  "compiler": {
    "name": "solc",
    "version": "0.4.18+commit.9cf6e910.Emscripten.clang"
  },
  "schemaVersion": "1.0.1",
  "updatedAt": "2018-01-09T12:00:33.073Z"
}