{
  "contractName": "InvestorLedger",
  "abi": [
    {
      "constant": true,
      "inputs": [
        {
          "name": "ledger",
          "type": "InvestorLedger.Ledger storage"
        },
        {
          "name": "investor",
          "type": "address"
        }
      ],
      "name": "amountInvested",
      "outputs": [
        {
          "name": "amount",
          "type": "uint256"
        }
      ],
      "payable": false,
      "stateMutability": "view",
      "type": "function"
    },
    {
      "constant": false,
      "inputs": [
        {
          "name": "ledger",
          "type": "InvestorLedger.Ledger storage"
        },
        {
          "name": "caller",
          "type": "address"
        }
      ],
      "name": "collateralCollectionProcess",
      "outputs": [],
      "payable": false,
      "stateMutability": "nonpayable",
      "type": "function"
    },
    {
      "constant": true,
      "inputs": [
        {
          "name": "ledger",
          "type": "InvestorLedger.Ledger storage"
        }
      ],
      "name": "paybackRequired",
      "outputs": [
        {
          "name": "amount",
          "type": "uint256"
        }
      ],
      "payable": false,
      "stateMutability": "view",
      "type": "function"
    },
    {
      "constant": false,
      "inputs": [
        {
          "name": "ledger",
          "type": "InvestorLedger.Ledger storage"
        }
      ],
      "name": "currentState",
      "outputs": [
        {
          "name": "state",
          "type": "InvestorLedger.State"
        }
      ],
      "payable": false,
      "stateMutability": "nonpayable",
      "type": "function"
    },
    {
      "constant": false,
      "inputs": [
        {
          "name": "ledger",
          "type": "InvestorLedger.Ledger storage"
        },
        {
          "name": "caller",
          "type": "address"
        }
      ],
      "name": "canWithdrawCollateralToken",
      "outputs": [
        {
          "name": "_amount",
          "type": "uint256"
        }
      ],
      "payable": false,
      "stateMutability": "nonpayable",
      "type": "function"
    },
    {
      "constant": false,
      "inputs": [
        {
          "name": "ledger",
          "type": "InvestorLedger.Ledger storage"
        },
        {
          "name": "caller",
          "type": "address"
        }
      ],
      "name": "canWithdrawLoanToken",
      "outputs": [
        {
          "name": "_amount",
          "type": "uint256"
        }
      ],
      "payable": false,
      "stateMutability": "nonpayable",
      "type": "function"
    },
    {
      "constant": false,
      "inputs": [
        {
          "name": "ledger",
          "type": "InvestorLedger.Ledger storage"
        },
        {
          "name": "caller",
          "type": "address"
        }
      ],
      "name": "fundraisingProcess",
      "outputs": [],
      "payable": false,
      "stateMutability": "nonpayable",
      "type": "function"
    },
    {
      "constant": false,
      "inputs": [
        {
          "name": "ledger",
          "type": "InvestorLedger.Ledger storage"
        },
        {
          "name": "caller",
          "type": "address"
        }
      ],
      "name": "paybackProcess",
      "outputs": [],
      "payable": false,
      "stateMutability": "nonpayable",
      "type": "function"
    },
    {
      "constant": false,
      "inputs": [
        {
          "name": "ledger",
          "type": "InvestorLedger.Ledger storage"
        },
        {
          "name": "caller",
          "type": "address"
        }
      ],
      "name": "withdraw",
      "outputs": [],
      "payable": false,
      "stateMutability": "nonpayable",
      "type": "function"
    },
    {
      "anonymous": false,
      "inputs": [
        {
          "indexed": true,
          "name": "loan",
          "type": "address"
        },
        {
          "indexed": false,
          "name": "from",
          "type": "uint8"
        },
        {
          "indexed": false,
          "name": "to",
          "type": "uint8"
        }
      ],
      "name": "StateTransition",
      "type": "event"
    },
    {
      "anonymous": false,
      "inputs": [
        {
          "indexed": true,
          "name": "loan",
          "type": "address"
        },
        {
          "indexed": true,
          "name": "investor",
          "type": "address"
        }
      ],
      "name": "NewInvestor",
      "type": "event"
    },
    {
      "anonymous": false,
      "inputs": [
        {
          "indexed": true,
          "name": "loan",
          "type": "address"
        },
        {
          "indexed": true,
          "name": "investor",
          "type": "address"
        },
        {
          "indexed": false,
          "name": "amount",
          "type": "uint256"
        }
      ],
      "name": "InvestmentSent",
      "type": "event"
    },
    {
      "anonymous": false,
      "inputs": [
        {
          "indexed": true,
          "name": "loan",
          "type": "address"
        },
        {
          "indexed": true,
          "name": "to",
          "type": "address"
        },
        {
          "indexed": false,
          "name": "withdrawalType",
          "type": "uint8"
        },
        {
          "indexed": false,
          "name": "amount",
          "type": "uint256"
        }
      ],
      "name": "Withdrawal",
      "type": "event"
    }
  ],
  "bytecode": "0x6060604052341561000f57600080fd5b611fb48061001e6000396000f300606060405260043610610099576000357c0100000000000000000000000000000000000000000000000000000000900463ffffffff16806343a2e1b01461009e5780636a64cb02146100e95780638cf388d814610120578063bbe787381461014c578063cc857d3514610186578063cd5e88a4146101d1578063dc93f39a1461021c578063e491b05814610253578063e93f82f21461028a575b600080fd5b6100d3600480803590602001909190803573ffffffffffffffffffffffffffffffffffffffff169060200190919050506102c1565b6040518082815260200191505060405180910390f35b61011e600480803590602001909190803573ffffffffffffffffffffffffffffffffffffffff16906020019091905050610310565b005b610136600480803590602001909190505061074b565b6040518082815260200191505060405180910390f35b6101626004808035906020019091905050610768565b6040518082600581111561017257fe5b60ff16815260200191505060405180910390f35b6101bb600480803590602001909190803573ffffffffffffffffffffffffffffffffffffffff16906020019091905050610853565b6040518082815260200191505060405180910390f35b610206600480803590602001909190803573ffffffffffffffffffffffffffffffffffffffff16906020019091905050610be7565b6040518082815260200191505060405180910390f35b610251600480803590602001909190803573ffffffffffffffffffffffffffffffffffffffff16906020019091905050610e66565b005b610288600480803590602001909190803573ffffffffffffffffffffffffffffffffffffffff16906020019091905050611565565b005b6102bf600480803590602001909190803573ffffffffffffffffffffffffffffffffffffffff16906020019091905050611977565b005b60008260060160008373ffffffffffffffffffffffffffffffffffffffff1673ffffffffffffffffffffffffffffffffffffffff16815260200190815260200160002060000154905092915050565b6000806000600581111561032057fe5b84600a0160009054906101000a900460ff16600581111561033d57fe5b14151561034957600080fd5b8360020160009054906101000a900473ffffffffffffffffffffffffffffffffffffffff1673ffffffffffffffffffffffffffffffffffffffff168373ffffffffffffffffffffffffffffffffffffffff161415156103a757600080fd5b8360000160009054906101000a900473ffffffffffffffffffffffffffffffffffffffff1673ffffffffffffffffffffffffffffffffffffffff1663dd62ed3e8560020160009054906101000a900473ffffffffffffffffffffffffffffffffffffffff16306000604051602001526040518363ffffffff167c0100000000000000000000000000000000000000000000000000000000028152600401808373ffffffffffffffffffffffffffffffffffffffff1673ffffffffffffffffffffffffffffffffffffffff1681526020018273ffffffffffffffffffffffffffffffffffffffff1673ffffffffffffffffffffffffffffffffffffffff16815260200192505050602060405180830381600087803b15156104c657600080fd5b6102c65a03f115156104d757600080fd5b5050506040518051905091506000821115610745576104f7846001611d3b565b4290508184600501600082825401925050819055508360040160029054906101000a900467ffffffffffffffff1681018460080160006101000a81548167ffffffffffffffff021916908367ffffffffffffffff1602179055508067ffffffffffffffff168460080160009054906101000a900467ffffffffffffffff1667ffffffffffffffff1611151561058b57600080fd5b8360080160009054906101000a900467ffffffffffffffff1667ffffffffffffffff1684600401600a9054906101000a900467ffffffffffffffff168560080160009054906101000a900467ffffffffffffffff160167ffffffffffffffff161115156105f757600080fd5b8360000160009054906101000a900473ffffffffffffffffffffffffffffffffffffffff1673ffffffffffffffffffffffffffffffffffffffff166323b872dd8560020160009054906101000a900473ffffffffffffffffffffffffffffffffffffffff1630856000604051602001526040518463ffffffff167c0100000000000000000000000000000000000000000000000000000000028152600401808473ffffffffffffffffffffffffffffffffffffffff1673ffffffffffffffffffffffffffffffffffffffff1681526020018373ffffffffffffffffffffffffffffffffffffffff1673ffffffffffffffffffffffffffffffffffffffff1681526020018281526020019350505050602060405180830381600087803b151561071e57600080fd5b6102c65a03f1151561072f57600080fd5b50505060405180519050151561074457600080fd5b5b50505050565b600061075b828360030154611e0d565b8260030154019050919050565b6000816001600581111561077857fe5b81600a0160009054906101000a900460ff16600581111561079557fe5b14156107d2578060080160009054906101000a900467ffffffffffffffff1667ffffffffffffffff164211156107d1576107d0816005611d3b565b5b5b600260058111156107df57fe5b81600a0160009054906101000a900460ff1660058111156107fc57fe5b1415610839578060080160089054906101000a900467ffffffffffffffff1667ffffffffffffffff1642111561083857610837816004611d3b565b5b5b82600a0160009054906101000a900460ff16915050919050565b600080600080600080876001600581111561086a57fe5b81600a0160009054906101000a900460ff16600581111561088757fe5b14156108c4578060080160009054906101000a900467ffffffffffffffff1667ffffffffffffffff164211156108c3576108c2816005611d3b565b5b5b600260058111156108d157fe5b81600a0160009054906101000a900460ff1660058111156108ee57fe5b141561092b578060080160089054906101000a900467ffffffffffffffff1667ffffffffffffffff1642111561092a57610929816004611d3b565b5b5b6003600581111561093857fe5b89600a0160009054906101000a900460ff16600581111561095557fe5b1480156109b157508860020160009054906101000a900473ffffffffffffffffffffffffffffffffffffffff1673ffffffffffffffffffffffffffffffffffffffff168873ffffffffffffffffffffffffffffffffffffffff16145b15610a0e57886005015495508860090160008973ffffffffffffffffffffffffffffffffffffffff1673ffffffffffffffffffffffffffffffffffffffff1681526020019081526020016000206001015494508486039650610bdb565b600580811115610a1a57fe5b89600a0160009054906101000a900460ff166005811115610a3757fe5b148015610a9357508860020160009054906101000a900473ffffffffffffffffffffffffffffffffffffffff1673ffffffffffffffffffffffffffffffffffffffff168873ffffffffffffffffffffffffffffffffffffffff16145b15610af057886005015495508860090160008973ffffffffffffffffffffffffffffffffffffffff1673ffffffffffffffffffffffffffffffffffffffff1681526020019081526020016000206001015494508486039650610bdb565b60046005811115610afd57fe5b89600a0160009054906101000a900460ff166005811115610b1a57fe5b1415610bd657886005015495508860060160008973ffffffffffffffffffffffffffffffffffffffff1673ffffffffffffffffffffffffffffffffffffffff1681526020019081526020016000206000015493508860070154925082868502811515610b8257fe5b0491508860090160008973ffffffffffffffffffffffffffffffffffffffff1673ffffffffffffffffffffffffffffffffffffffff1681526020019081526020016000206001015494508482039650610bdb565b600096505b50505050505092915050565b60008060008460016005811115610bfa57fe5b81600a0160009054906101000a900460ff166005811115610c1757fe5b1415610c54578060080160009054906101000a900467ffffffffffffffff1667ffffffffffffffff16421115610c5357610c52816005611d3b565b5b5b60026005811115610c6157fe5b81600a0160009054906101000a900460ff166005811115610c7e57fe5b1415610cbb578060080160089054906101000a900467ffffffffffffffff1667ffffffffffffffff16421115610cba57610cb9816004611d3b565b5b5b60036005811115610cc857fe5b86600a0160009054906101000a900460ff166005811115610ce557fe5b1415610d91578560060160008673ffffffffffffffffffffffffffffffffffffffff1673ffffffffffffffffffffffffffffffffffffffff168152602001908152602001600020600001549250610d3c8684611e0d565b830192508560090160008673ffffffffffffffffffffffffffffffffffffffff1673ffffffffffffffffffffffffffffffffffffffff1681526020019081526020016000206000015491508183039350610e5d565b600580811115610d9d57fe5b86600a0160009054906101000a900460ff166005811115610dba57fe5b1415610e58578560060160008673ffffffffffffffffffffffffffffffffffffffff1673ffffffffffffffffffffffffffffffffffffffff1681526020019081526020016000206000015492508560090160008673ffffffffffffffffffffffffffffffffffffffff1673ffffffffffffffffffffffffffffffffffffffff1681526020019081526020016000206000015491508183039350610e5d565b600093505b50505092915050565b60008060008060008660016005811115610e7c57fe5b81600a0160009054906101000a900460ff166005811115610e9957fe5b1415610ed6578060080160009054906101000a900467ffffffffffffffff1667ffffffffffffffff16421115610ed557610ed4816005611d3b565b5b5b60026005811115610ee357fe5b81600a0160009054906101000a900460ff166005811115610f0057fe5b1415610f3d578060080160089054906101000a900467ffffffffffffffff1667ffffffffffffffff16421115610f3c57610f3b816004611d3b565b5b5b60016005811115610f4a57fe5b88600a0160009054906101000a900460ff166005811115610f6757fe5b141515610f7357600080fd5b8760070154886003015403955086945073__Math__________________________________637ae2b5c78960010160009054906101000a900473ffffffffffffffffffffffffffffffffffffffff1673ffffffffffffffffffffffffffffffffffffffff1663dd62ed3e88306000604051602001526040518363ffffffff167c0100000000000000000000000000000000000000000000000000000000028152600401808373ffffffffffffffffffffffffffffffffffffffff1673ffffffffffffffffffffffffffffffffffffffff1681526020018273ffffffffffffffffffffffffffffffffffffffff1673ffffffffffffffffffffffffffffffffffffffff16815260200192505050602060405180830381600087803b151561109857600080fd5b6102c65a03f115156110a957600080fd5b50505060405180519050886000604051602001526040518363ffffffff167c0100000000000000000000000000000000000000000000000000000000028152600401808381526020018281526020019250505060206040518083038186803b151561111357600080fd5b6102c65a03f4151561112457600080fd5b505050604051805190509350600084111561155b574292508760060160008673ffffffffffffffffffffffffffffffffffffffff1673ffffffffffffffffffffffffffffffffffffffff16815260200190815260200160002091506000826000015414156111e7578473ffffffffffffffffffffffffffffffffffffffff163073ffffffffffffffffffffffffffffffffffffffff167f089503121e3a176aa77097b457324d86df56c14f7c42b15e9455f4a2dd13ea0060405160405180910390a35b8160000154848360000154011115156111ff57600080fd5b87600701548489600701540111151561121757600080fd5b876003015484896007015401141561127a57611234886002611d3b565b87600401600a9054906101000a900467ffffffffffffffff1683018860080160086101000a81548167ffffffffffffffff021916908367ffffffffffffffff1602179055505b8382600001600082825401925050819055508388600701600082825401925050819055508473ffffffffffffffffffffffffffffffffffffffff163073ffffffffffffffffffffffffffffffffffffffff167f417aeb1e4d67843ed08689d9d481faf9cd9fd76750fafa6bb047db4a709526b6866040518082815260200191505060405180910390a38760010160009054906101000a900473ffffffffffffffffffffffffffffffffffffffff1673ffffffffffffffffffffffffffffffffffffffff166323b872dd8630876000604051602001526040518463ffffffff167c0100000000000000000000000000000000000000000000000000000000028152600401808473ffffffffffffffffffffffffffffffffffffffff1673ffffffffffffffffffffffffffffffffffffffff1681526020018373ffffffffffffffffffffffffffffffffffffffff1673ffffffffffffffffffffffffffffffffffffffff1681526020018281526020019350505050602060405180830381600087803b151561140657600080fd5b6102c65a03f1151561141757600080fd5b50505060405180519050151561142c57600080fd5b87600301548860070154141561155a578760010160009054906101000a900473ffffffffffffffffffffffffffffffffffffffff1673ffffffffffffffffffffffffffffffffffffffff1663a9059cbb8960020160009054906101000a900473ffffffffffffffffffffffffffffffffffffffff168a600301546000604051602001526040518363ffffffff167c0100000000000000000000000000000000000000000000000000000000028152600401808373ffffffffffffffffffffffffffffffffffffffff1673ffffffffffffffffffffffffffffffffffffffff16815260200182815260200192505050602060405180830381600087803b151561153357600080fd5b6102c65a03f1151561154457600080fd5b50505060405180519050151561155957600080fd5b5b5b5050505050505050565b6000826001600581111561157557fe5b81600a0160009054906101000a900460ff16600581111561159257fe5b14156115cf578060080160009054906101000a900467ffffffffffffffff1667ffffffffffffffff164211156115ce576115cd816005611d3b565b5b5b600260058111156115dc57fe5b81600a0160009054906101000a900460ff1660058111156115f957fe5b1415611636578060080160089054906101000a900467ffffffffffffffff1667ffffffffffffffff1642111561163557611634816004611d3b565b5b5b6002600581111561164357fe5b84600a0160009054906101000a900460ff16600581111561166057fe5b14151561166c57600080fd5b8360020160009054906101000a900473ffffffffffffffffffffffffffffffffffffffff1673ffffffffffffffffffffffffffffffffffffffff168373ffffffffffffffffffffffffffffffffffffffff161415156116ca57611971565b6116d38461074b565b9150818460010160009054906101000a900473ffffffffffffffffffffffffffffffffffffffff1673ffffffffffffffffffffffffffffffffffffffff1663dd62ed3e8660020160009054906101000a900473ffffffffffffffffffffffffffffffffffffffff16306000604051602001526040518363ffffffff167c0100000000000000000000000000000000000000000000000000000000028152600401808373ffffffffffffffffffffffffffffffffffffffff1673ffffffffffffffffffffffffffffffffffffffff1681526020018273ffffffffffffffffffffffffffffffffffffffff1673ffffffffffffffffffffffffffffffffffffffff16815260200192505050602060405180830381600087803b15156117f557600080fd5b6102c65a03f1151561180657600080fd5b5050506040518051905010151561197057611822846003611d3b565b8360010160009054906101000a900473ffffffffffffffffffffffffffffffffffffffff1673ffffffffffffffffffffffffffffffffffffffff166323b872dd8560020160009054906101000a900473ffffffffffffffffffffffffffffffffffffffff1630856000604051602001526040518463ffffffff167c0100000000000000000000000000000000000000000000000000000000028152600401808473ffffffffffffffffffffffffffffffffffffffff1673ffffffffffffffffffffffffffffffffffffffff1681526020018373ffffffffffffffffffffffffffffffffffffffff1673ffffffffffffffffffffffffffffffffffffffff1681526020018281526020019350505050602060405180830381600087803b151561194957600080fd5b6102c65a03f1151561195a57600080fd5b50505060405180519050151561196f57600080fd5b5b5b50505050565b6000806119848484610be7565b91506000821115611b5757818460090160008573ffffffffffffffffffffffffffffffffffffffff1673ffffffffffffffffffffffffffffffffffffffff168152602001908152602001600020600001600082825401925050819055508273ffffffffffffffffffffffffffffffffffffffff163073ffffffffffffffffffffffffffffffffffffffff167f426458a7fd1553330538bddbf7201f4964084433c1d1a3e78f2c610c2b35fdf560018560405180836002811115611a4357fe5b60ff1681526020018281526020019250505060405180910390a38360010160009054906101000a900473ffffffffffffffffffffffffffffffffffffffff1673ffffffffffffffffffffffffffffffffffffffff1663a9059cbb84846000604051602001526040518363ffffffff167c0100000000000000000000000000000000000000000000000000000000028152600401808373ffffffffffffffffffffffffffffffffffffffff1673ffffffffffffffffffffffffffffffffffffffff16815260200182815260200192505050602060405180830381600087803b1515611b2c57600080fd5b6102c65a03f11515611b3d57600080fd5b505050604051805190501515611b5257600080fd5b611d35565b611b618484610853565b90506000811115611d3457808460090160008573ffffffffffffffffffffffffffffffffffffffff1673ffffffffffffffffffffffffffffffffffffffff168152602001908152602001600020600101600082825401925050819055508273ffffffffffffffffffffffffffffffffffffffff163073ffffffffffffffffffffffffffffffffffffffff167f426458a7fd1553330538bddbf7201f4964084433c1d1a3e78f2c610c2b35fdf560028460405180836002811115611c2057fe5b60ff1681526020018281526020019250505060405180910390a38360000160009054906101000a900473ffffffffffffffffffffffffffffffffffffffff1673ffffffffffffffffffffffffffffffffffffffff1663a9059cbb84836000604051602001526040518363ffffffff167c0100000000000000000000000000000000000000000000000000000000028152600401808373ffffffffffffffffffffffffffffffffffffffff1673ffffffffffffffffffffffffffffffffffffffff16815260200182815260200192505050602060405180830381600087803b1515611d0957600080fd5b6102c65a03f11515611d1a57600080fd5b505050604051805190501515611d2f57600080fd5b611d35565b5b50505050565b611d5682600a0160009054906101000a900460ff1682611e3d565b1515611d6157600080fd5b3073ffffffffffffffffffffffffffffffffffffffff167f637e4ae611c85d1dffaa11fe12beebc3c69d9ac079055bbc121d0cac03900eac83600a0160009054906101000a900460ff168360405180836005811115611dbc57fe5b60ff168152602001826005811115611dd057fe5b60ff1681526020019250505060405180910390a28082600a0160006101000a81548160ff02191690836005811115611e0457fe5b02179055505050565b60006103e88360040160009054906101000a900461ffff1661ffff168302811515611e3457fe5b04905092915050565b6000806005811115611e4b57fe5b836005811115611e5757fe5b1415611e8e5760016005811115611e6a57fe5b826005811115611e7657fe5b1415611e855760019050611f82565b60009050611f82565b60016005811115611e9b57fe5b836005811115611ea757fe5b1415611f055760026005811115611eba57fe5b826005811115611ec657fe5b1415611ed55760019050611f82565b600580811115611ee157fe5b826005811115611eed57fe5b1415611efc5760019050611f82565b60009050611f82565b60026005811115611f1257fe5b836005811115611f1e57fe5b1415611f7d5760036005811115611f3157fe5b826005811115611f3d57fe5b1415611f4c5760019050611f82565b60046005811115611f5957fe5b826005811115611f6557fe5b1415611f745760019050611f82565b60009050611f82565b600090505b929150505600a165627a7a72305820b84df2563bf0cf841803de7d67608eac765c2ad377f8085b903af896d50a8f160029",
  "source": "pragma solidity ^0.4.17;\n\nimport \"../tokens/IToken.sol\";\nimport \"../common/Math.sol\";\n\n\nlibrary InvestorLedger {\n    /// Events\n\n    // A state transition in the loan FSM occured.\n    event StateTransition(\n        address indexed loan,\n        State from,\n        State to\n    );\n\n    // A new investor has invested.\n    event NewInvestor(\n        address indexed loan,\n        address indexed investor\n    );\n\n    // An investment has been sent.\n    event InvestmentSent(\n        address indexed loan,\n        address indexed investor,\n        uint256 amount\n    );\n\n    enum WithdrawalType {\n        Invalid,\n        // Address has withdrawn loan tokens.\n        LoanTokens,\n        // Address has withdrawn collateral tokens.\n        CollateralTokens\n    }\n\n    // An address has withdrawn funds.\n    event Withdrawal(\n        address indexed loan,\n        address indexed to,\n        WithdrawalType withdrawalType,\n        uint256 amount\n    );\n\n    uint constant PERMIL = 1000;\n\n    enum State {\n        // Loan is waiting for collateral to be received from borrower.\n        CollateralCollection,\n        // Loan is waiting to be funded by investors.\n        Fundraising,\n        // Loan is waiting for withdrawal from borrower.\n        Payback,\n        // Loan has been paid back succesfully.\n        Paidback,\n        // Loan has defaulted before it has been fully paid back.\n        Defaulted,\n        // Loan has been cancelled by borrower or has not gathered funds in\n        // time.\n        Canceled\n    }\n\n    // legalTransition is a safeguard function to be used in functions that\n    // modify the Ledger state. It is not checked when the state does not\n    // change (so all A -> A transitions are implicitly allowed).\n    function legalTransition(State from, State to) pure private returns (bool legal) {\n        // No switch statements in Solidity. We'll use a bunch of if-else\n        // blocks, as the alternative is handcrafted assembly.\n        if (from == State.CollateralCollection) {\n            // Loan has collected collateral.\n            if (to == State.Fundraising) {\n                return true;\n            }\n            return false;\n        }\n        if (from == State.Fundraising) {\n            // Loan has raised funds succesfully.\n            if (to == State.Payback) {\n                return true;\n            }\n            // Loan has not raised funds succesfully - let borrower and\n            // investors (if any) collect their tokens back.\n            if (to == State.Canceled) {\n                return true;\n            }\n            return false;\n        }\n        if (from == State.Payback) {\n            // Loan has been paid back successfully.\n            if (to == State.Paidback) {\n                return true;\n            }\n            // Loan has defaulted.\n            if (to == State.Defaulted) {\n                return true;\n            }\n            return false;\n        }\n        return false;\n    }\n\n    // newState applies a state transition to the ledger FSM and ensures it is\n    // legal.\n    function newState(Ledger storage ledger, State next) private {\n        require(legalTransition(ledger.state, next));\n        StateTransition(this, ledger.state, next);\n        ledger.state = next;\n    }\n\n    // Ledger is the main state object of an ongoing loan ledger.\n    struct Ledger {\n        /// Constant ledger parameters.\n        // Token used as collateral.\n        IToken collateralToken;\n        // Main loan Token.\n        IToken loanToken;\n        // Receiver of the loan.\n        address borrower;\n        // How much loanToken does borrower want to borrow.\n        uint256 amountWanted;\n        // Interest of loan in permils.\n        uint16  interestPermil;\n        // Delta (in seconds) between collateral collected and fundraising ending.\n        uint64 fundraisingDelta;\n        // Delta (in seconds)  between fundraising ending and payback needed.\n        uint64 paybackDelta;\n\n        /// Mutable ledger state.\n        // Total collateralToken gathered for loan. It increases from 0 to\n        // the loan collateral when its' gathered.\n        uint256 receivedCollateral;\n        // Data about each investor. It gets upserted any time a new investment\n        // is added.\n        mapping(address => InvestorData) investorData;\n        // Sum of all investments, updated when investorData is updated.\n        uint256 totalAmountInvested;\n        // Absolute timestamp of fundraising deadline, in block time (seconds).\n        // Calculated when we switch to the fundraising state.\n        uint64 fundraisingDeadline;\n        // Absolute timestamp of payback deadline, in block time (seconds).\n        // Calculated when we switch to the payback state.\n        uint64 paybackDeadline;\n\n        /// Withdrawal counters. These increase as different types of withdrawals\n        /// are performed.\n        mapping(address => WithdrawalData) withdrawalData;\n\n        /// Main ledger FSM state.\n        State state;\n    }\n\n    struct InvestorData {\n        uint256 amountInvested;\n    }\n\n    struct WithdrawalData {\n        uint256 loanWithdrawn;\n        uint256 collateralWithdrawn;\n    }\n\n    /// View functions for the Ledger structure that calculate denormalized\n    /// data based on investment status.\n    \n    // amountInvested(address) returns how much was invested into this loan by\n    // a particular address.\n    function amountInvested(Ledger storage ledger, address investor) view public returns (uint256 amount) {\n        return ledger.investorData[investor].amountInvested;\n    }\n\n    // paybackRequired returns how much payback is/will be required for this\n    // loan (loan amount + interest).\n    function paybackRequired(Ledger storage ledger) view public returns (uint256 amount) {\n        return ledger.amountWanted + calculateInterest(ledger, ledger.amountWanted);\n    }\n\n    // calculateInterest is a convenience function to calculate the interest\n    // of this loan on a given value.\n    function calculateInterest(Ledger storage ledger, uint256 investment) view private returns (uint256 interest) {\n        return investment * ledger.interestPermil / PERMIL;\n    }\n\n    // currentState returns the ledger's current state, possible altered by\n    // timeouts.\n    function currentState(Ledger storage ledger) processTimeouts(ledger) public returns (State state) {\n        return ledger.state;\n    }\n\n    // openAccount is a static constructor of the Ledger state object.\n    // @param collateralToken: Token to be used as collateral during the loan.\n    // @param loanToken: Token to be loaned.\n    // @param borrower: Receiver of the loan.\n    // @param totalLoanNeded: How much loanToken does borrower want to borrow.\n    // @param interestPermil: Loan interest, in permil (1/10th of a percent).\n    function openAccount(\n        IToken collateralToken,\n        IToken loanToken,\n        address borrower,\n        uint256 amountWanted,\n        uint16 interestPermil,\n        uint64 fundraisingDelta,\n        uint64 paybackDelta) internal view returns (Ledger account)\n    {\n        // Argument validation.\n        require(fundraisingDelta > 0);\n        require(paybackDelta > 0);\n        require(amountWanted > 0);\n\n        /// Overflow checks for time deltas. These are overkill as we only\n        /// accept 64-bit arguments for deltas yet store timestamps in 256-bit\n        /// variables.\n        // Ensure that a calculated fundraising time does not overflow to be\n        // before now.\n        require(block.timestamp + fundraisingDelta > block.timestamp);\n        // Ensure that a calculated payback time does not overflow to be\n        // before now.\n        require(block.timestamp + fundraisingDelta + paybackDelta > block.timestamp);\n        // Ensure that a calculated payback time does not overflow to be before\n        // fundraising.\n        require(block.timestamp + fundraisingDelta + paybackDelta > block.timestamp + fundraisingDelta);\n\n        // Fill new state object.\n        account.collateralToken = collateralToken;\n        account.loanToken = loanToken;\n        account.amountWanted = amountWanted;\n        account.interestPermil = interestPermil;\n        account.borrower = borrower;\n        account.state = State.CollateralCollection;\n        account.fundraisingDelta = fundraisingDelta;\n        account.paybackDelta = paybackDelta;\n        account.fundraisingDeadline = 0;\n        account.paybackDeadline = 0;\n\n        // And return it.\n        return account;\n    }\n\n    // Checks if the current ledger state is one that can time out. If so,\n    // performs the timeout check and advances state if required.\n    modifier processTimeouts(Ledger storage ledger) {\n        if (ledger.state == State.Fundraising) {\n            if (block.timestamp > ledger.fundraisingDeadline) {\n                newState(ledger, State.Canceled);\n            }\n        }\n\n        if (ledger.state == State.Payback) {\n            if (block.timestamp > ledger.paybackDeadline) {\n                newState(ledger, State.Defaulted);\n            }\n        }\n\n        _;\n    }\n\n    // collateralCollectionProcess performs processing within the\n    // CollateralCollection state of the loan FSM and possibly advances to its'\n    // next state. It can:\n    //  - collect the collateral from the borrower and mark the loan as\n    //    Fundraising (the loan now has a collateral it needs to send back)\n    function collateralCollectionProcess(Ledger storage ledger, address caller) public {\n        require(ledger.state == State.CollateralCollection);\n        // Only allow borrower to perform the state transition, otherwise we\n        // could permit races where a malicious actor performs the state\n        // transition when the borrower is not ready to do so.\n        require(caller == ledger.borrower);\n\n        var allowance = ledger.collateralToken.allowance(ledger.borrower, this);\n        if (allowance > 0) {\n            newState(ledger, State.Fundraising);\n            uint64 timestamp = uint64(block.timestamp);\n            ledger.receivedCollateral += allowance;\n            ledger.fundraisingDeadline = timestamp + ledger.fundraisingDelta;\n            require(ledger.fundraisingDeadline > timestamp);\n            require(ledger.fundraisingDeadline + ledger.paybackDelta > ledger.fundraisingDeadline);\n\n            require(\n                ledger.collateralToken.transferFrom(\n                    ledger.borrower,\n                    this,\n                    allowance\n                )\n            );\n        }\n    }\n\n    // fundraisingProcess performs processing within the Fundraising state of\n    // the loan FSM and possibly advances to its' next state. It can:\n    // - collect funds from an investor and mark them in a mapping\n    // - if loan is fully funded, send out the investments to the borrower and\n    //   advance to the Payback state\n    // - if timeout is reached, advance to the Canceled state\n    function fundraisingProcess(Ledger storage ledger, address caller) processTimeouts(ledger) public {\n        require(ledger.state == State.Fundraising);\n\n        uint256 amountNeeded = ledger.amountWanted - ledger.totalAmountInvested;\n        address investor = caller;\n        // Do not invest more than required to fullfill amountWanted.\n        var investmentAmount = Math.min(\n            ledger.loanToken.allowance(investor, this),\n            amountNeeded\n        );\n        if (investmentAmount > 0) {\n            uint64 timestamp = uint64(block.timestamp);\n            var investorData = ledger.investorData[investor];\n            if (investorData.amountInvested == 0) {\n                NewInvestor(this, investor);\n            }\n\n            // Check overflows on investment amounts.\n            require(investorData.amountInvested + investmentAmount > investorData.amountInvested);\n            require(ledger.totalAmountInvested + investmentAmount > ledger.totalAmountInvested);\n            // Did we just gather all investments required? Change state and\n            // block re-entry to this state.\n            if (ledger.totalAmountInvested + investmentAmount == ledger.amountWanted) {\n                newState(ledger, State.Payback);\n                ledger.paybackDeadline = timestamp + ledger.paybackDelta;\n            }\n            // Note down the investment.\n            investorData.amountInvested += investmentAmount;\n            ledger.totalAmountInvested += investmentAmount;\n\n            // Transfer the investment to the receiving contract.\n            InvestmentSent(this, investor, investmentAmount);\n            require(\n                ledger.loanToken.transferFrom(\n                    investor,\n                    this,\n                    investmentAmount\n                )\n            );\n            // If this was the last required invesment, transfer all the\n            // invested money to the borrower.\n            if (ledger.totalAmountInvested == ledger.amountWanted) {\n                require(\n                    ledger.loanToken.transfer(\n                        ledger.borrower,\n                        ledger.amountWanted\n                    )\n                );\n            }\n        }\n    }\n\n    // paybackProcess prforms processing within the Payback state of the loan\n    // FSM and possibly advances to its' next state. It can:\n    // - collect a full payback from the borrower and advance to the Paidback\n    //   state\n    // - if timeout is reached, advance to the Paidback state\n    function paybackProcess(Ledger storage ledger, address caller) processTimeouts(ledger) public {\n        require(ledger.state == State.Payback);\n\n        if (caller != ledger.borrower) {\n            return;\n        }\n\n        // Gather payback, if possible.\n        uint256 payback = paybackRequired(ledger);\n        if (ledger.loanToken.allowance(ledger.borrower, this) >= payback) {\n            newState(ledger, State.Paidback);\n            require(\n                ledger.loanToken.transferFrom(\n                    ledger.borrower,\n                    this,\n                    payback\n                )\n            );\n        }\n    }\n\n    // canWithdrawLoanToken performs processing to see if a given address can\n    // withdraw loan tokens in one of the final states (Paidback, Canceled,\n    // Defaulted)\n    function canWithdrawLoanToken(Ledger storage ledger, address caller) processTimeouts(ledger) public returns (uint256 _amount) {\n        if (ledger.state == State.Paidback) {\n            // In Paidback, investors can withdraw investment with interest.\n            uint256 invested = ledger.investorData[caller].amountInvested;\n            invested += calculateInterest(ledger, invested);\n            uint256 withdrawn = ledger.withdrawalData[caller].loanWithdrawn;\n            return invested - withdrawn;\n        }\n\n        if (ledger.state == State.Canceled) {\n            // If the loan was canceled before investment was finished,\n            // investors can get their investment back without interest.\n            invested = ledger.investorData[caller].amountInvested;\n            withdrawn = ledger.withdrawalData[caller].loanWithdrawn;\n            return invested - withdrawn;\n        }\n\n        return 0;\n    }\n\n    // canWithdrawCollateralToken performs processing to see if a given address\n    // can withdraw collateral tokens in one of the final states (Paidback,\n    // Canceled, Defaulted)\n    function canWithdrawCollateralToken(Ledger storage ledger, address caller) processTimeouts(ledger) public returns (uint256 _amount) {\n\n        if (ledger.state == State.Paidback && caller == ledger.borrower) {\n            // In Paidback, the borrower can withdraw their collateral fully.\n            uint256 collected = ledger.receivedCollateral;\n            uint256 withdrawn = ledger.withdrawalData[caller].collateralWithdrawn;\n            return collected - withdrawn;\n        }\n        if (ledger.state == State.Canceled && caller == ledger.borrower) {\n            // In Canceled, the borrower can withdraw their collateral fully.\n            collected = ledger.receivedCollateral;\n            withdrawn = ledger.withdrawalData[caller].collateralWithdrawn;\n            return collected - withdrawn;\n        }\n        if (ledger.state == State.Defaulted) {\n            // In defaulted, investors can withdraw the collateral prorated by\n            // their investment.\n            collected = ledger.receivedCollateral;\n            uint256 invested = ledger.investorData[caller].amountInvested;\n            uint256 totalInvested = ledger.totalAmountInvested;\n            uint256 share = invested * collected / totalInvested;\n            withdrawn = ledger.withdrawalData[caller].collateralWithdrawn;\n            return share - withdrawn;\n        }\n\n        return 0;\n    }\n\n    // withdraw performs withdrawal to a given address of a loan or collateral\n    // token (whichever is available).\n    function withdraw(Ledger storage ledger, address caller) public {\n        uint256 loan = canWithdrawLoanToken(ledger, caller);\n        if (loan > 0) {\n            ledger.withdrawalData[caller].loanWithdrawn += loan;\n            Withdrawal(\n                this,\n                caller,\n                WithdrawalType.LoanTokens,\n                loan\n            );\n            require(\n                ledger.loanToken.transfer(\n                    caller,\n                    loan\n                )\n            );\n            return;\n        }\n        uint256 collateral = canWithdrawCollateralToken(ledger, caller);\n        if (collateral > 0) {\n            ledger.withdrawalData[caller].collateralWithdrawn += collateral;\n            Withdrawal(\n                this,\n                caller,\n                WithdrawalType.CollateralTokens,\n                collateral\n            );\n            require(\n                ledger.collateralToken.transfer(\n                    caller,\n                    collateral\n                )\n            );\n            return;\n        }\n    }\n\n}\n",
  "sourcePath": "/home/q3k/Work/getline/getline/dapp/contracts/loans/InvestorLedger.sol",
  "compiler": {
    "name": "solc",
    "version": "0.4.18+commit.9cf6e910.Emscripten.clang"
  },
  "schemaVersion": "1.0.1",
  "updatedAt": "2018-01-09T12:49:18.267Z"
}