{
  "contractName": "InvestorLedger",
  "abi": [
    {
      "constant": false,
      "inputs": [
        {
          "name": "ledger",
          "type": "InvestorLedger.Ledger storage"
        }
      ],
      "name": "defaultedProcess",
      "outputs": [],
      "payable": false,
      "stateMutability": "nonpayable",
      "type": "function"
    },
    {
      "constant": true,
      "inputs": [
        {
          "name": "ledger",
          "type": "InvestorLedger.Ledger storage"
        },
        {
          "name": "investor",
          "type": "address"
        }
      ],
      "name": "amountInvested",
      "outputs": [
        {
          "name": "amount",
          "type": "uint256"
        }
      ],
      "payable": false,
      "stateMutability": "view",
      "type": "function"
    },
    {
      "constant": false,
      "inputs": [
        {
          "name": "ledger",
          "type": "InvestorLedger.Ledger storage"
        },
        {
          "name": "caller",
          "type": "address"
        }
      ],
      "name": "collateralCollectionProcess",
      "outputs": [],
      "payable": false,
      "stateMutability": "nonpayable",
      "type": "function"
    },
    {
      "constant": false,
      "inputs": [
        {
          "name": "ledger",
          "type": "InvestorLedger.Ledger storage"
        }
      ],
      "name": "canceledProcess",
      "outputs": [],
      "payable": false,
      "stateMutability": "nonpayable",
      "type": "function"
    },
    {
      "constant": true,
      "inputs": [
        {
          "name": "ledger",
          "type": "InvestorLedger.Ledger storage"
        }
      ],
      "name": "totalAmountInvested",
      "outputs": [
        {
          "name": "amount",
          "type": "uint256"
        }
      ],
      "payable": false,
      "stateMutability": "view",
      "type": "function"
    },
    {
      "constant": true,
      "inputs": [
        {
          "name": "ledger",
          "type": "InvestorLedger.Ledger storage"
        }
      ],
      "name": "paybackRequired",
      "outputs": [
        {
          "name": "amount",
          "type": "uint256"
        }
      ],
      "payable": false,
      "stateMutability": "view",
      "type": "function"
    },
    {
      "constant": false,
      "inputs": [
        {
          "name": "ledger",
          "type": "InvestorLedger.Ledger storage"
        },
        {
          "name": "caller",
          "type": "address"
        }
      ],
      "name": "fundraisingProcess",
      "outputs": [],
      "payable": false,
      "stateMutability": "nonpayable",
      "type": "function"
    },
    {
      "constant": false,
      "inputs": [
        {
          "name": "ledger",
          "type": "InvestorLedger.Ledger storage"
        }
      ],
      "name": "paidbackProcess",
      "outputs": [],
      "payable": false,
      "stateMutability": "nonpayable",
      "type": "function"
    },
    {
      "constant": false,
      "inputs": [
        {
          "name": "ledger",
          "type": "InvestorLedger.Ledger storage"
        },
        {
          "name": "caller",
          "type": "address"
        }
      ],
      "name": "paybackProcess",
      "outputs": [],
      "payable": false,
      "stateMutability": "nonpayable",
      "type": "function"
    },
    {
      "anonymous": false,
      "inputs": [
        {
          "indexed": true,
          "name": "loan",
          "type": "address"
        },
        {
          "indexed": false,
          "name": "from",
          "type": "uint8"
        },
        {
          "indexed": false,
          "name": "to",
          "type": "uint8"
        }
      ],
      "name": "StateTransistion",
      "type": "event"
    },
    {
      "anonymous": false,
      "inputs": [
        {
          "indexed": true,
          "name": "loan",
          "type": "address"
        },
        {
          "indexed": true,
          "name": "investor",
          "type": "address"
        }
      ],
      "name": "NewInvestor",
      "type": "event"
    },
    {
      "anonymous": false,
      "inputs": [
        {
          "indexed": true,
          "name": "loan",
          "type": "address"
        },
        {
          "indexed": true,
          "name": "investor",
          "type": "address"
        },
        {
          "indexed": false,
          "name": "amount",
          "type": "uint256"
        }
      ],
      "name": "InvestmentSent",
      "type": "event"
    }
  ],
  "bytecode": "0x6060604052341561000f57600080fd5b611d678061001e6000396000f300606060405260043610610099576000357c0100000000000000000000000000000000000000000000000000000000900463ffffffff168063365860be1461009e57806343a2e1b0146100b65780636a64cb021461010157806384b9cf771461013857806388b8da9c146101505780638cf388d81461017c578063dc93f39a146101a8578063debebcd2146101df578063e491b058146101f7575b600080fd5b6100b4600480803590602001909190505061022e565b005b6100eb600480803590602001909190803573ffffffffffffffffffffffffffffffffffffffff1690602001909190505061043a565b6040518082815260200191505060405180910390f35b610136600480803590602001909190803573ffffffffffffffffffffffffffffffffffffffff16906020019091905050610489565b005b61014e60048080359060200190919050506108bf565b005b6101666004808035906020019091905050610bc4565b6040518082815260200191505060405180910390f35b6101926004808035906020019091905050610c7f565b6040518082815260200191505060405180910390f35b6101dd600480803590602001909190803573ffffffffffffffffffffffffffffffffffffffff16906020019091905050610c9c565b005b6101f56004808035906020019091905050611333565b005b61022c600480803590602001909190803573ffffffffffffffffffffffffffffffffffffffff16906020019091905050611643565b005b60008060008060006004600681111561024357fe5b8660080160109054906101000a900460ff16600681111561026057fe5b14151561026c57600080fd5b6102778660066119ba565b61028086610bc4565b9450600093505b85600601805490508410156104325785600601848154811015156102a757fe5b906000526020600020900160009054906101000a900473ffffffffffffffffffffffffffffffffffffffff1692508560070160008473ffffffffffffffffffffffffffffffffffffffff1673ffffffffffffffffffffffffffffffffffffffff168152602001908152602001600020600001549150848287600501540281151561032d57fe5b0490508560000160009054906101000a900473ffffffffffffffffffffffffffffffffffffffff1673ffffffffffffffffffffffffffffffffffffffff1663a9059cbb84836000604051602001526040518363ffffffff167c0100000000000000000000000000000000000000000000000000000000028152600401808373ffffffffffffffffffffffffffffffffffffffff1673ffffffffffffffffffffffffffffffffffffffff16815260200182815260200192505050602060405180830381600087803b15156103ff57600080fd5b6102c65a03f1151561041057600080fd5b50505060405180519050151561042557600080fd5b8380600101945050610287565b505050505050565b60008260070160008373ffffffffffffffffffffffffffffffffffffffff1673ffffffffffffffffffffffffffffffffffffffff16815260200190815260200160002060000154905092915050565b6000806000600681111561049957fe5b8460080160109054906101000a900460ff1660068111156104b657fe5b1415156104c257600080fd5b8360020160009054906101000a900473ffffffffffffffffffffffffffffffffffffffff1673ffffffffffffffffffffffffffffffffffffffff168373ffffffffffffffffffffffffffffffffffffffff1614156108b9578360000160009054906101000a900473ffffffffffffffffffffffffffffffffffffffff1673ffffffffffffffffffffffffffffffffffffffff1663dd62ed3e8560020160009054906101000a900473ffffffffffffffffffffffffffffffffffffffff16306000604051602001526040518363ffffffff167c0100000000000000000000000000000000000000000000000000000000028152600401808373ffffffffffffffffffffffffffffffffffffffff1673ffffffffffffffffffffffffffffffffffffffff1681526020018273ffffffffffffffffffffffffffffffffffffffff1673ffffffffffffffffffffffffffffffffffffffff16815260200192505050602060405180830381600087803b151561063957600080fd5b6102c65a03f1151561064a57600080fd5b50505060405180519050915060008211156108b85742905081846005016000828254019250508190555061067f8460016119ba565b8360040160029054906101000a900467ffffffffffffffff1681018460080160006101000a81548167ffffffffffffffff021916908367ffffffffffffffff1602179055508067ffffffffffffffff168460080160009054906101000a900467ffffffffffffffff1667ffffffffffffffff161115156106fe57600080fd5b8360080160009054906101000a900467ffffffffffffffff1667ffffffffffffffff1684600401600a9054906101000a900467ffffffffffffffff168560080160009054906101000a900467ffffffffffffffff160167ffffffffffffffff1611151561076a57600080fd5b8360000160009054906101000a900473ffffffffffffffffffffffffffffffffffffffff1673ffffffffffffffffffffffffffffffffffffffff166323b872dd8560020160009054906101000a900473ffffffffffffffffffffffffffffffffffffffff1630856000604051602001526040518463ffffffff167c0100000000000000000000000000000000000000000000000000000000028152600401808473ffffffffffffffffffffffffffffffffffffffff1673ffffffffffffffffffffffffffffffffffffffff1681526020018373ffffffffffffffffffffffffffffffffffffffff1673ffffffffffffffffffffffffffffffffffffffff1681526020018281526020019350505050602060405180830381600087803b151561089157600080fd5b6102c65a03f115156108a257600080fd5b5050506040518051905015156108b757600080fd5b5b5b50505050565b6000806000600560068111156108d157fe5b8460080160109054906101000a900460ff1660068111156108ee57fe5b1415156108fa57600080fd5b6109058460066119ba565b8360000160009054906101000a900473ffffffffffffffffffffffffffffffffffffffff1673ffffffffffffffffffffffffffffffffffffffff1663a9059cbb8560020160009054906101000a900473ffffffffffffffffffffffffffffffffffffffff1686600501546000604051602001526040518363ffffffff167c0100000000000000000000000000000000000000000000000000000000028152600401808373ffffffffffffffffffffffffffffffffffffffff1673ffffffffffffffffffffffffffffffffffffffff16815260200182815260200192505050602060405180830381600087803b15156109fc57600080fd5b6102c65a03f11515610a0d57600080fd5b505050604051805190501515610a2257600080fd5b600092505b8360060180549050831015610bbe578360060183815481101515610a4757fe5b906000526020600020900160009054906101000a900473ffffffffffffffffffffffffffffffffffffffff1691508360070160008373ffffffffffffffffffffffffffffffffffffffff1673ffffffffffffffffffffffffffffffffffffffff1681526020019081526020016000206000015490508360010160009054906101000a900473ffffffffffffffffffffffffffffffffffffffff1673ffffffffffffffffffffffffffffffffffffffff1663a9059cbb83836000604051602001526040518363ffffffff167c0100000000000000000000000000000000000000000000000000000000028152600401808373ffffffffffffffffffffffffffffffffffffffff1673ffffffffffffffffffffffffffffffffffffffff16815260200182815260200192505050602060405180830381600087803b1515610b8b57600080fd5b6102c65a03f11515610b9c57600080fd5b505050604051805190501515610bb157600080fd5b8280600101935050610a27565b50505050565b6000806000809250600091505b8360060180549050821015610c75578360070160008560060184815481101515610bf757fe5b906000526020600020900160009054906101000a900473ffffffffffffffffffffffffffffffffffffffff1673ffffffffffffffffffffffffffffffffffffffff1673ffffffffffffffffffffffffffffffffffffffff16815260200190815260200160002090508060000154830192508180600101925050610bd1565b8292505050919050565b6000610c8f828360030154611a09565b8260030154019050919050565b600080600080600060016006811115610cb157fe5b8760080160109054906101000a900460ff166006811115610cce57fe5b141515610cda57600080fd5b8660080160009054906101000a900467ffffffffffffffff1667ffffffffffffffff16421115610d1457610d0f8760056119ba565b61132a565b610d1d87610bc4565b876003015403945085935073__Math__________________________________637ae2b5c78860010160009054906101000a900473ffffffffffffffffffffffffffffffffffffffff1673ffffffffffffffffffffffffffffffffffffffff1663dd62ed3e87306000604051602001526040518363ffffffff167c0100000000000000000000000000000000000000000000000000000000028152600401808373ffffffffffffffffffffffffffffffffffffffff1673ffffffffffffffffffffffffffffffffffffffff1681526020018273ffffffffffffffffffffffffffffffffffffffff1673ffffffffffffffffffffffffffffffffffffffff16815260200192505050602060405180830381600087803b1515610e3d57600080fd5b6102c65a03f11515610e4e57600080fd5b50505060405180519050876000604051602001526040518363ffffffff167c0100000000000000000000000000000000000000000000000000000000028152600401808381526020018281526020019250505060206040518083038186803b1515610eb857600080fd5b6102c65a03f41515610ec957600080fd5b5050506040518051905092506000831115611329574291508660070160008573ffffffffffffffffffffffffffffffffffffffff1673ffffffffffffffffffffffffffffffffffffffff1681526020019081526020016000209050600081600001541415610ff1578373ffffffffffffffffffffffffffffffffffffffff163073ffffffffffffffffffffffffffffffffffffffff167f089503121e3a176aa77097b457324d86df56c14f7c42b15e9455f4a2dd13ea0060405160405180910390a3866006018054806001018281610fa19190611cea565b9160005260206000209001600086909190916101000a81548173ffffffffffffffffffffffffffffffffffffffff021916908373ffffffffffffffffffffffffffffffffffffffff160217905550505b80600001548382600001540111151561100957600080fd5b828160000160008282540192505081905550848314156110745761102e8760026119ba565b86600401600a9054906101000a900467ffffffffffffffff1682018760080160086101000a81548167ffffffffffffffff021916908367ffffffffffffffff1602179055505b8373ffffffffffffffffffffffffffffffffffffffff163073ffffffffffffffffffffffffffffffffffffffff167f417aeb1e4d67843ed08689d9d481faf9cd9fd76750fafa6bb047db4a709526b6856040518082815260200191505060405180910390a38660010160009054906101000a900473ffffffffffffffffffffffffffffffffffffffff1673ffffffffffffffffffffffffffffffffffffffff166323b872dd8530866000604051602001526040518463ffffffff167c0100000000000000000000000000000000000000000000000000000000028152600401808473ffffffffffffffffffffffffffffffffffffffff1673ffffffffffffffffffffffffffffffffffffffff1681526020018373ffffffffffffffffffffffffffffffffffffffff1673ffffffffffffffffffffffffffffffffffffffff1681526020018281526020019350505050602060405180830381600087803b15156111dc57600080fd5b6102c65a03f115156111ed57600080fd5b50505060405180519050151561120257600080fd5b84831415611328578660010160009054906101000a900473ffffffffffffffffffffffffffffffffffffffff1673ffffffffffffffffffffffffffffffffffffffff1663a9059cbb8860020160009054906101000a900473ffffffffffffffffffffffffffffffffffffffff1689600301546000604051602001526040518363ffffffff167c0100000000000000000000000000000000000000000000000000000000028152600401808373ffffffffffffffffffffffffffffffffffffffff1673ffffffffffffffffffffffffffffffffffffffff16815260200182815260200192505050602060405180830381600087803b151561130157600080fd5b6102c65a03f1151561131257600080fd5b50505060405180519050151561132757600080fd5b5b5b5b50505050505050565b60008060006003600681111561134557fe5b8460080160109054906101000a900460ff16600681111561136257fe5b14151561136e57600080fd5b6113798460066119ba565b8360000160009054906101000a900473ffffffffffffffffffffffffffffffffffffffff1673ffffffffffffffffffffffffffffffffffffffff1663a9059cbb8560020160009054906101000a900473ffffffffffffffffffffffffffffffffffffffff1686600501546000604051602001526040518363ffffffff167c0100000000000000000000000000000000000000000000000000000000028152600401808373ffffffffffffffffffffffffffffffffffffffff1673ffffffffffffffffffffffffffffffffffffffff16815260200182815260200192505050602060405180830381600087803b151561147057600080fd5b6102c65a03f1151561148157600080fd5b50505060405180519050151561149657600080fd5b600092505b836006018054905083101561163d5783600601838154811015156114bb57fe5b906000526020600020900160009054906101000a900473ffffffffffffffffffffffffffffffffffffffff1691508360070160008373ffffffffffffffffffffffffffffffffffffffff1673ffffffffffffffffffffffffffffffffffffffff1681526020019081526020016000206000015490508360010160009054906101000a900473ffffffffffffffffffffffffffffffffffffffff1673ffffffffffffffffffffffffffffffffffffffff1663a9059cbb8361157b8785611a09565b84016000604051602001526040518363ffffffff167c0100000000000000000000000000000000000000000000000000000000028152600401808373ffffffffffffffffffffffffffffffffffffffff1673ffffffffffffffffffffffffffffffffffffffff16815260200182815260200192505050602060405180830381600087803b151561160a57600080fd5b6102c65a03f1151561161b57600080fd5b50505060405180519050151561163057600080fd5b828060010193505061149b565b50505050565b60006002600681111561165257fe5b8360080160109054906101000a900460ff16600681111561166f57fe5b14151561167b57600080fd5b8260080160089054906101000a900467ffffffffffffffff1667ffffffffffffffff164211156116b5576116b08360046119ba565b6119b5565b8260020160009054906101000a900473ffffffffffffffffffffffffffffffffffffffff1673ffffffffffffffffffffffffffffffffffffffff168273ffffffffffffffffffffffffffffffffffffffff1614156119b45761171683610c7f565b9050808360010160009054906101000a900473ffffffffffffffffffffffffffffffffffffffff1673ffffffffffffffffffffffffffffffffffffffff1663dd62ed3e8560020160009054906101000a900473ffffffffffffffffffffffffffffffffffffffff16306000604051602001526040518363ffffffff167c0100000000000000000000000000000000000000000000000000000000028152600401808373ffffffffffffffffffffffffffffffffffffffff1673ffffffffffffffffffffffffffffffffffffffff1681526020018273ffffffffffffffffffffffffffffffffffffffff1673ffffffffffffffffffffffffffffffffffffffff16815260200192505050602060405180830381600087803b151561183857600080fd5b6102c65a03f1151561184957600080fd5b505050604051805190501015156119b3576118658360036119ba565b8260010160009054906101000a900473ffffffffffffffffffffffffffffffffffffffff1673ffffffffffffffffffffffffffffffffffffffff166323b872dd8460020160009054906101000a900473ffffffffffffffffffffffffffffffffffffffff1630846000604051602001526040518463ffffffff167c0100000000000000000000000000000000000000000000000000000000028152600401808473ffffffffffffffffffffffffffffffffffffffff1673ffffffffffffffffffffffffffffffffffffffff1681526020018373ffffffffffffffffffffffffffffffffffffffff1673ffffffffffffffffffffffffffffffffffffffff1681526020018281526020019350505050602060405180830381600087803b151561198c57600080fd5b6102c65a03f1151561199d57600080fd5b5050506040518051905015156119b257600080fd5b5b5b5b505050565b6119d58260080160109054906101000a900460ff1682611a39565b15156119e057600080fd5b808260080160106101000a81548160ff02191690836006811115611a0057fe5b02179055505050565b60006103e88360040160009054906101000a900461ffff1661ffff168302811515611a3057fe5b04905092915050565b6000806006811115611a4757fe5b836006811115611a5357fe5b1415611a8a5760016006811115611a6657fe5b826006811115611a7257fe5b1415611a815760019050611ce4565b60009050611ce4565b60016006811115611a9757fe5b836006811115611aa357fe5b1415611b025760026006811115611ab657fe5b826006811115611ac257fe5b1415611ad15760019050611ce4565b60056006811115611ade57fe5b826006811115611aea57fe5b1415611af95760019050611ce4565b60009050611ce4565b60026006811115611b0f57fe5b836006811115611b1b57fe5b1415611b7a5760036006811115611b2e57fe5b826006811115611b3a57fe5b1415611b495760019050611ce4565b60046006811115611b5657fe5b826006811115611b6257fe5b1415611b715760019050611ce4565b60009050611ce4565b60036006811115611b8757fe5b836006811115611b9357fe5b1415611bf157600680811115611ba557fe5b826006811115611bb157fe5b1415611bc05760019050611ce4565b60036006811115611bcd57fe5b826006811115611bd957fe5b1415611be85760019050611ce4565b60009050611ce4565b60046006811115611bfe57fe5b836006811115611c0a57fe5b1415611c6857600680811115611c1c57fe5b826006811115611c2857fe5b1415611c375760019050611ce4565b60046006811115611c4457fe5b826006811115611c5057fe5b1415611c5f5760019050611ce4565b60009050611ce4565b60056006811115611c7557fe5b836006811115611c8157fe5b1415611cdf57600680811115611c9357fe5b826006811115611c9f57fe5b1415611cae5760019050611ce4565b60056006811115611cbb57fe5b826006811115611cc757fe5b1415611cd65760019050611ce4565b60009050611ce4565b600090505b92915050565b815481835581811511611d1157818360005260206000209182019101611d109190611d16565b5b505050565b611d3891905b80821115611d34576000816000905550600101611d1c565b5090565b905600a165627a7a72305820fc4c12c1919a86f5660bd955bb91d28698d705f6c7ea7fa348c05b4408c892840029",
  "source": "pragma solidity ^0.4.17;\n\nimport \"../tokens/IToken.sol\";\nimport \"../common/Math.sol\";\n\nlibrary InvestorLedger {\n    event StateTransistion(\n        address indexed loan,\n        State from,\n        State to\n    );\n    event NewInvestor(\n        address indexed loan,\n        address indexed investor\n    );\n\n    event InvestmentSent(\n        address indexed loan,\n        address indexed investor,\n        uint256 amount\n    );\n\n    uint constant PERMIL = 1000;\n\n    enum State {\n        // Loan is waiting for collateral to be received from borrower.\n        CollateralCollection,\n        // Loan is waiting to be funded by investors.\n        Fundraising,\n        // Loan is waiting for withdrawal from borrower.\n        Payback,\n        // Loan has been paid back succesfully and is waiting for investors\n        // to withdraw their investments and the borrower to withdraw their\n        // collateral.\n        Paidback,\n        // Loan has defaulted before it has been fully paid back, and is\n        // waiting for investors to withdraw their collateral.\n        Defaulted,\n        // Loan has been cancelled by borrower or has not gathered funds in\n        // time, and is waiting for investors to withdraw their investments\n        // and the borrower to withdraw their collateral.\n        Canceled,\n        // Loan has no funds left and is fully finished.\n        Finished\n    }\n\n    // legalTransition is a safeguard function to be used in functions that\n    // modify the Ledger state. It is not checked when the state does not\n    // change (so all A -> A transitions are implicitly allowed).\n    function legalTransition(State from, State to) pure private returns (bool legal) {\n        // No switch statements in Solidity. We'll use a bunch of if-else\n        // blocks, as the alternative is handcrafted assembly.\n        if (from == State.CollateralCollection) {\n            // Loan has collected collateral.\n            if (to == State.Fundraising) {\n                return true;\n            }\n            return false;\n        }\n        if (from == State.Fundraising) {\n            // Loan has raised funds succesfully.\n            if (to == State.Payback) {\n                return true;\n            }\n            // Loan has not raised funds succesfully - let borrower and\n            // investors (if any) collect their tokens back.\n            if (to == State.Canceled) {\n                return true;\n            }\n            return false;\n        }\n        if (from == State.Payback) {\n            // Loan has been paid back successfully.\n            if (to == State.Paidback) {\n                return true;\n            }\n            // Loan has defaulted.\n            if (to == State.Defaulted) {\n                return true;\n            }\n            return false;\n        }\n        if (from == State.Paidback) {\n            // Loan has had all collateral and investments withdrawn.\n            if (to == State.Finished) {\n                return true;\n            }\n            // Loan has still tokens left to withdraw.\n            if (to == State.Paidback) {\n                return true;\n            }\n            return false;\n        }\n        if (from == State.Defaulted) {\n            // Loan has had all collateral and investments withdrawn.\n            if (to == State.Finished) {\n                return true;\n            }\n            // Loan has still tokens left to withdraw.\n            if (to == State.Defaulted) {\n                return true;\n            }\n            return false;\n        }\n        if (from == State.Canceled) {\n            // Loan has had all collateral and investments withdrawn.\n            if (to == State.Finished) {\n                return true;\n            }\n            // Loan has still tokens left to withdraw.\n            if (to == State.Canceled) {\n                    return true;\n            }\n            return false;\n        }\n\n        return false;\n    }\n\n\n    // newState applies a state transition to the ledger FSM and ensures it is\n    // legal.\n    function newState(Ledger storage ledger, State next) private {\n        require(legalTransition(ledger.state, next));\n        ledger.state = next;\n    }\n\n    // Ledger is the main state object of an ongoing loan ledger.\n    struct Ledger {\n        /// Constant ledger parameters.\n        // Token used as collateral.\n        IToken collateralToken;\n        // Main loan Token.\n        IToken loanToken;\n        // Receiver of the loan.\n        address borrower;\n        // How much loanToken does borrower want to borrow.\n        uint256 amountWanted;\n        // Interst of loan in permils.\n        uint16  interestPermil;\n        // Delta (in seconds) between collateral collected and fundraising ending.\n        uint64 fundraisingDelta;\n        // Delta (in seconds)  between fundraising ending and payback needed.\n        uint64 paybackDelta;\n\n        /// Mutable ledger state.\n        // Total collateralToken gathered for loan. It increases from 0 to\n        // the loan collateral when its' gathered.\n        uint256 receivedCollateral;\n        // List of investor addresses to key investorData.\n        address[] investors;\n        // Data about each investor. It gets upserted any time a new investment\n        // is added.\n        mapping(address => InvestorData) investorData;\n        // Absolute timestamp of fundraising deadline, in block time (seconds).\n        // Calculated when we switch to the fundraising state.\n        uint64 fundraisingDeadline;\n        // Absolute timestamp of payback deadline, in block time (seconds).\n        // Calculated when we switch to the payback state.\n        uint64 paybackDeadline;\n\n        /// Main ledger FSM state.\n        State state;\n    }\n\n    struct InvestorData {\n        uint256 amountInvested;\n    }\n\n    /// View functions for the Ledger structure that calculate denormalized\n    /// data based on investment status.\n    \n    // totalAmountInvested() returns how much was invested into this loan in\n    // total by all investors (not counting interest rate).\n    function totalAmountInvested(Ledger storage ledger) view public returns (uint256 amount) {\n        amount = 0;\n        for (uint i = 0; i < ledger.investors.length; i++ ) {\n            var investor = ledger.investorData[ledger.investors[i]];\n            amount += investor.amountInvested;\n        }\n        return amount;\n    }\n\n    // amountInvested(address) returns how much was invested into this loan by\n    // a particular address.\n    function amountInvested(Ledger storage ledger, address investor) view public returns (uint256 amount) {\n        return ledger.investorData[investor].amountInvested;\n    }\n\n    // paybackRequired returns how much payback is/will be required for this\n    // loan (loan amount + interest).\n    function paybackRequired(Ledger storage ledger) view public returns (uint256 amount) {\n        return ledger.amountWanted + calculateInterest(ledger, ledger.amountWanted);\n    }\n\n    // calculateInterest is a convenience function to calculate the interest\n    // of this loan on a given value.\n    function calculateInterest(Ledger storage ledger, uint256 investment) view private returns (uint256 interest) {\n        return investment * ledger.interestPermil / PERMIL;\n    }\n\n    // openAccount is a static constructor of the Ledger state object.\n    // @param collateralToken: Token to be used as collateral during the loan.\n    // @param loanToken: Token to be loaned.\n    // @param borrower: Receiver of the loan.\n    // @param totalLoanNeded: How much loanToken does borrower want to borrow.\n    // @param interestPermil: Loan interest, in permil (1/10th of a percent).\n    function openAccount(\n        IToken collateralToken,\n        IToken loanToken,\n        address borrower,\n        uint256 amountWanted,\n        uint16 interestPermil,\n        uint64 fundraisingDelta,\n        uint64 paybackDelta) internal view returns (Ledger account)\n    {\n        // Argument validation.\n        require(fundraisingDelta > 0);\n        require(paybackDelta > 0);\n        require(amountWanted > 0);\n        require(block.timestamp + fundraisingDelta + paybackDelta > block.timestamp);\n        require(block.timestamp + fundraisingDelta + paybackDelta > block.timestamp + fundraisingDelta);\n\n        // Fill new state object.\n        account.collateralToken = collateralToken;\n        account.loanToken = loanToken;\n        account.amountWanted = amountWanted;\n        account.interestPermil = interestPermil;\n        account.borrower = borrower;\n        account.state = State.CollateralCollection;\n        account.fundraisingDelta = fundraisingDelta;\n        account.paybackDelta = paybackDelta;\n        account.fundraisingDeadline = 0;\n        account.paybackDeadline = 0;\n\n        // And return it.\n        return account;\n    }\n\n    // collateralCollectionProcess performs processing within the\n    // CollateralCollection state of the loan FSM and possibly advances to its'\n    // next state. It can:\n    //  - mark the loan as Finished if the fundraising deadline is exceeded\n    //    (no tokens have been transfered to the contract, so we can close it\n    //    right away)\n    //  - collect the collateral from the borrower and mark the loan as\n    //    Fundraising (the loan now has a collateral it needs to send back)\n    function collateralCollectionProcess(Ledger storage ledger, address caller) public {\n        require(ledger.state == State.CollateralCollection);\n        // Only allow borrower to perform the state transition, otherwise we\n        // could permit races where a malicious actor performs the state\n        // transition when the borrower is not ready to do so.\n        if (caller == ledger.borrower) {\n            var allowance = ledger.collateralToken.allowance(ledger.borrower, this);\n            if (allowance > 0) {\n                uint64 timestamp = uint64(block.timestamp);\n                ledger.receivedCollateral += allowance;\n                newState(ledger, State.Fundraising);\n                ledger.fundraisingDeadline = timestamp + ledger.fundraisingDelta;\n                require(ledger.fundraisingDeadline > timestamp);\n                require(ledger.fundraisingDeadline + ledger.paybackDelta > ledger.fundraisingDeadline);\n\n                require(\n                    ledger.collateralToken.transferFrom(\n                        ledger.borrower,\n                        this,\n                        allowance\n                    )\n                );\n            }\n        }\n    }\n\n    function fundraisingProcess(Ledger storage ledger, address caller) public {\n        require(ledger.state == State.Fundraising);\n\n        // Have we ran out of time?\n        if (block.timestamp > ledger.fundraisingDeadline) {\n            newState(ledger, State.Canceled);\n        } else {\n            uint256 amountNeeded = ledger.amountWanted - totalAmountInvested(ledger);\n            address investor = caller;\n            // Do not invest more than required to fullfill amountWanted.\n            var investmentAmount = Math.min(\n                ledger.loanToken.allowance(investor, this),\n                amountNeeded\n            );\n            if (investmentAmount > 0) {\n                uint64 timestamp = uint64(block.timestamp);\n                var investorData = ledger.investorData[investor];\n                if (investorData.amountInvested == 0) {\n                    NewInvestor(this, investor);\n                    ledger.investors.push(investor);\n                }\n                // Note down the investment.\n                require(investorData.amountInvested + investmentAmount > investorData.amountInvested);\n                investorData.amountInvested += investmentAmount;\n                // Did we just gather all investments required?\n                if (investmentAmount == amountNeeded) {\n                    newState(ledger, State.Payback);\n                    ledger.paybackDeadline = timestamp + ledger.paybackDelta;\n                }\n                // Transfer the investment to the receiving contract.\n                InvestmentSent(this, investor, investmentAmount);\n                require(\n                    ledger.loanToken.transferFrom(\n                        investor,\n                        this,\n                        investmentAmount\n                    )\n                );\n                // If this was the last required invesment, transfer all the\n                // invested money to the borrower.\n                if (investmentAmount == amountNeeded) {\n                    require(\n                        ledger.loanToken.transfer(\n                            ledger.borrower,\n                            ledger.amountWanted\n                        )\n                    );\n                }\n            }\n        }\n    }\n\n    function paybackProcess(Ledger storage ledger, address caller) public {\n        require(ledger.state == State.Payback);\n\n        // Have we ran out of time?\n        if (block.timestamp > ledger.paybackDeadline) {\n            newState(ledger, State.Defaulted);\n        } else if (caller == ledger.borrower)  {\n            // Gather payback, if possible.\n            uint256 payback = paybackRequired(ledger);\n            if (ledger.loanToken.allowance(ledger.borrower, this) >= payback) {\n                newState(ledger, State.Paidback);\n                require(\n                    ledger.loanToken.transferFrom(\n                        ledger.borrower,\n                        this,\n                        payback\n                    )\n                );\n            }\n        }\n    }\n\n    function paidbackProcess(Ledger storage ledger) public {\n        require(ledger.state == State.Paidback);\n        newState(ledger, State.Finished);\n\n        // Send the collateral back to the borrower.\n        require(\n            ledger.collateralToken.transfer(\n                ledger.borrower,\n                ledger.receivedCollateral\n            )\n        );\n        // Send the investments (with interest) back to the investors.\n        for (uint i = 0; i < ledger.investors.length; i++ ) {\n            address investor = ledger.investors[i];\n            uint256 invested = ledger.investorData[investor].amountInvested;\n            require(\n                ledger.loanToken.transfer(\n                    investor,\n                    invested + calculateInterest(ledger, invested)\n                )\n            );\n        }\n    }\n\n    function defaultedProcess(Ledger storage ledger) public {\n        require(ledger.state == State.Defaulted);\n        newState(ledger, State.Finished);\n\n        // Send the collateral, prorated over the investment amount by each\n        // investor.\n        uint256 totalInvested = totalAmountInvested(ledger);\n        for (uint i = 0; i < ledger.investors.length; i++) {\n            address investor = ledger.investors[i];\n            uint256 invested = ledger.investorData[investor].amountInvested;\n            uint256 collateralBack = (ledger.receivedCollateral * invested) / totalInvested;\n            require(\n                ledger.collateralToken.transfer(\n                    investor,\n                    collateralBack\n                )\n            );\n        }\n    }\n\n    function canceledProcess(Ledger storage ledger) public {\n        require(ledger.state == State.Canceled);\n        newState(ledger, State.Finished);\n\n        // Send the collateral back to the borrower.\n        require(\n            ledger.collateralToken.transfer(\n                ledger.borrower,\n                ledger.receivedCollateral\n            )\n        );\n        // Send the investments back to the investors.\n        for (uint i = 0; i < ledger.investors.length; i++ ) {\n            address investor = ledger.investors[i];\n            uint256 invested = ledger.investorData[investor].amountInvested;\n            require(\n                ledger.loanToken.transfer(\n                    investor,\n                    invested\n                )\n            );\n        }\n    }\n}\n",
  "sourcePath": "/home/q3k/Work/getline/getline/dapp/contracts/loans/InvestorLedger.sol",
  "compiler": {
    "name": "solc",
    "version": "0.4.18+commit.9cf6e910.Emscripten.clang"
  },
  "schemaVersion": "1.0.1",
  "updatedAt": "2018-01-06T12:58:22.831Z"
}