{
  "contractName": "InvestorLedger",
  "abi": [
    {
      "constant": false,
      "inputs": [
        {
          "name": "account",
          "type": "InvestorLedger.Ledger storage"
        }
      ],
      "name": "markCancelled",
      "outputs": [],
      "payable": false,
      "stateMutability": "nonpayable",
      "type": "function"
    },
    {
      "constant": false,
      "inputs": [
        {
          "name": "account",
          "type": "InvestorLedger.Ledger storage"
        },
        {
          "name": "trustee",
          "type": "address"
        }
      ],
      "name": "gatherInvestment",
      "outputs": [],
      "payable": false,
      "stateMutability": "nonpayable",
      "type": "function"
    },
    {
      "constant": false,
      "inputs": [
        {
          "name": "account",
          "type": "InvestorLedger.Ledger storage"
        }
      ],
      "name": "collateralToLiege",
      "outputs": [],
      "payable": false,
      "stateMutability": "nonpayable",
      "type": "function"
    },
    {
      "constant": false,
      "inputs": [
        {
          "name": "account",
          "type": "InvestorLedger.Ledger storage"
        },
        {
          "name": "trustee",
          "type": "address"
        }
      ],
      "name": "withdrawInvestment",
      "outputs": [],
      "payable": false,
      "stateMutability": "nonpayable",
      "type": "function"
    },
    {
      "constant": false,
      "inputs": [
        {
          "name": "account",
          "type": "InvestorLedger.Ledger storage"
        }
      ],
      "name": "markDefaulted",
      "outputs": [],
      "payable": false,
      "stateMutability": "nonpayable",
      "type": "function"
    },
    {
      "constant": false,
      "inputs": [
        {
          "name": "account",
          "type": "InvestorLedger.Ledger storage"
        }
      ],
      "name": "releaseLoanToBorrower",
      "outputs": [],
      "payable": false,
      "stateMutability": "nonpayable",
      "type": "function"
    },
    {
      "constant": true,
      "inputs": [
        {
          "name": "account",
          "type": "InvestorLedger.Ledger storage"
        }
      ],
      "name": "isFullyFunded",
      "outputs": [
        {
          "name": "fullyFunded",
          "type": "bool"
        }
      ],
      "payable": false,
      "stateMutability": "view",
      "type": "function"
    },
    {
      "constant": false,
      "inputs": [
        {
          "name": "account",
          "type": "InvestorLedger.Ledger storage"
        }
      ],
      "name": "gatherCollateral",
      "outputs": [],
      "payable": false,
      "stateMutability": "nonpayable",
      "type": "function"
    },
    {
      "constant": false,
      "inputs": [
        {
          "name": "account",
          "type": "InvestorLedger.Ledger storage"
        }
      ],
      "name": "gatherPayback",
      "outputs": [],
      "payable": false,
      "stateMutability": "nonpayable",
      "type": "function"
    }
  ],
  "bytecode": "0x6060604052341561000f57600080fd5b6110b58061001e6000396000f300606060405260043610610099576000357c0100000000000000000000000000000000000000000000000000000000900463ffffffff1680630905979a1461009e5780630d7e4c27146100b65780631f93dba6146100ed57806353942b0214610105578063578bdfa81461013c57806396d4a538146101545780639b197bc41461016c578063aa586fea1461019c578063d47a243a146101b4575b600080fd5b6100b460048080359060200190919050506101cc565b005b6100eb600480803590602001909190803573ffffffffffffffffffffffffffffffffffffffff1690602001909190505061022e565b005b61010360048080359060200190919050506104c5565b005b61013a600480803590602001909190803573ffffffffffffffffffffffffffffffffffffffff1690602001909190505061060c565b005b61015260048080359060200190919050506108ff565b005b61016a6004808035906020019091905050610961565b005b6101826004808035906020019091905050610ac2565b604051808215151515815260200191505060405180910390f35b6101b26004808035906020019091905050610ad6565b005b6101ca6004808035906020019091905050610d77565b005b80600b0160009054906101000a900460ff161580156101fa575080600b0160019054906101000a900460ff16155b151561020557600080fd5b600181600b0160006101000a81548160ff02191690831515021790555061022b816104c5565b50565b60008060008073__Math__________________________________637ae2b5c78760010160009054906101000a900473ffffffffffffffffffffffffffffffffffffffff1673ffffffffffffffffffffffffffffffffffffffff1663dd62ed3e88306000604051602001526040518363ffffffff167c0100000000000000000000000000000000000000000000000000000000028152600401808373ffffffffffffffffffffffffffffffffffffffff1673ffffffffffffffffffffffffffffffffffffffff1681526020018273ffffffffffffffffffffffffffffffffffffffff1673ffffffffffffffffffffffffffffffffffffffff16815260200192505050602060405180830381600087803b151561034957600080fd5b6102c65a03f1151561035a57600080fd5b5050506040518051905088600801548960040154036000604051602001526040518363ffffffff167c0100000000000000000000000000000000000000000000000000000000028152600401808381526020018281526020019250505060206040518083038186803b15156103ce57600080fd5b6102c65a03f415156103df57600080fd5b50505060405180519050935085600401546103e885028115156103fe57fe5b0492506103e88660030154840281151561041457fe5b0491508386600801600082825401925050819055508186600901600082825401925050819055506104458685611059565b86600a01600082825401925050819055508560070160008673ffffffffffffffffffffffffffffffffffffffff1673ffffffffffffffffffffffffffffffffffffffff1681526020019081526020016000209050838160010160008282540192505081905550818160000160008282540192505081905550505050505050565b60008160030154905081600b0160019054906101000a900460ff16156104ef578160090154810390505b8160000160009054906101000a900473ffffffffffffffffffffffffffffffffffffffff1673ffffffffffffffffffffffffffffffffffffffff1663a9059cbb8360020160009054906101000a900473ffffffffffffffffffffffffffffffffffffffff16836000604051602001526040518363ffffffff167c0100000000000000000000000000000000000000000000000000000000028152600401808373ffffffffffffffffffffffffffffffffffffffff1673ffffffffffffffffffffffffffffffffffffffff16815260200182815260200192505050602060405180830381600087803b15156105e257600080fd5b6102c65a03f115156105f357600080fd5b50505060405180519050151561060857600080fd5b5050565b60008060008460070160008573ffffffffffffffffffffffffffffffffffffffff1673ffffffffffffffffffffffffffffffffffffffff168152602001908152602001600020925084600b0160019054906101000a900460ff16156107765782600001549150600083600001819055508460000160009054906101000a900473ffffffffffffffffffffffffffffffffffffffff1673ffffffffffffffffffffffffffffffffffffffff1663a9059cbb85846000604051602001526040518363ffffffff167c0100000000000000000000000000000000000000000000000000000000028152600401808373ffffffffffffffffffffffffffffffffffffffff1673ffffffffffffffffffffffffffffffffffffffff16815260200182815260200192505050602060405180830381600087803b151561074b57600080fd5b6102c65a03f1151561075c57600080fd5b50505060405180519050151561077157600080fd5b6108a4565b8260010154905084600b0160009054906101000a900460ff1615156107a45761079f8582611059565b810190505b600083600101819055508460010160009054906101000a900473ffffffffffffffffffffffffffffffffffffffff1673ffffffffffffffffffffffffffffffffffffffff1663a9059cbb85836000604051602001526040518363ffffffff167c0100000000000000000000000000000000000000000000000000000000028152600401808373ffffffffffffffffffffffffffffffffffffffff1673ffffffffffffffffffffffffffffffffffffffff16815260200182815260200192505050602060405180830381600087803b151561087d57600080fd5b6102c65a03f1151561088e57600080fd5b5050506040518051905015156108a357600080fd5b5b8460070160008573ffffffffffffffffffffffffffffffffffffffff1673ffffffffffffffffffffffffffffffffffffffff168152602001908152602001600020600080820160009055600182016000905550505050505050565b80600b0160009054906101000a900460ff1615801561092d575080600b0160019054906101000a900460ff16155b151561093857600080fd5b600181600b0160016101000a81548160ff02191690831515021790555061095e816104c5565b50565b6000151581600b0160029054906101000a900460ff16151514151561098557600080fd5b600181600b0160026101000a81548160ff0219169083151502179055508060010160009054906101000a900473ffffffffffffffffffffffffffffffffffffffff1673ffffffffffffffffffffffffffffffffffffffff1663a9059cbb8260020160009054906101000a900473ffffffffffffffffffffffffffffffffffffffff1683600801546000604051602001526040518363ffffffff167c0100000000000000000000000000000000000000000000000000000000028152600401808373ffffffffffffffffffffffffffffffffffffffff1673ffffffffffffffffffffffffffffffffffffffff16815260200182815260200192505050602060405180830381600087803b1515610a9957600080fd5b6102c65a03f11515610aaa57600080fd5b505050604051805190501515610abf57600080fd5b50565b600081600401548260080154149050919050565b60008160000160009054906101000a900473ffffffffffffffffffffffffffffffffffffffff1673ffffffffffffffffffffffffffffffffffffffff1663dd62ed3e8360020160009054906101000a900473ffffffffffffffffffffffffffffffffffffffff16306000604051602001526040518363ffffffff167c0100000000000000000000000000000000000000000000000000000000028152600401808373ffffffffffffffffffffffffffffffffffffffff1673ffffffffffffffffffffffffffffffffffffffff1681526020018273ffffffffffffffffffffffffffffffffffffffff1673ffffffffffffffffffffffffffffffffffffffff16815260200192505050602060405180830381600087803b1515610bf757600080fd5b6102c65a03f11515610c0857600080fd5b5050506040518051905090508082600301600082825401925050819055508160000160009054906101000a900473ffffffffffffffffffffffffffffffffffffffff1673ffffffffffffffffffffffffffffffffffffffff166323b872dd8360020160009054906101000a900473ffffffffffffffffffffffffffffffffffffffff1630846000604051602001526040518463ffffffff167c0100000000000000000000000000000000000000000000000000000000028152600401808473ffffffffffffffffffffffffffffffffffffffff1673ffffffffffffffffffffffffffffffffffffffff1681526020018373ffffffffffffffffffffffffffffffffffffffff1673ffffffffffffffffffffffffffffffffffffffff1681526020018281526020019350505050602060405180830381600087803b1515610d4d57600080fd5b6102c65a03f11515610d5e57600080fd5b505050604051805190501515610d7357600080fd5b5050565b80600b0160009054906101000a900460ff16158015610da5575080600b0160019054906101000a900460ff16155b1515610db057600080fd5b80600a01548160010160009054906101000a900473ffffffffffffffffffffffffffffffffffffffff1673ffffffffffffffffffffffffffffffffffffffff1663dd62ed3e8360020160009054906101000a900473ffffffffffffffffffffffffffffffffffffffff16306000604051602001526040518363ffffffff167c0100000000000000000000000000000000000000000000000000000000028152600401808373ffffffffffffffffffffffffffffffffffffffff1673ffffffffffffffffffffffffffffffffffffffff1681526020018273ffffffffffffffffffffffffffffffffffffffff1673ffffffffffffffffffffffffffffffffffffffff16815260200192505050602060405180830381600087803b1515610ed457600080fd5b6102c65a03f11515610ee557600080fd5b5050506040518051905010151515610efc57600080fd5b8060010160009054906101000a900473ffffffffffffffffffffffffffffffffffffffff1673ffffffffffffffffffffffffffffffffffffffff166323b872dd8260020160009054906101000a900473ffffffffffffffffffffffffffffffffffffffff163084600a01546000604051602001526040518463ffffffff167c0100000000000000000000000000000000000000000000000000000000028152600401808473ffffffffffffffffffffffffffffffffffffffff1673ffffffffffffffffffffffffffffffffffffffff1681526020018373ffffffffffffffffffffffffffffffffffffffff1673ffffffffffffffffffffffffffffffffffffffff1681526020018281526020019350505050602060405180830381600087803b151561102757600080fd5b6102c65a03f1151561103857600080fd5b50505060405180519050151561104d57600080fd5b611056816104c5565b50565b60006103e88360050160009054906101000a900461ffff1661ffff16830281151561108057fe5b049050929150505600a165627a7a7230582048cfd0de97cab751a38f11630c618aafd6860f01637724c5a0673595fe6598040029",
  "source": "pragma solidity ^0.4.11;\n\nimport \"../tokens/IToken.sol\";\nimport \"../common/Math.sol\";\n\n\nlibrary InvestorLedger {\n    uint constant PERMIL = 1000;\n\n    function openAccount(\n        IToken collateralToken,\n        IToken loanToken,\n        address liege,\n        uint256 totalLoanNeeded,\n        uint16 interestPermil) internal pure returns (Ledger account)\n    {\n        account.collateralToken = collateralToken;\n        account.loanToken = loanToken;\n        account.totalLoanNeeded = totalLoanNeeded;\n        account.interestPermil = interestPermil;\n\n        account.liege = liege;\n\n        return account;\n    }\n\n    function gatherCollateral(Ledger storage account) public {\n        var allowance = account.collateralToken.allowance(account.liege, this);\n        account.totalCollateral += allowance;\n        require(\n            account.collateralToken.transferFrom(\n                account.liege,\n                this,\n                allowance\n            )\n        );\n    }\n\n    function gatherInvestment(Ledger storage account, address trustee) public {\n        var investmentAmount = Math.min(\n            account.loanToken.allowance(trustee, this),\n            account.totalLoanNeeded - account.totalAmountGathered\n        );\n        var investmentPermil = investmentAmount * PERMIL / account.totalLoanNeeded;\n        var collateralReseverved = investmentPermil * account.totalCollateral / PERMIL;\n        \n        account.totalAmountGathered += investmentAmount;\n        account.totalCollateralReserved += collateralReseverved;\n        account.totalPaybackNeeded += calculateInterest(account, investmentAmount);\n\n        var investor = account.investors[trustee];\n        investor.amountInvested += investmentAmount;\n        investor.reservedCollateral += collateralReseverved;\n    }\n\n    function gatherPayback(Ledger storage account) public {\n        require(!account.loanCancelled && !account.loanDefaulted);\n\n        require(account.loanToken.allowance(account.liege, this) >= account.totalPaybackNeeded);\n        require(account.loanToken.transferFrom(account.liege, this, account.totalPaybackNeeded));\n\n        collateralToLiege(account);\n    }\n\n    function markCancelled(Ledger storage account) public {\n        require(!account.loanCancelled && !account.loanDefaulted);\n\n        account.loanCancelled = true;\n\n        collateralToLiege(account);\n    }\n\n    function markDefaulted(Ledger storage account) public {\n        require(!account.loanCancelled && !account.loanDefaulted);\n\n        account.loanDefaulted = true;\n\n        collateralToLiege(account);\n    }\n\n    function collateralToLiege(Ledger storage account) public {\n        var amountToTransfer = account.totalCollateral;\n        if (account.loanDefaulted) {\n            amountToTransfer -= account.totalCollateralReserved;\n        }\n        require(account.collateralToken.transfer(account.liege, amountToTransfer));\n    }\n\n    function withdrawInvestment(Ledger storage account, address trustee) public {\n        var investor = account.investors[trustee];\n        \n        if (account.loanDefaulted) {\n            var reservedCollateral = investor.reservedCollateral;\n            investor.reservedCollateral = 0;\n            require(account.collateralToken.transfer(trustee, reservedCollateral));\n        } else {\n            var amountInvested = investor.amountInvested;\n            if (!account.loanCancelled) {\n                amountInvested += calculateInterest(account, amountInvested);\n            }\n            investor.amountInvested = 0;\n            require(account.loanToken.transfer(trustee, amountInvested));\n        }\n\n        delete account.investors[trustee];\n    }\n\n    function releaseLoanToBorrower(Ledger storage account) public {\n        require(account.loanWidthdrawn == false);\n\n        account.loanWidthdrawn = true;\n\n        require(account.loanToken.transfer(account.liege, account.totalAmountGathered));\n    }\n\n    function isFullyFunded(Ledger storage account) constant public returns (bool fullyFunded) {\n        return account.totalAmountGathered == account.totalLoanNeeded;\n    }\n    \n    function calculateInterest(Ledger storage account, uint256 investment) private constant returns (uint256 interest) {\n        return investment * account.interestPermil / PERMIL;\n    }\n\n    struct Ledger {\n        // Config\n        IToken collateralToken;\n        IToken loanToken;\n\n        address liege;\n        uint256 totalCollateral;\n        uint256 totalLoanNeeded;\n        uint16  interestPermil;\n        uint256 paybackDeadlineBlock;\n        mapping(address => InvestorData) investors;\n\n        uint256 totalAmountGathered;\n\n        uint256 totalCollateralReserved;\n        uint256 totalPaybackNeeded;\n        \n        bool loanCancelled;\n        bool loanDefaulted;\n        bool loanWidthdrawn;\n    }\n\n    struct InvestorData {\n        uint256 reservedCollateral;\n        uint256 amountInvested;\n    }\n}\n",
  "sourcePath": "/home/q3k/Work/getline/getline/dapp/contracts/loans/InvestorLedger.sol",
  "compiler": {
    "name": "solc",
    "version": "0.4.18+commit.9cf6e910.Emscripten.clang"
  },
  "schemaVersion": "1.0.1",
  "updatedAt": "2017-11-13T20:08:18.429Z"
}