{
  "contractName": "Loan",
  "abi": [
    {
      "constant": true,
      "inputs": [],
      "name": "fundraisingDeadline",
      "outputs": [
        {
          "name": "",
          "type": "uint256"
        }
      ],
      "payable": false,
      "stateMutability": "view",
      "type": "function"
    },
    {
      "constant": true,
      "inputs": [],
      "name": "currentState",
      "outputs": [
        {
          "name": "",
          "type": "uint8"
        }
      ],
      "payable": false,
      "stateMutability": "view",
      "type": "function"
    },
    {
      "constant": false,
      "inputs": [],
      "name": "widthrawInvestment",
      "outputs": [],
      "payable": false,
      "stateMutability": "nonpayable",
      "type": "function"
    },
    {
      "constant": true,
      "inputs": [],
      "name": "getCurrentState",
      "outputs": [
        {
          "name": "_state",
          "type": "uint256"
        }
      ],
      "payable": false,
      "stateMutability": "view",
      "type": "function"
    },
    {
      "constant": true,
      "inputs": [],
      "name": "amountGathered",
      "outputs": [
        {
          "name": "_totalAmount",
          "type": "uint256"
        }
      ],
      "payable": false,
      "stateMutability": "view",
      "type": "function"
    },
    {
      "constant": true,
      "inputs": [],
      "name": "paybackNeeded",
      "outputs": [
        {
          "name": "_totalPayback",
          "type": "uint256"
        }
      ],
      "payable": false,
      "stateMutability": "view",
      "type": "function"
    },
    {
      "constant": true,
      "inputs": [],
      "name": "isFundraising",
      "outputs": [
        {
          "name": "_isFundraising",
          "type": "bool"
        }
      ],
      "payable": false,
      "stateMutability": "view",
      "type": "function"
    },
    {
      "constant": true,
      "inputs": [],
      "name": "borrower",
      "outputs": [
        {
          "name": "_borrower",
          "type": "address"
        }
      ],
      "payable": false,
      "stateMutability": "view",
      "type": "function"
    },
    {
      "constant": false,
      "inputs": [],
      "name": "payback",
      "outputs": [],
      "payable": false,
      "stateMutability": "nonpayable",
      "type": "function"
    },
    {
      "constant": true,
      "inputs": [],
      "name": "interestPermil",
      "outputs": [
        {
          "name": "_interestPermil",
          "type": "uint16"
        }
      ],
      "payable": false,
      "stateMutability": "view",
      "type": "function"
    },
    {
      "constant": true,
      "inputs": [],
      "name": "isPaidback",
      "outputs": [
        {
          "name": "_isPaidback",
          "type": "bool"
        }
      ],
      "payable": false,
      "stateMutability": "view",
      "type": "function"
    },
    {
      "constant": true,
      "inputs": [],
      "name": "paybackDeadline",
      "outputs": [
        {
          "name": "",
          "type": "uint256"
        }
      ],
      "payable": false,
      "stateMutability": "view",
      "type": "function"
    },
    {
      "constant": true,
      "inputs": [],
      "name": "isDefaulted",
      "outputs": [
        {
          "name": "_isDefaulted",
          "type": "bool"
        }
      ],
      "payable": false,
      "stateMutability": "view",
      "type": "function"
    },
    {
      "constant": true,
      "inputs": [],
      "name": "collateralToken",
      "outputs": [
        {
          "name": "tokenAddress",
          "type": "address"
        }
      ],
      "payable": false,
      "stateMutability": "view",
      "type": "function"
    },
    {
      "constant": true,
      "inputs": [],
      "name": "fundraisingBlocksCount",
      "outputs": [
        {
          "name": "",
          "type": "uint256"
        }
      ],
      "payable": false,
      "stateMutability": "view",
      "type": "function"
    },
    {
      "constant": false,
      "inputs": [],
      "name": "withdrawLoan",
      "outputs": [],
      "payable": false,
      "stateMutability": "nonpayable",
      "type": "function"
    },
    {
      "constant": true,
      "inputs": [],
      "name": "borrowedToken",
      "outputs": [
        {
          "name": "tokenAddress",
          "type": "address"
        }
      ],
      "payable": false,
      "stateMutability": "view",
      "type": "function"
    },
    {
      "constant": true,
      "inputs": [],
      "name": "amountWanted",
      "outputs": [
        {
          "name": "_amountWanted",
          "type": "uint256"
        }
      ],
      "payable": false,
      "stateMutability": "view",
      "type": "function"
    },
    {
      "constant": false,
      "inputs": [],
      "name": "invest",
      "outputs": [],
      "payable": false,
      "stateMutability": "nonpayable",
      "type": "function"
    },
    {
      "constant": false,
      "inputs": [],
      "name": "gatherCollateral",
      "outputs": [],
      "payable": false,
      "stateMutability": "nonpayable",
      "type": "function"
    },
    {
      "constant": true,
      "inputs": [],
      "name": "paybackBlocksCount",
      "outputs": [
        {
          "name": "",
          "type": "uint256"
        }
      ],
      "payable": false,
      "stateMutability": "view",
      "type": "function"
    },
    {
      "inputs": [
        {
          "name": "_collateralToken",
          "type": "address"
        },
        {
          "name": "_loanToken",
          "type": "address"
        },
        {
          "name": "_liege",
          "type": "address"
        },
        {
          "name": "_amountWanted",
          "type": "uint256"
        },
        {
          "name": "_interestPermil",
          "type": "uint16"
        },
        {
          "name": "_fundraisingBlocksCount",
          "type": "uint256"
        },
        {
          "name": "_paybackBlocksCount",
          "type": "uint256"
        }
      ],
      "payable": false,
      "stateMutability": "nonpayable",
      "type": "constructor"
    },
    {
      "anonymous": false,
      "inputs": [
        {
          "indexed": true,
          "name": "liege",
          "type": "address"
        }
      ],
      "name": "FundraisingBegins",
      "type": "event"
    },
    {
      "anonymous": false,
      "inputs": [
        {
          "indexed": true,
          "name": "liege",
          "type": "address"
        },
        {
          "indexed": true,
          "name": "trustee",
          "type": "address"
        }
      ],
      "name": "NewInvestment",
      "type": "event"
    },
    {
      "anonymous": false,
      "inputs": [
        {
          "indexed": true,
          "name": "liege",
          "type": "address"
        }
      ],
      "name": "FundraisingSucessfull",
      "type": "event"
    },
    {
      "anonymous": false,
      "inputs": [
        {
          "indexed": true,
          "name": "liege",
          "type": "address"
        }
      ],
      "name": "FundraisingFailed",
      "type": "event"
    },
    {
      "anonymous": false,
      "inputs": [
        {
          "indexed": true,
          "name": "liege",
          "type": "address"
        }
      ],
      "name": "LoanPaidback",
      "type": "event"
    },
    {
      "anonymous": false,
      "inputs": [
        {
          "indexed": true,
          "name": "liege",
          "type": "address"
        }
      ],
      "name": "LoanDefaulted",
      "type": "event"
    }
  ],
  "bytecode": "0x6060604052600060025560006003556000600460006101000a81548160ff0219169083600381111561002d57fe5b0217905550341561003d57600080fd5b60405160e0806119fd8339810160405280805190602001909190805190602001909190805190602001909190805190602001909190805190602001909190805190602001909190805190602001909190505060008411151561009e57600080fd5b6100be87878787876102766401000000000261142e176401000000009004565b600560008201518160000160006101000a81548173ffffffffffffffffffffffffffffffffffffffff021916908373ffffffffffffffffffffffffffffffffffffffff16021790555060208201518160010160006101000a81548173ffffffffffffffffffffffffffffffffffffffff021916908373ffffffffffffffffffffffffffffffffffffffff16021790555060408201518160020160006101000a81548173ffffffffffffffffffffffffffffffffffffffff021916908373ffffffffffffffffffffffffffffffffffffffff160217905550606082015181600301556080820151816004015560a08201518160050160006101000a81548161ffff021916908361ffff16021790555060c0820151816006015560e08201518160080155610100820151816009015561012082015181600a015561014082015181600b0160006101000a81548160ff02191690831515021790555061016082015181600b0160016101000a81548160ff02191690831515021790555061018082015181600b0160026101000a81548160ff021916908315150217905550905050816000819055508060018190555050505050505050610405565b61027e610350565b85816000019073ffffffffffffffffffffffffffffffffffffffff16908173ffffffffffffffffffffffffffffffffffffffff168152505084816020019073ffffffffffffffffffffffffffffffffffffffff16908173ffffffffffffffffffffffffffffffffffffffff168152505082816080018181525050818160a0019061ffff16908161ffff168152505083816040019073ffffffffffffffffffffffffffffffffffffffff16908173ffffffffffffffffffffffffffffffffffffffff168152505080905095945050505050565b6101a060405190810160405280600073ffffffffffffffffffffffffffffffffffffffff168152602001600073ffffffffffffffffffffffffffffffffffffffff168152602001600073ffffffffffffffffffffffffffffffffffffffff1681526020016000815260200160008152602001600061ffff168152602001600081526020016000815260200160008152602001600081526020016000151581526020016000151581526020016000151581525090565b6115e9806104146000396000f30060606040526004361061011d576000357c0100000000000000000000000000000000000000000000000000000000900463ffffffff16806306a9d1a9146101225780630c3f6acf1461014b5780632426493f14610182578063378aa70114610197578063385ac771146101c057806339adc7e8146101e9578063522c2178146102125780637df1f1b91461023f578063854bec871461029457806386f5bf88146102a9578063875acfba146102da578063a36be9a114610307578063a38aaa9014610330578063b2016bd41461035d578063b88b4ad5146103b2578063c4c77e25146103db578063c710ccd6146103f0578063ca5f428214610445578063e8b5e51f1461046e578063f5caccad14610483578063ffabf9a814610498575b600080fd5b341561012d57600080fd5b6101356104c1565b6040518082815260200191505060405180910390f35b341561015657600080fd5b61015e6104c7565b6040518082600381111561016e57fe5b60ff16815260200191505060405180910390f35b341561018d57600080fd5b6101956104da565b005b34156101a257600080fd5b6101aa610654565b6040518082815260200191505060405180910390f35b34156101cb57600080fd5b6101d3610703565b6040518082815260200191505060405180910390f35b34156101f457600080fd5b6101fc610710565b6040518082815260200191505060405180910390f35b341561021d57600080fd5b61022561071d565b604051808215151515815260200191505060405180910390f35b341561024a57600080fd5b6102526107da565b604051808273ffffffffffffffffffffffffffffffffffffffff1673ffffffffffffffffffffffffffffffffffffffff16815260200191505060405180910390f35b341561029f57600080fd5b6102a7610807565b005b34156102b457600080fd5b6102bc610979565b604051808261ffff1661ffff16815260200191505060405180910390f35b34156102e557600080fd5b6102ed610993565b604051808215151515815260200191505060405180910390f35b341561031257600080fd5b61031a610a6b565b6040518082815260200191505060405180910390f35b341561033b57600080fd5b610343610a71565b604051808215151515815260200191505060405180910390f35b341561036857600080fd5b610370610b48565b604051808273ffffffffffffffffffffffffffffffffffffffff1673ffffffffffffffffffffffffffffffffffffffff16815260200191505060405180910390f35b34156103bd57600080fd5b6103c5610b75565b6040518082815260200191505060405180910390f35b34156103e657600080fd5b6103ee610b7b565b005b34156103fb57600080fd5b610403610cc1565b604051808273ffffffffffffffffffffffffffffffffffffffff1673ffffffffffffffffffffffffffffffffffffffff16815260200191505060405180910390f35b341561045057600080fd5b610458610cee565b6040518082815260200191505060405180910390f35b341561047957600080fd5b610481610cfb565b005b341561048e57600080fd5b610496610f93565b005b34156104a357600080fd5b6104ab6110e3565b6040518082815260200191505060405180910390f35b60025481565b600460009054906101000a900460ff1681565b600160038111156104e757fe5b600460009054906101000a900460ff16600381111561050257fe5b148015610510575043600254105b156105225761051d6110e9565b610567565b6002600381111561052f57fe5b600460009054906101000a900460ff16600381111561054a57fe5b148015610558575043600354105b15610566576105656111f8565b5b5b600380600381111561057557fe5b600460009054906101000a900460ff16600381111561059057fe5b14151561059c57600080fd5b600573__InvestorLedger________________________6353942b029091336040518363ffffffff167c0100000000000000000000000000000000000000000000000000000000028152600401808381526020018273ffffffffffffffffffffffffffffffffffffffff1673ffffffffffffffffffffffffffffffffffffffff1681526020019250505060006040518083038186803b151561063d57600080fd5b6102c65a03f4151561064e57600080fd5b50505050565b60006001600381111561066357fe5b600460009054906101000a900460ff16600381111561067e57fe5b14801561068c575043600254105b1561069e576106996110e9565b6106e3565b600260038111156106ab57fe5b600460009054906101000a900460ff1660038111156106c657fe5b1480156106d4575043600354105b156106e2576106e16111f8565b5b5b600460009054906101000a900460ff1660038111156106fe57fe5b905090565b6000600560080154905090565b60006005600a0154905090565b60006001600381111561072c57fe5b600460009054906101000a900460ff16600381111561074757fe5b148015610755575043600254105b15610767576107626110e9565b6107ac565b6002600381111561077457fe5b600460009054906101000a900460ff16600381111561078f57fe5b14801561079d575043600354105b156107ab576107aa6111f8565b5b5b600160038111156107b957fe5b600460009054906101000a900460ff1660038111156107d457fe5b14905090565b6000600560020160009054906101000a900473ffffffffffffffffffffffffffffffffffffffff16905090565b6001600381111561081457fe5b600460009054906101000a900460ff16600381111561082f57fe5b14801561083d575043600254105b1561084f5761084a6110e9565b610894565b6002600381111561085c57fe5b600460009054906101000a900460ff16600381111561087757fe5b148015610885575043600354105b15610893576108926111f8565b5b5b60028060038111156108a257fe5b600460009054906101000a900460ff1660038111156108bd57fe5b1415156108c957600080fd5b600573__InvestorLedger________________________63d47a243a90916040518263ffffffff167c01000000000000000000000000000000000000000000000000000000000281526004018082815260200191505060006040518083038186803b151561093657600080fd5b6102c65a03f4151561094757600080fd5b5050506003600460006101000a81548160ff0219169083600381111561096957fe5b0217905550610976611307565b50565b60006005800160009054906101000a900461ffff16905090565b6000600160038111156109a257fe5b600460009054906101000a900460ff1660038111156109bd57fe5b1480156109cb575043600254105b156109dd576109d86110e9565b610a22565b600260038111156109ea57fe5b600460009054906101000a900460ff166003811115610a0557fe5b148015610a13575043600354105b15610a2157610a206111f8565b5b5b600380811115610a2e57fe5b600460009054906101000a900460ff166003811115610a4957fe5b148015610a6657506005600b0160019054906101000a900460ff16155b905090565b60035481565b600060016003811115610a8057fe5b600460009054906101000a900460ff166003811115610a9b57fe5b148015610aa9575043600254105b15610abb57610ab66110e9565b610b00565b60026003811115610ac857fe5b600460009054906101000a900460ff166003811115610ae357fe5b148015610af1575043600354105b15610aff57610afe6111f8565b5b5b600380811115610b0c57fe5b600460009054906101000a900460ff166003811115610b2757fe5b148015610b4357506005600b0160019054906101000a900460ff165b905090565b6000600560000160009054906101000a900473ffffffffffffffffffffffffffffffffffffffff16905090565b60005481565b60016003811115610b8857fe5b600460009054906101000a900460ff166003811115610ba357fe5b148015610bb1575043600254105b15610bc357610bbe6110e9565b610c08565b60026003811115610bd057fe5b600460009054906101000a900460ff166003811115610beb57fe5b148015610bf9575043600354105b15610c0757610c066111f8565b5b5b6002806003811115610c1657fe5b600460009054906101000a900460ff166003811115610c3157fe5b141515610c3d57600080fd5b600573__InvestorLedger________________________6396d4a53890916040518263ffffffff167c01000000000000000000000000000000000000000000000000000000000281526004018082815260200191505060006040518083038186803b1515610caa57600080fd5b6102c65a03f41515610cbb57600080fd5b50505050565b6000600560010160009054906101000a900473ffffffffffffffffffffffffffffffffffffffff16905090565b6000600560040154905090565b60016003811115610d0857fe5b600460009054906101000a900460ff166003811115610d2357fe5b148015610d31575043600254105b15610d4357610d3e6110e9565b610d88565b60026003811115610d5057fe5b600460009054906101000a900460ff166003811115610d6b57fe5b148015610d79575043600354105b15610d8757610d866111f8565b5b5b6001806003811115610d9657fe5b600460009054906101000a900460ff166003811115610db157fe5b141515610dbd57600080fd5b600573__InvestorLedger________________________630d7e4c279091336040518363ffffffff167c0100000000000000000000000000000000000000000000000000000000028152600401808381526020018273ffffffffffffffffffffffffffffffffffffffff1673ffffffffffffffffffffffffffffffffffffffff1681526020019250505060006040518083038186803b1515610e5e57600080fd5b6102c65a03f41515610e6f57600080fd5b5050503373ffffffffffffffffffffffffffffffffffffffff16600560020160009054906101000a900473ffffffffffffffffffffffffffffffffffffffff1673ffffffffffffffffffffffffffffffffffffffff167f44dd6835c3e7844115d380f7c1dd6082ad5a4231ec873985a11fcaf370c2348160405160405180910390a3600573__InvestorLedger________________________639b197bc490916000604051602001526040518263ffffffff167c01000000000000000000000000000000000000000000000000000000000281526004018082815260200191505060206040518083038186803b1515610f6757600080fd5b6102c65a03f41515610f7857600080fd5b5050506040518051905015610f9057610f8f611395565b5b50565b6000806003811115610fa157fe5b600460009054906101000a900460ff166003811115610fbc57fe5b141515610fc857600080fd5b600573__InvestorLedger________________________63aa586fea90916040518263ffffffff167c01000000000000000000000000000000000000000000000000000000000281526004018082815260200191505060006040518083038186803b151561103557600080fd5b6102c65a03f4151561104657600080fd5b5050506001600460006101000a81548160ff0219169083600381111561106857fe5b02179055506000544301600281905550600560020160009054906101000a900473ffffffffffffffffffffffffffffffffffffffff1673ffffffffffffffffffffffffffffffffffffffff167fe8a4175c0c55b38116edd863f28855d5af500a0d2ad4df217ba5bf5a94b4ff4660405160405180910390a250565b60015481565b600573__InvestorLedger________________________630905979a90916040518263ffffffff167c01000000000000000000000000000000000000000000000000000000000281526004018082815260200191505060006040518083038186803b151561115657600080fd5b6102c65a03f4151561116757600080fd5b5050506003600460006101000a81548160ff0219169083600381111561118957fe5b0217905550600560020160009054906101000a900473ffffffffffffffffffffffffffffffffffffffff1673ffffffffffffffffffffffffffffffffffffffff167f2d7d63a3f6363a400f86dfab75def6477b6609fe5369c2a63c5e437941d80f4c60405160405180910390a2565b600573__InvestorLedger________________________63578bdfa890916040518263ffffffff167c01000000000000000000000000000000000000000000000000000000000281526004018082815260200191505060006040518083038186803b151561126557600080fd5b6102c65a03f4151561127657600080fd5b5050506003600460006101000a81548160ff0219169083600381111561129857fe5b0217905550600560020160009054906101000a900473ffffffffffffffffffffffffffffffffffffffff1673ffffffffffffffffffffffffffffffffffffffff167ff4e5cf42cbb1d0c6c91e16d925349feb6c5d970652f6ec77b1ff1262f7284cd560405160405180910390a2565b6003600460006101000a81548160ff0219169083600381111561132657fe5b0217905550600560020160009054906101000a900473ffffffffffffffffffffffffffffffffffffffff1673ffffffffffffffffffffffffffffffffffffffff167f3c1036d8e135b143151b235d86c485eef7bf99e4b66a1ea56a1839e90e006ab160405160405180910390a2565b60015443016003819055506002600460006101000a81548160ff021916908360038111156113bf57fe5b0217905550600560020160009054906101000a900473ffffffffffffffffffffffffffffffffffffffff1673ffffffffffffffffffffffffffffffffffffffff167fdca26b403a05652a5cb9004bc5f09efcd16e056c08d332d9612661b782c4ab0960405160405180910390a2565b611436611508565b85816000019073ffffffffffffffffffffffffffffffffffffffff16908173ffffffffffffffffffffffffffffffffffffffff168152505084816020019073ffffffffffffffffffffffffffffffffffffffff16908173ffffffffffffffffffffffffffffffffffffffff168152505082816080018181525050818160a0019061ffff16908161ffff168152505083816040019073ffffffffffffffffffffffffffffffffffffffff16908173ffffffffffffffffffffffffffffffffffffffff168152505080905095945050505050565b6101a060405190810160405280600073ffffffffffffffffffffffffffffffffffffffff168152602001600073ffffffffffffffffffffffffffffffffffffffff168152602001600073ffffffffffffffffffffffffffffffffffffffff1681526020016000815260200160008152602001600061ffff1681526020016000815260200160008152602001600081526020016000815260200160001515815260200160001515815260200160001515815250905600a165627a7a72305820ee82f8db07caaf61277056892b9f07fec631c6aa669652e5aa7628ea5231e3090029",
  "source": "pragma solidity ^0.4.11;\n\nimport \"./IAtestor.sol\";\nimport \"./InvestorLedger.sol\";\nimport \"../tokens/IToken.sol\";\n\n\ncontract Loan {\n    // Set only during begining phases and not changed afterwards\n    uint256 public fundraisingBlocksCount;\n    uint256 public paybackBlocksCount;\n\n    // Contract changing state\n    uint256 public fundraisingDeadline = 0;\n    uint256 public paybackDeadline = 0;\n    State   public currentState = State.CollateralCollection;\n    \n    using InvestorLedger for InvestorLedger.Ledger;\n    InvestorLedger.Ledger ledger;   \n\n    event FundraisingBegins(address indexed liege);\n    event NewInvestment(address indexed liege, address indexed trustee);\n    event FundraisingSucessfull(address indexed liege);\n    event FundraisingFailed(address indexed liege);\n    event LoanPaidback(address indexed liege);\n    event LoanDefaulted(address indexed liege);\n\n    modifier atState(State _state) {\n        require(currentState == _state);\n\n        _;\n    }\n\n    modifier timedTransitions() {\n        if (currentState == State.Fundraising && fundraisingDeadline < block.number) {\n            onFundraisingFail();\n        } else if (currentState == State.Payback && paybackDeadline < block.number) {\n            onPaybackFailure();\n        }\n\n        _;\n    }\n\n    function Loan(\n        //IAtestor _atestator,\n        IToken _collateralToken,\n        IToken _loanToken,\n        address _liege,\n        uint256 _amountWanted,\n        uint16  _interestPermil,\n        uint256 _fundraisingBlocksCount,\n        uint256 _paybackBlocksCount\n    ) {\n        require(_amountWanted > 0);\n        //require(_atestator.isVerified(_liege));\n        \n        ledger = InvestorLedger.openAccount(\n            _collateralToken,\n            _loanToken,\n            _liege,\n            _amountWanted,\n            _interestPermil\n        );\n        \n        fundraisingBlocksCount = _fundraisingBlocksCount;\n        paybackBlocksCount = _paybackBlocksCount;\n    }\n\n    function collateralToken() constant returns (IToken tokenAddress) {\n        return ledger.collateralToken;\n    }\n\n    function borrowedToken() constant returns (IToken tokenAddress) {\n        return ledger.loanToken;\n    }\n\n    function amountWanted() constant returns (uint256 _amountWanted) {\n        return ledger.totalLoanNeeded;\n    }\n\n    function borrower() constant returns (address _borrower) {\n        return ledger.liege;\n    }\n\n    function interestPermil() constant returns (uint16 _interestPermil) {\n        return ledger.interestPermil;\n    }\n\n    function isFundraising() timedTransitions constant returns (bool _isFundraising) {\n        return currentState == State.Fundraising;\n    }\n\n    function isPaidback() timedTransitions constant returns (bool _isPaidback) {\n        return currentState == State.Finished && !ledger.loanDefaulted;\n    }\n\n    function isDefaulted() timedTransitions constant returns (bool _isDefaulted) {\n        return currentState == State.Finished && ledger.loanDefaulted;\n    }\n\n    function getCurrentState() timedTransitions constant returns (uint _state) {\n        return uint(currentState);\n    }\n\n    function paybackNeeded() constant returns (uint256 _totalPayback) {\n        return ledger.totalPaybackNeeded;\n    }\n\n    function amountGathered() constant returns (uint256 _totalAmount) {\n        return ledger.totalAmountGathered;\n    }\n\n    function gatherCollateral() atState(State.CollateralCollection) {\n        ledger.gatherCollateral();\n\n        currentState = State.Fundraising;\n        fundraisingDeadline = block.number + fundraisingBlocksCount;\n\n        FundraisingBegins(ledger.liege);\n    }\n\n    function invest() timedTransitions atState(State.Fundraising) {\n        ledger.gatherInvestment(msg.sender);\n\n        NewInvestment(ledger.liege, msg.sender);\n\n        if (ledger.isFullyFunded())\n            onFundraisingSuccess();\n    }\n\n    function payback() timedTransitions atState(State.Payback) {\n        ledger.gatherPayback();\n        currentState = State.Finished;\n\n        onPaybackSucess();\n    }\n\n    function widthrawInvestment() timedTransitions atState(State.Finished) {\n        ledger.withdrawInvestment(msg.sender);\n    }\n\n    function withdrawLoan() timedTransitions atState(State.Payback) {\n        ledger.releaseLoanToBorrower();\n    }\n\n    function onFundraisingSuccess() private {\n        paybackDeadline = block.number + paybackBlocksCount;\n        currentState = State.Payback;\n        \n        FundraisingSucessfull(ledger.liege);\n    }\n\n    function onFundraisingFail() private {\n        ledger.markCancelled();\n        currentState = State.Finished;\n\n        FundraisingFailed(ledger.liege);\n    }\n\n    function onPaybackSucess() private {\n        currentState = State.Finished;\n\n        LoanPaidback(ledger.liege);\n    }\n\n    function onPaybackFailure() private {\n        ledger.markDefaulted();\n        currentState = State.Finished;\n\n        LoanDefaulted(ledger.liege);\n    }\n\n    enum State {\n        CollateralCollection,\n        Fundraising,\n        Payback,\n        Finished\n    }\n}\n",
  "sourcePath": "/home/q3k/Work/getline/getline/dapp/contracts/loans/Loan.sol",
  "compiler": {
    "name": "solc",
    "version": "0.4.18+commit.9cf6e910.Emscripten.clang"
  },
  "schemaVersion": "1.0.1",
  "updatedAt": "2017-12-22T16:47:08.207Z"
}