{
  "contractName": "Loan",
  "abi": [
    {
      "constant": true,
      "inputs": [],
      "name": "fundraisingDeadline",
      "outputs": [
        {
          "name": "",
          "type": "uint256"
        }
      ],
      "payable": false,
      "stateMutability": "view",
      "type": "function"
    },
    {
      "constant": true,
      "inputs": [],
      "name": "currentState",
      "outputs": [
        {
          "name": "",
          "type": "uint8"
        }
      ],
      "payable": false,
      "stateMutability": "view",
      "type": "function"
    },
    {
      "constant": false,
      "inputs": [],
      "name": "widthrawInvestment",
      "outputs": [],
      "payable": false,
      "stateMutability": "nonpayable",
      "type": "function"
    },
    {
      "constant": true,
      "inputs": [],
      "name": "getCurrentState",
      "outputs": [
        {
          "name": "_state",
          "type": "uint256"
        }
      ],
      "payable": false,
      "stateMutability": "view",
      "type": "function"
    },
    {
      "constant": true,
      "inputs": [],
      "name": "amountGathered",
      "outputs": [
        {
          "name": "_totalAmount",
          "type": "uint256"
        }
      ],
      "payable": false,
      "stateMutability": "view",
      "type": "function"
    },
    {
      "constant": true,
      "inputs": [],
      "name": "isFundraising",
      "outputs": [
        {
          "name": "_isFundraising",
          "type": "bool"
        }
      ],
      "payable": false,
      "stateMutability": "view",
      "type": "function"
    },
    {
      "constant": true,
      "inputs": [],
      "name": "borrower",
      "outputs": [
        {
          "name": "_borrower",
          "type": "address"
        }
      ],
      "payable": false,
      "stateMutability": "view",
      "type": "function"
    },
    {
      "constant": false,
      "inputs": [],
      "name": "payback",
      "outputs": [],
      "payable": false,
      "stateMutability": "nonpayable",
      "type": "function"
    },
    {
      "constant": true,
      "inputs": [],
      "name": "interestPermil",
      "outputs": [
        {
          "name": "_interestPermil",
          "type": "uint16"
        }
      ],
      "payable": false,
      "stateMutability": "view",
      "type": "function"
    },
    {
      "constant": true,
      "inputs": [],
      "name": "isPaidback",
      "outputs": [
        {
          "name": "_isPaidback",
          "type": "bool"
        }
      ],
      "payable": false,
      "stateMutability": "view",
      "type": "function"
    },
    {
      "constant": true,
      "inputs": [],
      "name": "paybackDeadline",
      "outputs": [
        {
          "name": "",
          "type": "uint256"
        }
      ],
      "payable": false,
      "stateMutability": "view",
      "type": "function"
    },
    {
      "constant": true,
      "inputs": [],
      "name": "isDefaulted",
      "outputs": [
        {
          "name": "_isDefaulted",
          "type": "bool"
        }
      ],
      "payable": false,
      "stateMutability": "view",
      "type": "function"
    },
    {
      "constant": true,
      "inputs": [],
      "name": "collateralToken",
      "outputs": [
        {
          "name": "tokenAddress",
          "type": "address"
        }
      ],
      "payable": false,
      "stateMutability": "view",
      "type": "function"
    },
    {
      "constant": true,
      "inputs": [],
      "name": "fundraisingBlocksCount",
      "outputs": [
        {
          "name": "",
          "type": "uint256"
        }
      ],
      "payable": false,
      "stateMutability": "view",
      "type": "function"
    },
    {
      "constant": false,
      "inputs": [],
      "name": "withdrawLoan",
      "outputs": [],
      "payable": false,
      "stateMutability": "nonpayable",
      "type": "function"
    },
    {
      "constant": true,
      "inputs": [],
      "name": "borrowedToken",
      "outputs": [
        {
          "name": "tokenAddress",
          "type": "address"
        }
      ],
      "payable": false,
      "stateMutability": "view",
      "type": "function"
    },
    {
      "constant": true,
      "inputs": [],
      "name": "amountWanted",
      "outputs": [
        {
          "name": "_amountWanted",
          "type": "uint256"
        }
      ],
      "payable": false,
      "stateMutability": "view",
      "type": "function"
    },
    {
      "constant": false,
      "inputs": [],
      "name": "invest",
      "outputs": [],
      "payable": false,
      "stateMutability": "nonpayable",
      "type": "function"
    },
    {
      "constant": false,
      "inputs": [],
      "name": "gatherCollateral",
      "outputs": [],
      "payable": false,
      "stateMutability": "nonpayable",
      "type": "function"
    },
    {
      "constant": true,
      "inputs": [],
      "name": "paybackBlocksCount",
      "outputs": [
        {
          "name": "",
          "type": "uint256"
        }
      ],
      "payable": false,
      "stateMutability": "view",
      "type": "function"
    },
    {
      "inputs": [
        {
          "name": "_collateralToken",
          "type": "address"
        },
        {
          "name": "_loanToken",
          "type": "address"
        },
        {
          "name": "_liege",
          "type": "address"
        },
        {
          "name": "_amountWanted",
          "type": "uint256"
        },
        {
          "name": "_interestPermil",
          "type": "uint16"
        },
        {
          "name": "_fundraisingBlocksCount",
          "type": "uint256"
        },
        {
          "name": "_paybackBlocksCount",
          "type": "uint256"
        }
      ],
      "payable": false,
      "stateMutability": "nonpayable",
      "type": "constructor"
    },
    {
      "anonymous": false,
      "inputs": [
        {
          "indexed": true,
          "name": "liege",
          "type": "address"
        }
      ],
      "name": "FundraisingBegins",
      "type": "event"
    },
    {
      "anonymous": false,
      "inputs": [
        {
          "indexed": true,
          "name": "liege",
          "type": "address"
        },
        {
          "indexed": true,
          "name": "trustee",
          "type": "address"
        }
      ],
      "name": "NewInvestment",
      "type": "event"
    },
    {
      "anonymous": false,
      "inputs": [
        {
          "indexed": true,
          "name": "liege",
          "type": "address"
        }
      ],
      "name": "FundraisingSucessfull",
      "type": "event"
    },
    {
      "anonymous": false,
      "inputs": [
        {
          "indexed": true,
          "name": "liege",
          "type": "address"
        }
      ],
      "name": "FundraisingFailed",
      "type": "event"
    },
    {
      "anonymous": false,
      "inputs": [
        {
          "indexed": true,
          "name": "liege",
          "type": "address"
        }
      ],
      "name": "LoanPaidback",
      "type": "event"
    },
    {
      "anonymous": false,
      "inputs": [
        {
          "indexed": true,
          "name": "liege",
          "type": "address"
        }
      ],
      "name": "LoanDefaulted",
      "type": "event"
    }
  ],
  "bytecode": "0x6060604052600060025560006003556000600460006101000a81548160ff0219169083600381111561002d57fe5b0217905550341561003d57600080fd5b60405160e0806119ad833981016040528080519060200190919080519060200190919080519060200190919080519060200190919080519060200190919080519060200190919080519060200190919050506100af8787878787610267640100000000026113ed176401000000009004565b600560008201518160000160006101000a81548173ffffffffffffffffffffffffffffffffffffffff021916908373ffffffffffffffffffffffffffffffffffffffff16021790555060208201518160010160006101000a81548173ffffffffffffffffffffffffffffffffffffffff021916908373ffffffffffffffffffffffffffffffffffffffff16021790555060408201518160020160006101000a81548173ffffffffffffffffffffffffffffffffffffffff021916908373ffffffffffffffffffffffffffffffffffffffff160217905550606082015181600301556080820151816004015560a08201518160050160006101000a81548161ffff021916908361ffff16021790555060c0820151816006015560e08201518160080155610100820151816009015561012082015181600a015561014082015181600b0160006101000a81548160ff02191690831515021790555061016082015181600b0160016101000a81548160ff02191690831515021790555061018082015181600b0160026101000a81548160ff0219169083151502179055509050508160008190555080600181905550505050505050506103f6565b61026f610341565b85816000019073ffffffffffffffffffffffffffffffffffffffff16908173ffffffffffffffffffffffffffffffffffffffff168152505084816020019073ffffffffffffffffffffffffffffffffffffffff16908173ffffffffffffffffffffffffffffffffffffffff168152505082816080018181525050818160a0019061ffff16908161ffff168152505083816040019073ffffffffffffffffffffffffffffffffffffffff16908173ffffffffffffffffffffffffffffffffffffffff168152505080905095945050505050565b6101a060405190810160405280600073ffffffffffffffffffffffffffffffffffffffff168152602001600073ffffffffffffffffffffffffffffffffffffffff168152602001600073ffffffffffffffffffffffffffffffffffffffff1681526020016000815260200160008152602001600061ffff168152602001600081526020016000815260200160008152602001600081526020016000151581526020016000151581526020016000151581525090565b6115a8806104056000396000f300606060405260043610610112576000357c0100000000000000000000000000000000000000000000000000000000900463ffffffff16806306a9d1a9146101175780630c3f6acf146101405780632426493f14610177578063378aa7011461018c578063385ac771146101b5578063522c2178146101de5780637df1f1b91461020b578063854bec871461026057806386f5bf8814610275578063875acfba146102a6578063a36be9a1146102d3578063a38aaa90146102fc578063b2016bd414610329578063b88b4ad51461037e578063c4c77e25146103a7578063c710ccd6146103bc578063ca5f428214610411578063e8b5e51f1461043a578063f5caccad1461044f578063ffabf9a814610464575b600080fd5b341561012257600080fd5b61012a61048d565b6040518082815260200191505060405180910390f35b341561014b57600080fd5b610153610493565b6040518082600381111561016357fe5b60ff16815260200191505060405180910390f35b341561018257600080fd5b61018a6104a6565b005b341561019757600080fd5b61019f610620565b6040518082815260200191505060405180910390f35b34156101c057600080fd5b6101c86106cf565b6040518082815260200191505060405180910390f35b34156101e957600080fd5b6101f16106dc565b604051808215151515815260200191505060405180910390f35b341561021657600080fd5b61021e610799565b604051808273ffffffffffffffffffffffffffffffffffffffff1673ffffffffffffffffffffffffffffffffffffffff16815260200191505060405180910390f35b341561026b57600080fd5b6102736107c6565b005b341561028057600080fd5b610288610938565b604051808261ffff1661ffff16815260200191505060405180910390f35b34156102b157600080fd5b6102b9610952565b604051808215151515815260200191505060405180910390f35b34156102de57600080fd5b6102e6610a2a565b6040518082815260200191505060405180910390f35b341561030757600080fd5b61030f610a30565b604051808215151515815260200191505060405180910390f35b341561033457600080fd5b61033c610b07565b604051808273ffffffffffffffffffffffffffffffffffffffff1673ffffffffffffffffffffffffffffffffffffffff16815260200191505060405180910390f35b341561038957600080fd5b610391610b34565b6040518082815260200191505060405180910390f35b34156103b257600080fd5b6103ba610b3a565b005b34156103c757600080fd5b6103cf610c80565b604051808273ffffffffffffffffffffffffffffffffffffffff1673ffffffffffffffffffffffffffffffffffffffff16815260200191505060405180910390f35b341561041c57600080fd5b610424610cad565b6040518082815260200191505060405180910390f35b341561044557600080fd5b61044d610cba565b005b341561045a57600080fd5b610462610f52565b005b341561046f57600080fd5b6104776110a2565b6040518082815260200191505060405180910390f35b60025481565b600460009054906101000a900460ff1681565b600160038111156104b357fe5b600460009054906101000a900460ff1660038111156104ce57fe5b1480156104dc575043600254105b156104ee576104e96110a8565b610533565b600260038111156104fb57fe5b600460009054906101000a900460ff16600381111561051657fe5b148015610524575043600354105b15610532576105316111b7565b5b5b600380600381111561054157fe5b600460009054906101000a900460ff16600381111561055c57fe5b14151561056857600080fd5b600573__InvestorLedger________________________6353942b029091336040518363ffffffff167c0100000000000000000000000000000000000000000000000000000000028152600401808381526020018273ffffffffffffffffffffffffffffffffffffffff1673ffffffffffffffffffffffffffffffffffffffff1681526020019250505060006040518083038186803b151561060957600080fd5b6102c65a03f4151561061a57600080fd5b50505050565b60006001600381111561062f57fe5b600460009054906101000a900460ff16600381111561064a57fe5b148015610658575043600254105b1561066a576106656110a8565b6106af565b6002600381111561067757fe5b600460009054906101000a900460ff16600381111561069257fe5b1480156106a0575043600354105b156106ae576106ad6111b7565b5b5b600460009054906101000a900460ff1660038111156106ca57fe5b905090565b6000600560080154905090565b6000600160038111156106eb57fe5b600460009054906101000a900460ff16600381111561070657fe5b148015610714575043600254105b15610726576107216110a8565b61076b565b6002600381111561073357fe5b600460009054906101000a900460ff16600381111561074e57fe5b14801561075c575043600354105b1561076a576107696111b7565b5b5b6001600381111561077857fe5b600460009054906101000a900460ff16600381111561079357fe5b14905090565b6000600560020160009054906101000a900473ffffffffffffffffffffffffffffffffffffffff16905090565b600160038111156107d357fe5b600460009054906101000a900460ff1660038111156107ee57fe5b1480156107fc575043600254105b1561080e576108096110a8565b610853565b6002600381111561081b57fe5b600460009054906101000a900460ff16600381111561083657fe5b148015610844575043600354105b15610852576108516111b7565b5b5b600280600381111561086157fe5b600460009054906101000a900460ff16600381111561087c57fe5b14151561088857600080fd5b600573__InvestorLedger________________________63d47a243a90916040518263ffffffff167c01000000000000000000000000000000000000000000000000000000000281526004018082815260200191505060006040518083038186803b15156108f557600080fd5b6102c65a03f4151561090657600080fd5b5050506003600460006101000a81548160ff0219169083600381111561092857fe5b02179055506109356112c6565b50565b60006005800160009054906101000a900461ffff16905090565b60006001600381111561096157fe5b600460009054906101000a900460ff16600381111561097c57fe5b14801561098a575043600254105b1561099c576109976110a8565b6109e1565b600260038111156109a957fe5b600460009054906101000a900460ff1660038111156109c457fe5b1480156109d2575043600354105b156109e0576109df6111b7565b5b5b6003808111156109ed57fe5b600460009054906101000a900460ff166003811115610a0857fe5b148015610a2557506005600b0160019054906101000a900460ff16155b905090565b60035481565b600060016003811115610a3f57fe5b600460009054906101000a900460ff166003811115610a5a57fe5b148015610a68575043600254105b15610a7a57610a756110a8565b610abf565b60026003811115610a8757fe5b600460009054906101000a900460ff166003811115610aa257fe5b148015610ab0575043600354105b15610abe57610abd6111b7565b5b5b600380811115610acb57fe5b600460009054906101000a900460ff166003811115610ae657fe5b148015610b0257506005600b0160019054906101000a900460ff165b905090565b6000600560000160009054906101000a900473ffffffffffffffffffffffffffffffffffffffff16905090565b60005481565b60016003811115610b4757fe5b600460009054906101000a900460ff166003811115610b6257fe5b148015610b70575043600254105b15610b8257610b7d6110a8565b610bc7565b60026003811115610b8f57fe5b600460009054906101000a900460ff166003811115610baa57fe5b148015610bb8575043600354105b15610bc657610bc56111b7565b5b5b6002806003811115610bd557fe5b600460009054906101000a900460ff166003811115610bf057fe5b141515610bfc57600080fd5b600573__InvestorLedger________________________6396d4a53890916040518263ffffffff167c01000000000000000000000000000000000000000000000000000000000281526004018082815260200191505060006040518083038186803b1515610c6957600080fd5b6102c65a03f41515610c7a57600080fd5b50505050565b6000600560010160009054906101000a900473ffffffffffffffffffffffffffffffffffffffff16905090565b6000600560040154905090565b60016003811115610cc757fe5b600460009054906101000a900460ff166003811115610ce257fe5b148015610cf0575043600254105b15610d0257610cfd6110a8565b610d47565b60026003811115610d0f57fe5b600460009054906101000a900460ff166003811115610d2a57fe5b148015610d38575043600354105b15610d4657610d456111b7565b5b5b6001806003811115610d5557fe5b600460009054906101000a900460ff166003811115610d7057fe5b141515610d7c57600080fd5b600573__InvestorLedger________________________630d7e4c279091336040518363ffffffff167c0100000000000000000000000000000000000000000000000000000000028152600401808381526020018273ffffffffffffffffffffffffffffffffffffffff1673ffffffffffffffffffffffffffffffffffffffff1681526020019250505060006040518083038186803b1515610e1d57600080fd5b6102c65a03f41515610e2e57600080fd5b5050503373ffffffffffffffffffffffffffffffffffffffff16600560020160009054906101000a900473ffffffffffffffffffffffffffffffffffffffff1673ffffffffffffffffffffffffffffffffffffffff167f44dd6835c3e7844115d380f7c1dd6082ad5a4231ec873985a11fcaf370c2348160405160405180910390a3600573__InvestorLedger________________________639b197bc490916000604051602001526040518263ffffffff167c01000000000000000000000000000000000000000000000000000000000281526004018082815260200191505060206040518083038186803b1515610f2657600080fd5b6102c65a03f41515610f3757600080fd5b5050506040518051905015610f4f57610f4e611354565b5b50565b6000806003811115610f6057fe5b600460009054906101000a900460ff166003811115610f7b57fe5b141515610f8757600080fd5b600573__InvestorLedger________________________63aa586fea90916040518263ffffffff167c01000000000000000000000000000000000000000000000000000000000281526004018082815260200191505060006040518083038186803b1515610ff457600080fd5b6102c65a03f4151561100557600080fd5b5050506001600460006101000a81548160ff0219169083600381111561102757fe5b02179055506000544301600281905550600560020160009054906101000a900473ffffffffffffffffffffffffffffffffffffffff1673ffffffffffffffffffffffffffffffffffffffff167fe8a4175c0c55b38116edd863f28855d5af500a0d2ad4df217ba5bf5a94b4ff4660405160405180910390a250565b60015481565b600573__InvestorLedger________________________630905979a90916040518263ffffffff167c01000000000000000000000000000000000000000000000000000000000281526004018082815260200191505060006040518083038186803b151561111557600080fd5b6102c65a03f4151561112657600080fd5b5050506003600460006101000a81548160ff0219169083600381111561114857fe5b0217905550600560020160009054906101000a900473ffffffffffffffffffffffffffffffffffffffff1673ffffffffffffffffffffffffffffffffffffffff167f2d7d63a3f6363a400f86dfab75def6477b6609fe5369c2a63c5e437941d80f4c60405160405180910390a2565b600573__InvestorLedger________________________63578bdfa890916040518263ffffffff167c01000000000000000000000000000000000000000000000000000000000281526004018082815260200191505060006040518083038186803b151561122457600080fd5b6102c65a03f4151561123557600080fd5b5050506003600460006101000a81548160ff0219169083600381111561125757fe5b0217905550600560020160009054906101000a900473ffffffffffffffffffffffffffffffffffffffff1673ffffffffffffffffffffffffffffffffffffffff167ff4e5cf42cbb1d0c6c91e16d925349feb6c5d970652f6ec77b1ff1262f7284cd560405160405180910390a2565b6003600460006101000a81548160ff021916908360038111156112e557fe5b0217905550600560020160009054906101000a900473ffffffffffffffffffffffffffffffffffffffff1673ffffffffffffffffffffffffffffffffffffffff167f3c1036d8e135b143151b235d86c485eef7bf99e4b66a1ea56a1839e90e006ab160405160405180910390a2565b60015443016003819055506002600460006101000a81548160ff0219169083600381111561137e57fe5b0217905550600560020160009054906101000a900473ffffffffffffffffffffffffffffffffffffffff1673ffffffffffffffffffffffffffffffffffffffff167fdca26b403a05652a5cb9004bc5f09efcd16e056c08d332d9612661b782c4ab0960405160405180910390a2565b6113f56114c7565b85816000019073ffffffffffffffffffffffffffffffffffffffff16908173ffffffffffffffffffffffffffffffffffffffff168152505084816020019073ffffffffffffffffffffffffffffffffffffffff16908173ffffffffffffffffffffffffffffffffffffffff168152505082816080018181525050818160a0019061ffff16908161ffff168152505083816040019073ffffffffffffffffffffffffffffffffffffffff16908173ffffffffffffffffffffffffffffffffffffffff168152505080905095945050505050565b6101a060405190810160405280600073ffffffffffffffffffffffffffffffffffffffff168152602001600073ffffffffffffffffffffffffffffffffffffffff168152602001600073ffffffffffffffffffffffffffffffffffffffff1681526020016000815260200160008152602001600061ffff1681526020016000815260200160008152602001600081526020016000815260200160001515815260200160001515815260200160001515815250905600a165627a7a7230582062f14fdf5200f9c0149e74c1070b6ccdc74852a6c3b34822b7f926aaf87fe2780029",
  "source": "pragma solidity ^0.4.11;\n\nimport \"./IAtestor.sol\";\nimport \"./InvestorLedger.sol\";\nimport \"../tokens/IToken.sol\";\n\n\ncontract Loan {\n    // Set only during begining phases and not changed afterwards\n    uint256 public fundraisingBlocksCount;\n    uint256 public paybackBlocksCount;\n\n    // Contract changing state\n    uint256 public fundraisingDeadline = 0;\n    uint256 public paybackDeadline = 0;\n    State   public currentState = State.CollateralCollection;\n    \n    using InvestorLedger for InvestorLedger.Ledger;\n    InvestorLedger.Ledger ledger;   \n\n    event FundraisingBegins(address indexed liege);\n    event NewInvestment(address indexed liege, address indexed trustee);\n    event FundraisingSucessfull(address indexed liege);\n    event FundraisingFailed(address indexed liege);\n    event LoanPaidback(address indexed liege);\n    event LoanDefaulted(address indexed liege);\n\n    modifier atState(State _state) {\n        require(currentState == _state);\n\n        _;\n    }\n\n    modifier timedTransitions() {\n        if (currentState == State.Fundraising && fundraisingDeadline < block.number) {\n            onFundraisingFail();\n        } else if (currentState == State.Payback && paybackDeadline < block.number) {\n            onPaybackFailure();\n        }\n\n        _;\n    }\n\n    function Loan(\n        //IAtestor _atestator,\n        IToken _collateralToken,\n        IToken _loanToken,\n        address _liege,\n        uint256 _amountWanted,\n        uint16  _interestPermil,\n        uint256 _fundraisingBlocksCount,\n        uint256 _paybackBlocksCount\n    ) {\n        //require(_atestator.isVerified(_liege));\n        \n        ledger = InvestorLedger.openAccount(\n            _collateralToken,\n            _loanToken,\n            _liege,\n            _amountWanted,\n            _interestPermil\n        );\n        \n        fundraisingBlocksCount = _fundraisingBlocksCount;\n        paybackBlocksCount = _paybackBlocksCount;\n    }\n\n    function collateralToken() constant returns (IToken tokenAddress) {\n        return ledger.collateralToken;\n    }\n\n    function borrowedToken() constant returns (IToken tokenAddress) {\n        return ledger.loanToken;\n    }\n\n    function amountWanted() constant returns (uint256 _amountWanted) {\n        return ledger.totalLoanNeeded;\n    }\n\n    function borrower() constant returns (address _borrower) {\n        return ledger.liege;\n    }\n\n    function interestPermil() constant returns (uint16 _interestPermil) {\n        return ledger.interestPermil;\n    }\n\n    function isFundraising() timedTransitions constant returns (bool _isFundraising) {\n        return currentState == State.Fundraising;\n    }\n\n    function isPaidback() timedTransitions constant returns (bool _isPaidback) {\n        return currentState == State.Finished && !ledger.loanDefaulted;\n    }\n\n    function isDefaulted() timedTransitions constant returns (bool _isDefaulted) {\n        return currentState == State.Finished && ledger.loanDefaulted;\n    }\n\n    function getCurrentState() timedTransitions constant returns (uint _state) {\n        return uint(currentState);\n    }\n\n    function amountGathered() constant returns (uint256 _totalAmount) {\n        return ledger.totalAmountGathered;\n    }\n\n    function gatherCollateral() atState(State.CollateralCollection) {\n        ledger.gatherCollateral();\n\n        currentState = State.Fundraising;\n        fundraisingDeadline = block.number + fundraisingBlocksCount;\n\n        FundraisingBegins(ledger.liege);\n    }\n\n    function invest() timedTransitions atState(State.Fundraising) {\n        ledger.gatherInvestment(msg.sender);\n\n        NewInvestment(ledger.liege, msg.sender);\n\n        if (ledger.isFullyFunded())\n            onFundraisingSuccess();\n    }\n\n    function payback() timedTransitions atState(State.Payback) {\n        ledger.gatherPayback();\n        currentState = State.Finished;\n\n        onPaybackSucess();\n    }\n\n    function widthrawInvestment() timedTransitions atState(State.Finished) {\n        ledger.withdrawInvestment(msg.sender);\n    }\n\n    function withdrawLoan() timedTransitions atState(State.Payback) {\n        ledger.releaseLoanToBorrower();\n    }\n\n    function onFundraisingSuccess() private {\n        paybackDeadline = block.number + paybackBlocksCount;\n        currentState = State.Payback;\n        \n        FundraisingSucessfull(ledger.liege);\n    }\n\n    function onFundraisingFail() private {\n        ledger.markCancelled();\n        currentState = State.Finished;\n\n        FundraisingFailed(ledger.liege);\n    }\n\n    function onPaybackSucess() private {\n        currentState = State.Finished;\n\n        LoanPaidback(ledger.liege);\n    }\n\n    function onPaybackFailure() private {\n        ledger.markDefaulted();\n        currentState = State.Finished;\n\n        LoanDefaulted(ledger.liege);\n    }\n\n    enum State {\n        CollateralCollection,\n        Fundraising,\n        Payback,\n        Finished\n    }\n}\n",
  "sourcePath": "/home/q3k/Work/getline/getline/dapp/contracts/loans/Loan.sol",
  "compiler": {
    "name": "solc",
    "version": "0.4.18+commit.9cf6e910.Emscripten.clang"
  },
  "schemaVersion": "1.0.1",
  "updatedAt": "2017-12-19T18:30:55.475Z"
}