{
  "contractName": "Loan",
  "abi": [
    {
      "constant": true,
      "inputs": [],
      "name": "fundraisingDeadline",
      "outputs": [
        {
          "name": "_fundraisingDeadline",
          "type": "uint64"
        }
      ],
      "payable": false,
      "stateMutability": "view",
      "type": "function"
    },
    {
      "constant": true,
      "inputs": [],
      "name": "loanToken",
      "outputs": [
        {
          "name": "_tokenAddress",
          "type": "address"
        }
      ],
      "payable": false,
      "stateMutability": "view",
      "type": "function"
    },
    {
      "constant": true,
      "inputs": [],
      "name": "paybackRequired",
      "outputs": [
        {
          "name": "_totalPayback",
          "type": "uint256"
        }
      ],
      "payable": false,
      "stateMutability": "view",
      "type": "function"
    },
    {
      "constant": true,
      "inputs": [],
      "name": "fundraisingDelta",
      "outputs": [
        {
          "name": "_fundraisingDelta",
          "type": "uint64"
        }
      ],
      "payable": false,
      "stateMutability": "view",
      "type": "function"
    },
    {
      "constant": true,
      "inputs": [
        {
          "name": "investor",
          "type": "address"
        }
      ],
      "name": "amountInvested",
      "outputs": [
        {
          "name": "_amount",
          "type": "uint256"
        }
      ],
      "payable": false,
      "stateMutability": "view",
      "type": "function"
    },
    {
      "constant": false,
      "inputs": [],
      "name": "withdraw",
      "outputs": [],
      "payable": false,
      "stateMutability": "nonpayable",
      "type": "function"
    },
    {
      "constant": false,
      "inputs": [],
      "name": "withdrawable",
      "outputs": [
        {
          "name": "_loanAmount",
          "type": "uint256"
        },
        {
          "name": "_collateralAmount",
          "type": "uint256"
        }
      ],
      "payable": false,
      "stateMutability": "nonpayable",
      "type": "function"
    },
    {
      "constant": true,
      "inputs": [],
      "name": "paybackDelta",
      "outputs": [
        {
          "name": "_paybackDelta",
          "type": "uint64"
        }
      ],
      "payable": false,
      "stateMutability": "view",
      "type": "function"
    },
    {
      "constant": true,
      "inputs": [],
      "name": "borrower",
      "outputs": [
        {
          "name": "_borrower",
          "type": "address"
        }
      ],
      "payable": false,
      "stateMutability": "view",
      "type": "function"
    },
    {
      "constant": false,
      "inputs": [],
      "name": "payback",
      "outputs": [],
      "payable": false,
      "stateMutability": "nonpayable",
      "type": "function"
    },
    {
      "constant": true,
      "inputs": [],
      "name": "interestPermil",
      "outputs": [
        {
          "name": "_interestPermil",
          "type": "uint16"
        }
      ],
      "payable": false,
      "stateMutability": "view",
      "type": "function"
    },
    {
      "constant": true,
      "inputs": [],
      "name": "paybackDeadline",
      "outputs": [
        {
          "name": "_paybackDeadline",
          "type": "uint64"
        }
      ],
      "payable": false,
      "stateMutability": "view",
      "type": "function"
    },
    {
      "constant": true,
      "inputs": [],
      "name": "collateralToken",
      "outputs": [
        {
          "name": "_tokenAddress",
          "type": "address"
        }
      ],
      "payable": false,
      "stateMutability": "view",
      "type": "function"
    },
    {
      "constant": true,
      "inputs": [],
      "name": "receivedCollateral",
      "outputs": [
        {
          "name": "_amount",
          "type": "uint256"
        }
      ],
      "payable": false,
      "stateMutability": "view",
      "type": "function"
    },
    {
      "constant": false,
      "inputs": [],
      "name": "state",
      "outputs": [
        {
          "name": "_state",
          "type": "uint256"
        }
      ],
      "payable": false,
      "stateMutability": "nonpayable",
      "type": "function"
    },
    {
      "constant": true,
      "inputs": [],
      "name": "amountWanted",
      "outputs": [
        {
          "name": "_amountWanted",
          "type": "uint256"
        }
      ],
      "payable": false,
      "stateMutability": "view",
      "type": "function"
    },
    {
      "constant": false,
      "inputs": [],
      "name": "invest",
      "outputs": [],
      "payable": false,
      "stateMutability": "nonpayable",
      "type": "function"
    },
    {
      "constant": false,
      "inputs": [],
      "name": "gatherCollateral",
      "outputs": [],
      "payable": false,
      "stateMutability": "nonpayable",
      "type": "function"
    },
    {
      "constant": true,
      "inputs": [],
      "name": "totalAmountInvested",
      "outputs": [
        {
          "name": "_totalAmount",
          "type": "uint256"
        }
      ],
      "payable": false,
      "stateMutability": "view",
      "type": "function"
    },
    {
      "inputs": [
        {
          "name": "_collateralToken",
          "type": "address"
        },
        {
          "name": "_loanToken",
          "type": "address"
        },
        {
          "name": "_borrower",
          "type": "address"
        },
        {
          "name": "_amountWanted",
          "type": "uint256"
        },
        {
          "name": "_interestPermil",
          "type": "uint16"
        },
        {
          "name": "_fundraisingDeadline",
          "type": "uint64"
        },
        {
          "name": "_paybackDeadline",
          "type": "uint64"
        }
      ],
      "payable": false,
      "stateMutability": "nonpayable",
      "type": "constructor"
    }
  ],
  "bytecode": "0x606060405234156200001057600080fd5b60405160e0806200157a833981016040528080519060200190919080519060200190919080519060200190919080519060200190919080519060200190919080519060200190919080519060200190919050506000841115156200007357600080fd5b6200009887878787878787620002a96401000000000262000c9b176401000000009004565b6000808201518160000160006101000a81548173ffffffffffffffffffffffffffffffffffffffff021916908373ffffffffffffffffffffffffffffffffffffffff16021790555060208201518160010160006101000a81548173ffffffffffffffffffffffffffffffffffffffff021916908373ffffffffffffffffffffffffffffffffffffffff16021790555060408201518160020160006101000a81548173ffffffffffffffffffffffffffffffffffffffff021916908373ffffffffffffffffffffffffffffffffffffffff1602179055506060820151816003015560808201518160040160006101000a81548161ffff021916908361ffff16021790555060a08201518160040160026101000a81548167ffffffffffffffff021916908367ffffffffffffffff16021790555060c082015181600401600a6101000a81548167ffffffffffffffff021916908367ffffffffffffffff16021790555060e0820151816005015561010082015181600701556101208201518160080160006101000a81548167ffffffffffffffff021916908367ffffffffffffffff1602179055506101408201518160080160086101000a81548167ffffffffffffffff021916908367ffffffffffffffff16021790555061016082015181600a0160006101000a81548160ff021916908360058111156200029457fe5b021790555090505050505050505050620005ab565b620002b3620004cf565b60008367ffffffffffffffff16111515620002cd57600080fd5b60008267ffffffffffffffff16111515620002e757600080fd5b600085111515620002f757600080fd5b428267ffffffffffffffff168467ffffffffffffffff164201011115156200031e57600080fd5b8267ffffffffffffffff1642018267ffffffffffffffff168467ffffffffffffffff164201011115156200035157600080fd5b87816000019073ffffffffffffffffffffffffffffffffffffffff16908173ffffffffffffffffffffffffffffffffffffffff168152505086816020019073ffffffffffffffffffffffffffffffffffffffff16908173ffffffffffffffffffffffffffffffffffffffff16815250508481606001818152505083816080019061ffff16908161ffff168152505085816040019073ffffffffffffffffffffffffffffffffffffffff16908173ffffffffffffffffffffffffffffffffffffffff1681525050600081610160019060058111156200042b57fe5b908160058111156200043957fe5b81525050828160a0019067ffffffffffffffff16908167ffffffffffffffff1681525050818160c0019067ffffffffffffffff16908167ffffffffffffffff1681525050600081610120019067ffffffffffffffff16908167ffffffffffffffff1681525050600081610140019067ffffffffffffffff16908167ffffffffffffffff1681525050809050979650505050505050565b61018060405190810160405280600073ffffffffffffffffffffffffffffffffffffffff168152602001600073ffffffffffffffffffffffffffffffffffffffff168152602001600073ffffffffffffffffffffffffffffffffffffffff16815260200160008152602001600061ffff168152602001600067ffffffffffffffff168152602001600067ffffffffffffffff1681526020016000815260200160008152602001600067ffffffffffffffff168152602001600067ffffffffffffffff16815260200160006005811115620005a557fe5b81525090565b610fbf80620005bb6000396000f300606060405260043610610107576000357c0100000000000000000000000000000000000000000000000000000000900463ffffffff16806306a9d1a91461010c57806306d37817146101495780631cd301491461019e57806325e629f2146101c75780633c3d3af6146102045780633ccfd60b14610251578063501883011461026657806377f27251146102965780637df1f1b9146102d3578063854bec871461032857806386f5bf881461033d578063a36be9a11461036e578063b2016bd4146103ab578063b9ba292614610400578063c19d93fb14610429578063ca5f428214610452578063e8b5e51f1461047b578063f5caccad14610490578063f6724a55146104a5575b600080fd5b341561011757600080fd5b61011f6104ce565b604051808267ffffffffffffffff1667ffffffffffffffff16815260200191505060405180910390f35b341561015457600080fd5b61015c6104ee565b604051808273ffffffffffffffffffffffffffffffffffffffff1673ffffffffffffffffffffffffffffffffffffffff16815260200191505060405180910390f35b34156101a957600080fd5b6101b161051a565b6040518082815260200191505060405180910390f35b34156101d257600080fd5b6101da6105b1565b604051808267ffffffffffffffff1667ffffffffffffffff16815260200191505060405180910390f35b341561020f57600080fd5b61023b600480803573ffffffffffffffffffffffffffffffffffffffff169060200190919050506105d1565b6040518082815260200191505060405180910390f35b341561025c57600080fd5b61026461069e565b005b341561027157600080fd5b610279610755565b604051808381526020018281526020019250505060405180910390f35b34156102a157600080fd5b6102a96108ea565b604051808267ffffffffffffffff1667ffffffffffffffff16815260200191505060405180910390f35b34156102de57600080fd5b6102e661090a565b604051808273ffffffffffffffffffffffffffffffffffffffff1673ffffffffffffffffffffffffffffffffffffffff16815260200191505060405180910390f35b341561033357600080fd5b61033b610936565b005b341561034857600080fd5b6103506109ed565b604051808261ffff1661ffff16815260200191505060405180910390f35b341561037957600080fd5b610381610a07565b604051808267ffffffffffffffff1667ffffffffffffffff16815260200191505060405180910390f35b34156103b657600080fd5b6103be610a27565b604051808273ffffffffffffffffffffffffffffffffffffffff1673ffffffffffffffffffffffffffffffffffffffff16815260200191505060405180910390f35b341561040b57600080fd5b610413610a53565b6040518082815260200191505060405180910390f35b341561043457600080fd5b61043c610a5f565b6040518082815260200191505060405180910390f35b341561045d57600080fd5b610465610b15565b6040518082815260200191505060405180910390f35b341561048657600080fd5b61048e610b21565b005b341561049b57600080fd5b6104a3610bd8565b005b34156104b057600080fd5b6104b8610c8f565b6040518082815260200191505060405180910390f35b60008060080160009054906101000a900467ffffffffffffffff16905090565b60008060010160009054906101000a900473ffffffffffffffffffffffffffffffffffffffff16905090565b60008073__InvestorLedger________________________638cf388d890916000604051602001526040518263ffffffff167c01000000000000000000000000000000000000000000000000000000000281526004018082815260200191505060206040518083038186803b151561059157600080fd5b6102c65a03f415156105a257600080fd5b50505060405180519050905090565b60008060040160029054906101000a900467ffffffffffffffff16905090565b60008073__InvestorLedger________________________6343a2e1b09091846000604051602001526040518363ffffffff167c0100000000000000000000000000000000000000000000000000000000028152600401808381526020018273ffffffffffffffffffffffffffffffffffffffff1673ffffffffffffffffffffffffffffffffffffffff1681526020019250505060206040518083038186803b151561067c57600080fd5b6102c65a03f4151561068d57600080fd5b505050604051805190509050919050565b600073__InvestorLedger________________________63e93f82f29091336040518363ffffffff167c0100000000000000000000000000000000000000000000000000000000028152600401808381526020018273ffffffffffffffffffffffffffffffffffffffff1673ffffffffffffffffffffffffffffffffffffffff1681526020019250505060006040518083038186803b151561073f57600080fd5b6102c65a03f4151561075057600080fd5b505050565b600080600073__InvestorLedger________________________63cd5e88a49091336000604051602001526040518363ffffffff167c0100000000000000000000000000000000000000000000000000000000028152600401808381526020018273ffffffffffffffffffffffffffffffffffffffff1673ffffffffffffffffffffffffffffffffffffffff1681526020019250505060206040518083038186803b151561080257600080fd5b6102c65a03f4151561081357600080fd5b505050604051805190509150600073__InvestorLedger________________________63cc857d359091336000604051602001526040518363ffffffff167c0100000000000000000000000000000000000000000000000000000000028152600401808381526020018273ffffffffffffffffffffffffffffffffffffffff1673ffffffffffffffffffffffffffffffffffffffff1681526020019250505060206040518083038186803b15156108c957600080fd5b6102c65a03f415156108da57600080fd5b5050506040518051905090509091565b600080600401600a9054906101000a900467ffffffffffffffff16905090565b60008060020160009054906101000a900473ffffffffffffffffffffffffffffffffffffffff16905090565b600073__InvestorLedger________________________63e491b0589091336040518363ffffffff167c0100000000000000000000000000000000000000000000000000000000028152600401808381526020018273ffffffffffffffffffffffffffffffffffffffff1673ffffffffffffffffffffffffffffffffffffffff1681526020019250505060006040518083038186803b15156109d757600080fd5b6102c65a03f415156109e857600080fd5b505050565b60008060040160009054906101000a900461ffff16905090565b60008060080160089054906101000a900467ffffffffffffffff16905090565b60008060000160009054906101000a900473ffffffffffffffffffffffffffffffffffffffff16905090565b60008060050154905090565b60008073__InvestorLedger________________________63875e88c190916000604051602001526040518263ffffffff167c01000000000000000000000000000000000000000000000000000000000281526004018082815260200191505060206040518083038186803b1515610ad657600080fd5b6102c65a03f41515610ae757600080fd5b50505060405180519050506000600a0160009054906101000a900460ff166005811115610b1057fe5b905090565b60008060030154905090565b600073__InvestorLedger________________________63dc93f39a9091336040518363ffffffff167c0100000000000000000000000000000000000000000000000000000000028152600401808381526020018273ffffffffffffffffffffffffffffffffffffffff1673ffffffffffffffffffffffffffffffffffffffff1681526020019250505060006040518083038186803b1515610bc257600080fd5b6102c65a03f41515610bd357600080fd5b505050565b600073__InvestorLedger________________________636a64cb029091336040518363ffffffff167c0100000000000000000000000000000000000000000000000000000000028152600401808381526020018273ffffffffffffffffffffffffffffffffffffffff1673ffffffffffffffffffffffffffffffffffffffff1681526020019250505060006040518083038186803b1515610c7957600080fd5b6102c65a03f41515610c8a57600080fd5b505050565b60008060070154905090565b610ca3610eb8565b60008367ffffffffffffffff16111515610cbc57600080fd5b60008267ffffffffffffffff16111515610cd557600080fd5b600085111515610ce457600080fd5b428267ffffffffffffffff168467ffffffffffffffff16420101111515610d0a57600080fd5b8267ffffffffffffffff1642018267ffffffffffffffff168467ffffffffffffffff16420101111515610d3c57600080fd5b87816000019073ffffffffffffffffffffffffffffffffffffffff16908173ffffffffffffffffffffffffffffffffffffffff168152505086816020019073ffffffffffffffffffffffffffffffffffffffff16908173ffffffffffffffffffffffffffffffffffffffff16815250508481606001818152505083816080019061ffff16908161ffff168152505085816040019073ffffffffffffffffffffffffffffffffffffffff16908173ffffffffffffffffffffffffffffffffffffffff168152505060008161016001906005811115610e1557fe5b90816005811115610e2257fe5b81525050828160a0019067ffffffffffffffff16908167ffffffffffffffff1681525050818160c0019067ffffffffffffffff16908167ffffffffffffffff1681525050600081610120019067ffffffffffffffff16908167ffffffffffffffff1681525050600081610140019067ffffffffffffffff16908167ffffffffffffffff1681525050809050979650505050505050565b61018060405190810160405280600073ffffffffffffffffffffffffffffffffffffffff168152602001600073ffffffffffffffffffffffffffffffffffffffff168152602001600073ffffffffffffffffffffffffffffffffffffffff16815260200160008152602001600061ffff168152602001600067ffffffffffffffff168152602001600067ffffffffffffffff1681526020016000815260200160008152602001600067ffffffffffffffff168152602001600067ffffffffffffffff16815260200160006005811115610f8d57fe5b815250905600a165627a7a72305820a6bac94d4ddf5138fd52f6341ad97867a2c32e715cd3c94cbd4a6de4921a39f30029",
  "source": "pragma solidity ^0.4.17;\n\nimport \"./InvestorLedger.sol\";\nimport \"../tokens/IToken.sol\";\n\n\ncontract Loan {\n    using InvestorLedger for InvestorLedger.Ledger;\n    InvestorLedger.Ledger ledger;   \n\n    function Loan(\n        //IAtestor _atestator,\n        IToken _collateralToken,\n        IToken _loanToken,\n        address _borrower,\n        uint256 _amountWanted,\n        uint16  _interestPermil,\n        uint64 _fundraisingDeadline,\n        uint64 _paybackDeadline\n    ) public\n    {\n        require(_amountWanted > 0);\n        \n        ledger = InvestorLedger.openAccount(\n            _collateralToken,\n            _loanToken,\n            _borrower,\n            _amountWanted,\n            _interestPermil,\n            _fundraisingDeadline,\n            _paybackDeadline\n        );\n    }\n\n    // View functions that directly return InvestorLedger data.\n\n    function collateralToken() view public returns (IToken _tokenAddress) {\n        return ledger.collateralToken;\n    }\n\n    function loanToken() view public returns (IToken _tokenAddress) {\n        return ledger.loanToken;\n    }\n\n    function amountWanted() view public returns (uint256 _amountWanted) {\n        return ledger.amountWanted;\n    }\n\n    function borrower() view public returns (address _borrower) {\n        return ledger.borrower;\n    }\n\n    function interestPermil() view public returns (uint16 _interestPermil) {\n        return ledger.interestPermil;\n    }\n\n    function state() public returns (uint256 _state) {\n        ledger.processTimeouts();\n        return uint256(ledger.state);\n    }\n\n    function paybackRequired() view public returns (uint256 _totalPayback) {\n        return ledger.paybackRequired();\n    }\n\n    function totalAmountInvested() view public returns (uint256 _totalAmount) {\n        return ledger.totalAmountInvested;\n    }\n\n    function amountInvested(address investor) view public returns (uint256 _amount) {\n        return ledger.amountInvested(investor);\n    }\n\n    function fundraisingDeadline() view public returns (uint64 _fundraisingDeadline) {\n        return ledger.fundraisingDeadline;\n    }\n\n    function paybackDeadline() view public returns (uint64 _paybackDeadline) {\n        return ledger.paybackDeadline;\n    }\n\n    function fundraisingDelta() view public returns (uint64 _fundraisingDelta) {\n        return ledger.fundraisingDelta;\n    }\n\n    function paybackDelta() view public returns (uint64 _paybackDelta) {\n        return ledger.paybackDelta;\n    }\n\n    function receivedCollateral() view public returns (uint256 _amount) {\n        return ledger.receivedCollateral;\n    }\n\n    // Three explicit state changing functions. All of them call their\n    // respective ledger process functions, and then process any further new\n    // state that can arise and that might not require funds to be sent (ie.\n    // process a cancelement, default or post-payback condition).\n\n    // gatherCollateral should be called by the the borrower to submit the\n    // collateral for the loan.\n    function gatherCollateral() public {\n        ledger.collateralCollectionProcess(msg.sender);\n    }\n\n    // invest should be called by an investor to submit an investment. It can\n    // also advance the state to either payback (no further processing\n    // necessary) or canceled (state needs to be processed to send investments\n    // back).\n    function invest() public {\n        ledger.fundraisingProcess(msg.sender);\n    }\n\n    // payback should be called by the borrower to submit the loan payback. It\n    // can also advance the state to either paidback (needs processing to send\n    // investment and collateral back) or defaulted (needs processing to send\n    // collateral back to investors).\n    function payback() public {\n        ledger.paybackProcess(msg.sender);\n    }\n\n    // withdrawable can be called by investors and the borrower at any point ti\n    // see if they can either withdraw some loan tokens or collateral tokens.\n    function withdrawable() public returns (uint256 _loanAmount, uint256 _collateralAmount) {\n        _loanAmount = ledger.canWithdrawLoanToken(msg.sender);\n        _collateralAmount = ledger.canWithdrawCollateralToken(msg.sender);\n    }\n\n    // withdraw can be called by investors and borrowers at any point to\n    // execute pending withdrawals.\n    function withdraw() public {\n        ledger.withdraw(msg.sender);\n    }\n}\n",
  "sourcePath": "/home/q3k/Work/getline/getline/dapp/contracts/loans/Loan.sol",
  "compiler": {
    "name": "solc",
    "version": "0.4.18+commit.9cf6e910.Emscripten.clang"
  },
  "schemaVersion": "1.0.1",
  "updatedAt": "2018-01-09T11:59:18.056Z"
}