{
  "contractName": "Loan",
  "abi": [
    {
      "constant": true,
      "inputs": [],
      "name": "fundraisingDeadline",
      "outputs": [
        {
          "name": "_fundraisingDeadline",
          "type": "uint64"
        }
      ],
      "payable": false,
      "stateMutability": "view",
      "type": "function"
    },
    {
      "constant": true,
      "inputs": [],
      "name": "loanToken",
      "outputs": [
        {
          "name": "_tokenAddress",
          "type": "address"
        }
      ],
      "payable": false,
      "stateMutability": "view",
      "type": "function"
    },
    {
      "constant": false,
      "inputs": [],
      "name": "poke",
      "outputs": [
        {
          "name": "_newState",
          "type": "uint256"
        }
      ],
      "payable": false,
      "stateMutability": "nonpayable",
      "type": "function"
    },
    {
      "constant": true,
      "inputs": [],
      "name": "paybackRequired",
      "outputs": [
        {
          "name": "_totalPayback",
          "type": "uint256"
        }
      ],
      "payable": false,
      "stateMutability": "view",
      "type": "function"
    },
    {
      "constant": true,
      "inputs": [],
      "name": "fundraisingDelta",
      "outputs": [
        {
          "name": "_fundraisingDelta",
          "type": "uint64"
        }
      ],
      "payable": false,
      "stateMutability": "view",
      "type": "function"
    },
    {
      "constant": true,
      "inputs": [
        {
          "name": "investor",
          "type": "address"
        }
      ],
      "name": "amountInvested",
      "outputs": [
        {
          "name": "_amount",
          "type": "uint256"
        }
      ],
      "payable": false,
      "stateMutability": "view",
      "type": "function"
    },
    {
      "constant": true,
      "inputs": [],
      "name": "paybackDelta",
      "outputs": [
        {
          "name": "_paybackDelta",
          "type": "uint64"
        }
      ],
      "payable": false,
      "stateMutability": "view",
      "type": "function"
    },
    {
      "constant": true,
      "inputs": [],
      "name": "borrower",
      "outputs": [
        {
          "name": "_borrower",
          "type": "address"
        }
      ],
      "payable": false,
      "stateMutability": "view",
      "type": "function"
    },
    {
      "constant": false,
      "inputs": [],
      "name": "payback",
      "outputs": [],
      "payable": false,
      "stateMutability": "nonpayable",
      "type": "function"
    },
    {
      "constant": true,
      "inputs": [],
      "name": "interestPermil",
      "outputs": [
        {
          "name": "_interestPermil",
          "type": "uint16"
        }
      ],
      "payable": false,
      "stateMutability": "view",
      "type": "function"
    },
    {
      "constant": true,
      "inputs": [],
      "name": "paybackDeadline",
      "outputs": [
        {
          "name": "_paybackDeadline",
          "type": "uint64"
        }
      ],
      "payable": false,
      "stateMutability": "view",
      "type": "function"
    },
    {
      "constant": true,
      "inputs": [],
      "name": "collateralToken",
      "outputs": [
        {
          "name": "_tokenAddress",
          "type": "address"
        }
      ],
      "payable": false,
      "stateMutability": "view",
      "type": "function"
    },
    {
      "constant": true,
      "inputs": [],
      "name": "receivedCollateral",
      "outputs": [
        {
          "name": "_amount",
          "type": "uint256"
        }
      ],
      "payable": false,
      "stateMutability": "view",
      "type": "function"
    },
    {
      "constant": true,
      "inputs": [],
      "name": "state",
      "outputs": [
        {
          "name": "_state",
          "type": "uint256"
        }
      ],
      "payable": false,
      "stateMutability": "view",
      "type": "function"
    },
    {
      "constant": true,
      "inputs": [],
      "name": "amountWanted",
      "outputs": [
        {
          "name": "_amountWanted",
          "type": "uint256"
        }
      ],
      "payable": false,
      "stateMutability": "view",
      "type": "function"
    },
    {
      "constant": false,
      "inputs": [],
      "name": "invest",
      "outputs": [],
      "payable": false,
      "stateMutability": "nonpayable",
      "type": "function"
    },
    {
      "constant": false,
      "inputs": [],
      "name": "gatherCollateral",
      "outputs": [],
      "payable": false,
      "stateMutability": "nonpayable",
      "type": "function"
    },
    {
      "constant": true,
      "inputs": [],
      "name": "totalAmountInvested",
      "outputs": [
        {
          "name": "_totalAmount",
          "type": "uint256"
        }
      ],
      "payable": false,
      "stateMutability": "view",
      "type": "function"
    },
    {
      "inputs": [
        {
          "name": "_collateralToken",
          "type": "address"
        },
        {
          "name": "_loanToken",
          "type": "address"
        },
        {
          "name": "_borrower",
          "type": "address"
        },
        {
          "name": "_amountWanted",
          "type": "uint256"
        },
        {
          "name": "_interestPermil",
          "type": "uint16"
        },
        {
          "name": "_fundraisingDeadline",
          "type": "uint64"
        },
        {
          "name": "_paybackDeadline",
          "type": "uint64"
        }
      ],
      "payable": false,
      "stateMutability": "nonpayable",
      "type": "constructor"
    }
  ],
  "bytecode": "0x606060405234156200001057600080fd5b60405160e0806200197c833981016040528080519060200190919080519060200190919080519060200190919080519060200190919080519060200190919080519060200190919080519060200190919050506000841115156200007357600080fd5b6200009887878787878787620002be6401000000000262000f7d176401000000009004565b6000808201518160000160006101000a81548173ffffffffffffffffffffffffffffffffffffffff021916908373ffffffffffffffffffffffffffffffffffffffff16021790555060208201518160010160006101000a81548173ffffffffffffffffffffffffffffffffffffffff021916908373ffffffffffffffffffffffffffffffffffffffff16021790555060408201518160020160006101000a81548173ffffffffffffffffffffffffffffffffffffffff021916908373ffffffffffffffffffffffffffffffffffffffff1602179055506060820151816003015560808201518160040160006101000a81548161ffff021916908361ffff16021790555060a08201518160040160026101000a81548167ffffffffffffffff021916908367ffffffffffffffff16021790555060c082015181600401600a6101000a81548167ffffffffffffffff021916908367ffffffffffffffff16021790555060e0820151816005015561010082015181600601908051906020019062000222929190620004e4565b506101208201518160080160006101000a81548167ffffffffffffffff021916908367ffffffffffffffff1602179055506101408201518160080160086101000a81548167ffffffffffffffff021916908367ffffffffffffffff1602179055506101608201518160080160106101000a81548160ff02191690836006811115620002a957fe5b021790555090505050505050505050620006b1565b620002c862000573565b60008367ffffffffffffffff16111515620002e257600080fd5b60008267ffffffffffffffff16111515620002fc57600080fd5b6000851115156200030c57600080fd5b428267ffffffffffffffff168467ffffffffffffffff164201011115156200033357600080fd5b8267ffffffffffffffff1642018267ffffffffffffffff168467ffffffffffffffff164201011115156200036657600080fd5b87816000019073ffffffffffffffffffffffffffffffffffffffff16908173ffffffffffffffffffffffffffffffffffffffff168152505086816020019073ffffffffffffffffffffffffffffffffffffffff16908173ffffffffffffffffffffffffffffffffffffffff16815250508481606001818152505083816080019061ffff16908161ffff168152505085816040019073ffffffffffffffffffffffffffffffffffffffff16908173ffffffffffffffffffffffffffffffffffffffff1681525050600081610160019060068111156200044057fe5b908160068111156200044e57fe5b81525050828160a0019067ffffffffffffffff16908167ffffffffffffffff1681525050818160c0019067ffffffffffffffff16908167ffffffffffffffff1681525050600081610120019067ffffffffffffffff16908167ffffffffffffffff1681525050600081610140019067ffffffffffffffff16908167ffffffffffffffff1681525050809050979650505050505050565b82805482825590600052602060002090810192821562000560579160200282015b828111156200055f5782518260006101000a81548173ffffffffffffffffffffffffffffffffffffffff021916908373ffffffffffffffffffffffffffffffffffffffff1602179055509160200191906001019062000505565b5b5090506200056f919062000657565b5090565b61018060405190810160405280600073ffffffffffffffffffffffffffffffffffffffff168152602001600073ffffffffffffffffffffffffffffffffffffffff168152602001600073ffffffffffffffffffffffffffffffffffffffff16815260200160008152602001600061ffff168152602001600067ffffffffffffffff168152602001600067ffffffffffffffff168152602001600081526020016200061c6200069d565b8152602001600067ffffffffffffffff168152602001600067ffffffffffffffff168152602001600060068111156200065157fe5b81525090565b6200069a91905b808211156200069657600081816101000a81549073ffffffffffffffffffffffffffffffffffffffff0219169055506001016200065e565b5090565b90565b602060405190810160405280600081525090565b6112bb80620006c16000396000f3006060604052600436106100fc576000357c0100000000000000000000000000000000000000000000000000000000900463ffffffff16806306a9d1a91461010157806306d378171461013e57806318178358146101935780631cd30149146101bc57806325e629f2146101e55780633c3d3af61461022257806377f272511461026f5780637df1f1b9146102ac578063854bec871461030157806386f5bf8814610316578063a36be9a114610347578063b2016bd414610384578063b9ba2926146103d9578063c19d93fb14610402578063ca5f42821461042b578063e8b5e51f14610454578063f5caccad14610469578063f6724a551461047e575b600080fd5b341561010c57600080fd5b6101146104a7565b604051808267ffffffffffffffff1667ffffffffffffffff16815260200191505060405180910390f35b341561014957600080fd5b6101516104c7565b604051808273ffffffffffffffffffffffffffffffffffffffff1673ffffffffffffffffffffffffffffffffffffffff16815260200191505060405180910390f35b341561019e57600080fd5b6101a66104f3565b6040518082815260200191505060405180910390f35b34156101c757600080fd5b6101cf610831565b6040518082815260200191505060405180910390f35b34156101f057600080fd5b6101f86108c8565b604051808267ffffffffffffffff1667ffffffffffffffff16815260200191505060405180910390f35b341561022d57600080fd5b610259600480803573ffffffffffffffffffffffffffffffffffffffff169060200190919050506108e8565b6040518082815260200191505060405180910390f35b341561027a57600080fd5b6102826109b5565b604051808267ffffffffffffffff1667ffffffffffffffff16815260200191505060405180910390f35b34156102b757600080fd5b6102bf6109d5565b604051808273ffffffffffffffffffffffffffffffffffffffff1673ffffffffffffffffffffffffffffffffffffffff16815260200191505060405180910390f35b341561030c57600080fd5b610314610a01565b005b341561032157600080fd5b610329610c23565b604051808261ffff1661ffff16815260200191505060405180910390f35b341561035257600080fd5b61035a610c3d565b604051808267ffffffffffffffff1667ffffffffffffffff16815260200191505060405180910390f35b341561038f57600080fd5b610397610c5d565b604051808273ffffffffffffffffffffffffffffffffffffffff1673ffffffffffffffffffffffffffffffffffffffff16815260200191505060405180910390f35b34156103e457600080fd5b6103ec610c89565b6040518082815260200191505060405180910390f35b341561040d57600080fd5b610415610c95565b6040518082815260200191505060405180910390f35b341561043657600080fd5b61043e610cb9565b6040518082815260200191505060405180910390f35b341561045f57600080fd5b610467610cc5565b005b341561047457600080fd5b61047c610e2f565b005b341561048957600080fd5b610491610ee6565b6040518082815260200191505060405180910390f35b60008060080160009054906101000a900467ffffffffffffffff16905090565b60008060010160009054906101000a900473ffffffffffffffffffffffffffffffffffffffff16905090565b60006001600681111561050257fe5b600060080160109054906101000a900460ff16600681111561052057fe5b14156105cb57600073__InvestorLedger________________________63dc93f39a909160006040518363ffffffff167c0100000000000000000000000000000000000000000000000000000000028152600401808381526020018273ffffffffffffffffffffffffffffffffffffffff1681526020019250505060006040518083038186803b15156105b257600080fd5b6102c65a03f415156105c357600080fd5b50505061080e565b600260068111156105d857fe5b600060080160109054906101000a900460ff1660068111156105f657fe5b14156106a157600073__InvestorLedger________________________63e491b058909160006040518363ffffffff167c0100000000000000000000000000000000000000000000000000000000028152600401808381526020018273ffffffffffffffffffffffffffffffffffffffff1681526020019250505060006040518083038186803b151561068857600080fd5b6102c65a03f4151561069957600080fd5b50505061080d565b600360068111156106ae57fe5b600060080160109054906101000a900460ff1660068111156106cc57fe5b141561075857600073__InvestorLedger________________________63debebcd290916040518263ffffffff167c01000000000000000000000000000000000000000000000000000000000281526004018082815260200191505060006040518083038186803b151561073f57600080fd5b6102c65a03f4151561075057600080fd5b50505061080c565b6005600681111561076557fe5b600060080160109054906101000a900460ff16600681111561078357fe5b141561080b57600073__InvestorLedger________________________6384b9cf7790916040518263ffffffff167c01000000000000000000000000000000000000000000000000000000000281526004018082815260200191505060006040518083038186803b15156107f657600080fd5b6102c65a03f4151561080757600080fd5b5050505b5b5b5b600060080160109054906101000a900460ff16600681111561082c57fe5b905090565b60008073__InvestorLedger________________________638cf388d890916000604051602001526040518263ffffffff167c01000000000000000000000000000000000000000000000000000000000281526004018082815260200191505060206040518083038186803b15156108a857600080fd5b6102c65a03f415156108b957600080fd5b50505060405180519050905090565b60008060040160029054906101000a900467ffffffffffffffff16905090565b60008073__InvestorLedger________________________6343a2e1b09091846000604051602001526040518363ffffffff167c0100000000000000000000000000000000000000000000000000000000028152600401808381526020018273ffffffffffffffffffffffffffffffffffffffff1673ffffffffffffffffffffffffffffffffffffffff1681526020019250505060206040518083038186803b151561099357600080fd5b6102c65a03f415156109a457600080fd5b505050604051805190509050919050565b600080600401600a9054906101000a900467ffffffffffffffff16905090565b60008060020160009054906101000a900473ffffffffffffffffffffffffffffffffffffffff16905090565b600073__InvestorLedger________________________63e491b0589091336040518363ffffffff167c0100000000000000000000000000000000000000000000000000000000028152600401808381526020018273ffffffffffffffffffffffffffffffffffffffff1673ffffffffffffffffffffffffffffffffffffffff1681526020019250505060006040518083038186803b1515610aa257600080fd5b6102c65a03f41515610ab357600080fd5b50505060036006811115610ac357fe5b600060080160109054906101000a900460ff166006811115610ae157fe5b1415610b6d57600073__InvestorLedger________________________63debebcd290916040518263ffffffff167c01000000000000000000000000000000000000000000000000000000000281526004018082815260200191505060006040518083038186803b1515610b5457600080fd5b6102c65a03f41515610b6557600080fd5b505050610c21565b60046006811115610b7a57fe5b600060080160109054906101000a900460ff166006811115610b9857fe5b1415610c2057600073__InvestorLedger________________________63365860be90916040518263ffffffff167c01000000000000000000000000000000000000000000000000000000000281526004018082815260200191505060006040518083038186803b1515610c0b57600080fd5b6102c65a03f41515610c1c57600080fd5b5050505b5b565b60008060040160009054906101000a900461ffff16905090565b60008060080160089054906101000a900467ffffffffffffffff16905090565b60008060000160009054906101000a900473ffffffffffffffffffffffffffffffffffffffff16905090565b60008060050154905090565b60008060080160109054906101000a900460ff166006811115610cb457fe5b905090565b60008060030154905090565b600073__InvestorLedger________________________63dc93f39a9091336040518363ffffffff167c0100000000000000000000000000000000000000000000000000000000028152600401808381526020018273ffffffffffffffffffffffffffffffffffffffff1673ffffffffffffffffffffffffffffffffffffffff1681526020019250505060006040518083038186803b1515610d6657600080fd5b6102c65a03f41515610d7757600080fd5b50505060056006811115610d8757fe5b600060080160109054906101000a900460ff166006811115610da557fe5b1415610e2d57600073__InvestorLedger________________________6384b9cf7790916040518263ffffffff167c01000000000000000000000000000000000000000000000000000000000281526004018082815260200191505060006040518083038186803b1515610e1857600080fd5b6102c65a03f41515610e2957600080fd5b5050505b565b600073__InvestorLedger________________________636a64cb029091336040518363ffffffff167c0100000000000000000000000000000000000000000000000000000000028152600401808381526020018273ffffffffffffffffffffffffffffffffffffffff1673ffffffffffffffffffffffffffffffffffffffff1681526020019250505060006040518083038186803b1515610ed057600080fd5b6102c65a03f41515610ee157600080fd5b505050565b60008073__InvestorLedger________________________6388b8da9c90916000604051602001526040518263ffffffff167c01000000000000000000000000000000000000000000000000000000000281526004018082815260200191505060206040518083038186803b1515610f5d57600080fd5b6102c65a03f41515610f6e57600080fd5b50505060405180519050905090565b610f8561119a565b60008367ffffffffffffffff16111515610f9e57600080fd5b60008267ffffffffffffffff16111515610fb757600080fd5b600085111515610fc657600080fd5b428267ffffffffffffffff168467ffffffffffffffff16420101111515610fec57600080fd5b8267ffffffffffffffff1642018267ffffffffffffffff168467ffffffffffffffff1642010111151561101e57600080fd5b87816000019073ffffffffffffffffffffffffffffffffffffffff16908173ffffffffffffffffffffffffffffffffffffffff168152505086816020019073ffffffffffffffffffffffffffffffffffffffff16908173ffffffffffffffffffffffffffffffffffffffff16815250508481606001818152505083816080019061ffff16908161ffff168152505085816040019073ffffffffffffffffffffffffffffffffffffffff16908173ffffffffffffffffffffffffffffffffffffffff1681525050600081610160019060068111156110f757fe5b9081600681111561110457fe5b81525050828160a0019067ffffffffffffffff16908167ffffffffffffffff1681525050818160c0019067ffffffffffffffff16908167ffffffffffffffff1681525050600081610120019067ffffffffffffffff16908167ffffffffffffffff1681525050600081610140019067ffffffffffffffff16908167ffffffffffffffff1681525050809050979650505050505050565b61018060405190810160405280600073ffffffffffffffffffffffffffffffffffffffff168152602001600073ffffffffffffffffffffffffffffffffffffffff168152602001600073ffffffffffffffffffffffffffffffffffffffff16815260200160008152602001600061ffff168152602001600067ffffffffffffffff168152602001600067ffffffffffffffff1681526020016000815260200161124161127b565b8152602001600067ffffffffffffffff168152602001600067ffffffffffffffff1681526020016000600681111561127557fe5b81525090565b6020604051908101604052806000815250905600a165627a7a72305820416ecc724cb3533363f5cf2cee58fd087098a0bc9f02595029ad09d212e9f0470029",
  "source": "pragma solidity ^0.4.17;\n\nimport \"./InvestorLedger.sol\";\nimport \"../tokens/IToken.sol\";\n\n\ncontract Loan {\n    using InvestorLedger for InvestorLedger.Ledger;\n    InvestorLedger.Ledger ledger;   \n\n\n    function Loan(\n        //IAtestor _atestator,\n        IToken _collateralToken,\n        IToken _loanToken,\n        address _borrower,\n        uint256 _amountWanted,\n        uint16  _interestPermil,\n        uint64 _fundraisingDeadline,\n        uint64 _paybackDeadline\n    ) public {\n        require(_amountWanted > 0);\n        \n        ledger = InvestorLedger.openAccount(\n            _collateralToken,\n            _loanToken,\n            _borrower,\n            _amountWanted,\n            _interestPermil,\n            _fundraisingDeadline,\n            _paybackDeadline\n        );\n    }\n\n    // View functions that directly return InvestorLedger data.\n\n    function collateralToken() view public returns (IToken _tokenAddress) {\n        return ledger.collateralToken;\n    }\n\n    function loanToken() view public returns (IToken _tokenAddress) {\n        return ledger.loanToken;\n    }\n\n    function amountWanted() view public returns (uint256 _amountWanted) {\n        return ledger.amountWanted;\n    }\n\n    function borrower() view public returns (address _borrower) {\n        return ledger.borrower;\n    }\n\n    function interestPermil() view public returns (uint16 _interestPermil) {\n        return ledger.interestPermil;\n    }\n\n    function state() view public returns (uint256 _state) {\n        return uint256(ledger.state);\n    }\n\n    function paybackRequired() view public returns (uint256 _totalPayback) {\n        return ledger.paybackRequired();\n    }\n\n    function totalAmountInvested() view public returns (uint256 _totalAmount) {\n        return ledger.totalAmountInvested();\n    }\n\n    function amountInvested(address investor) view public returns (uint256 _amount) {\n        return ledger.amountInvested(investor);\n    }\n\n    function fundraisingDeadline() view public returns (uint64 _fundraisingDeadline) {\n        return ledger.fundraisingDeadline;\n    }\n\n    function paybackDeadline() view public returns (uint64 _paybackDeadline) {\n        return ledger.paybackDeadline;\n    }\n\n    function fundraisingDelta() view public returns (uint64 _fundraisingDelta) {\n        return ledger.fundraisingDelta;\n    }\n\n    function paybackDelta() view public returns (uint64 _paybackDelta) {\n        return ledger.paybackDelta;\n    }\n\n    function receivedCollateral() view public returns (uint256 _amount) {\n        return ledger.receivedCollateral;\n    }\n\n\n    // Three explicit state changing functions. All of them call their\n    // respective ledger process functions, and then process any further new\n    // state that can arise and that might not require funds to be sent (ie.\n    // process a cancelement, default or post-payback condition).\n\n    // gatherCollateral should be called by the the borrower to submit the\n    // collateral for the loan.\n    function gatherCollateral() public {\n        ledger.collateralCollectionProcess(msg.sender);\n    }\n\n    // invest should be called by an investor to submit an investment. It can\n    // also advance the state to either payback (no further processing\n    // necessary) or canceled (state needs to be processed to send investments\n    // back).\n    function invest() public {\n        ledger.fundraisingProcess(msg.sender);\n        if (ledger.state == InvestorLedger.State.Canceled) {\n            ledger.canceledProcess();\n        }\n    }\n\n    // payback should be called by the borrower to submit the loan payback. It\n    // can also advance the state to either paidback (needs processing to send\n    // investment and collateral back) or defaulted (needs processing to send\n    // collateral back to investors).\n    function payback() public {\n        ledger.paybackProcess(msg.sender);\n        if (ledger.state == InvestorLedger.State.Paidback) {\n            ledger.paidbackProcess();\n        } else  if (ledger.state == InvestorLedger.State.Defaulted) {\n            ledger.defaultedProcess();\n        }\n    }\n\n    // poke advances the state if possible. This can be called by clients to\n    // see if a timeout occured but hasen't been processed yet.\n    function poke() public returns (uint256 _newState) {\n        // We do not want to simulate if we act as an user, so let's tell the\n        // contract that we are address 0x0 - which should not have any loans\n        // approved for the contract and thus cannot influence state changes\n        // other than by timeouts.\n        if (ledger.state == InvestorLedger.State.Fundraising) {\n            ledger.fundraisingProcess(0x0);\n        } else if (ledger.state == InvestorLedger.State.Payback) {\n            ledger.paybackProcess(0x0);\n        }\n        // These two shouldn't happen (we advance them as soon as we see them\n        // in invest()/payback(), but let's allow for them anyway.\n        else if (ledger.state == InvestorLedger.State.Paidback) {\n            ledger.paidbackProcess();\n        } else if (ledger.state == InvestorLedger.State.Canceled) {\n            ledger.canceledProcess();\n        }\n        return uint256(ledger.state);\n    }\n}\n",
  "sourcePath": "/home/q3k/Work/getline/getline/dapp/contracts/loans/Loan.sol",
  "compiler": {
    "name": "solc",
    "version": "0.4.18+commit.9cf6e910.Emscripten.clang"
  },
  "schemaVersion": "1.0.1",
  "updatedAt": "2018-01-06T12:58:22.819Z"
}