{
  "contractName": "Loan",
  "abi": [
    {
      "constant": true,
      "inputs": [],
      "name": "fundraisingDeadline",
      "outputs": [
        {
          "name": "",
          "type": "uint256"
        }
      ],
      "payable": false,
      "stateMutability": "view",
      "type": "function"
    },
    {
      "constant": true,
      "inputs": [],
      "name": "currentState",
      "outputs": [
        {
          "name": "",
          "type": "uint8"
        }
      ],
      "payable": false,
      "stateMutability": "view",
      "type": "function"
    },
    {
      "constant": false,
      "inputs": [],
      "name": "widthrawInvestment",
      "outputs": [],
      "payable": false,
      "stateMutability": "nonpayable",
      "type": "function"
    },
    {
      "constant": true,
      "inputs": [],
      "name": "amountGathered",
      "outputs": [
        {
          "name": "_totalAmount",
          "type": "uint256"
        }
      ],
      "payable": false,
      "stateMutability": "view",
      "type": "function"
    },
    {
      "constant": true,
      "inputs": [],
      "name": "isFundraising",
      "outputs": [
        {
          "name": "_isFundraising",
          "type": "bool"
        }
      ],
      "payable": false,
      "stateMutability": "view",
      "type": "function"
    },
    {
      "constant": true,
      "inputs": [],
      "name": "borrower",
      "outputs": [
        {
          "name": "_borrower",
          "type": "address"
        }
      ],
      "payable": false,
      "stateMutability": "view",
      "type": "function"
    },
    {
      "constant": false,
      "inputs": [],
      "name": "payback",
      "outputs": [],
      "payable": false,
      "stateMutability": "nonpayable",
      "type": "function"
    },
    {
      "constant": true,
      "inputs": [],
      "name": "interestPermil",
      "outputs": [
        {
          "name": "_interestPermil",
          "type": "uint16"
        }
      ],
      "payable": false,
      "stateMutability": "view",
      "type": "function"
    },
    {
      "constant": true,
      "inputs": [],
      "name": "isPaidback",
      "outputs": [
        {
          "name": "_isPaidback",
          "type": "bool"
        }
      ],
      "payable": false,
      "stateMutability": "view",
      "type": "function"
    },
    {
      "constant": true,
      "inputs": [],
      "name": "paybackDeadline",
      "outputs": [
        {
          "name": "",
          "type": "uint256"
        }
      ],
      "payable": false,
      "stateMutability": "view",
      "type": "function"
    },
    {
      "constant": true,
      "inputs": [],
      "name": "isDefaulted",
      "outputs": [
        {
          "name": "_isDefaulted",
          "type": "bool"
        }
      ],
      "payable": false,
      "stateMutability": "view",
      "type": "function"
    },
    {
      "constant": true,
      "inputs": [],
      "name": "collateralToken",
      "outputs": [
        {
          "name": "tokenAddress",
          "type": "address"
        }
      ],
      "payable": false,
      "stateMutability": "view",
      "type": "function"
    },
    {
      "constant": true,
      "inputs": [],
      "name": "fundraisingBlocksCount",
      "outputs": [
        {
          "name": "",
          "type": "uint256"
        }
      ],
      "payable": false,
      "stateMutability": "view",
      "type": "function"
    },
    {
      "constant": false,
      "inputs": [],
      "name": "withdrawLoan",
      "outputs": [],
      "payable": false,
      "stateMutability": "nonpayable",
      "type": "function"
    },
    {
      "constant": true,
      "inputs": [],
      "name": "borrowedToken",
      "outputs": [
        {
          "name": "tokenAddress",
          "type": "address"
        }
      ],
      "payable": false,
      "stateMutability": "view",
      "type": "function"
    },
    {
      "constant": true,
      "inputs": [],
      "name": "amountWanted",
      "outputs": [
        {
          "name": "_amountWanted",
          "type": "uint256"
        }
      ],
      "payable": false,
      "stateMutability": "view",
      "type": "function"
    },
    {
      "constant": false,
      "inputs": [],
      "name": "invest",
      "outputs": [],
      "payable": false,
      "stateMutability": "nonpayable",
      "type": "function"
    },
    {
      "constant": false,
      "inputs": [],
      "name": "gatherCollateral",
      "outputs": [],
      "payable": false,
      "stateMutability": "nonpayable",
      "type": "function"
    },
    {
      "constant": true,
      "inputs": [],
      "name": "paybackBlocksCount",
      "outputs": [
        {
          "name": "",
          "type": "uint256"
        }
      ],
      "payable": false,
      "stateMutability": "view",
      "type": "function"
    },
    {
      "inputs": [
        {
          "name": "_collateralToken",
          "type": "address"
        },
        {
          "name": "_loanToken",
          "type": "address"
        },
        {
          "name": "_liege",
          "type": "address"
        },
        {
          "name": "_amountWanted",
          "type": "uint256"
        },
        {
          "name": "_interestPermil",
          "type": "uint16"
        },
        {
          "name": "_fundraisingBlocksCount",
          "type": "uint256"
        },
        {
          "name": "_paybackBlocksCount",
          "type": "uint256"
        }
      ],
      "payable": false,
      "stateMutability": "nonpayable",
      "type": "constructor"
    },
    {
      "anonymous": false,
      "inputs": [
        {
          "indexed": true,
          "name": "liege",
          "type": "address"
        }
      ],
      "name": "FundraisingBegins",
      "type": "event"
    },
    {
      "anonymous": false,
      "inputs": [
        {
          "indexed": true,
          "name": "liege",
          "type": "address"
        },
        {
          "indexed": true,
          "name": "trustee",
          "type": "address"
        }
      ],
      "name": "NewInvestment",
      "type": "event"
    },
    {
      "anonymous": false,
      "inputs": [
        {
          "indexed": true,
          "name": "liege",
          "type": "address"
        }
      ],
      "name": "FundraisingSucessfull",
      "type": "event"
    },
    {
      "anonymous": false,
      "inputs": [
        {
          "indexed": true,
          "name": "liege",
          "type": "address"
        }
      ],
      "name": "FundraisingFailed",
      "type": "event"
    },
    {
      "anonymous": false,
      "inputs": [
        {
          "indexed": true,
          "name": "liege",
          "type": "address"
        }
      ],
      "name": "LoanPaidback",
      "type": "event"
    },
    {
      "anonymous": false,
      "inputs": [
        {
          "indexed": true,
          "name": "liege",
          "type": "address"
        }
      ],
      "name": "LoanDefaulted",
      "type": "event"
    }
  ],
  "bytecode": "0x6060604052600060025560006003556000600460006101000a81548160ff0219169083600381111561002d57fe5b0217905550341561003d57600080fd5b60405160e0806118ca833981016040528080519060200190919080519060200190919080519060200190919080519060200190919080519060200190919080519060200190919080519060200190919050506100af87878787876102676401000000000261130a176401000000009004565b600560008201518160000160006101000a81548173ffffffffffffffffffffffffffffffffffffffff021916908373ffffffffffffffffffffffffffffffffffffffff16021790555060208201518160010160006101000a81548173ffffffffffffffffffffffffffffffffffffffff021916908373ffffffffffffffffffffffffffffffffffffffff16021790555060408201518160020160006101000a81548173ffffffffffffffffffffffffffffffffffffffff021916908373ffffffffffffffffffffffffffffffffffffffff160217905550606082015181600301556080820151816004015560a08201518160050160006101000a81548161ffff021916908361ffff16021790555060c0820151816006015560e08201518160080155610100820151816009015561012082015181600a015561014082015181600b0160006101000a81548160ff02191690831515021790555061016082015181600b0160016101000a81548160ff02191690831515021790555061018082015181600b0160026101000a81548160ff0219169083151502179055509050508160008190555080600181905550505050505050506103f6565b61026f610341565b85816000019073ffffffffffffffffffffffffffffffffffffffff16908173ffffffffffffffffffffffffffffffffffffffff168152505084816020019073ffffffffffffffffffffffffffffffffffffffff16908173ffffffffffffffffffffffffffffffffffffffff168152505082816080018181525050818160a0019061ffff16908161ffff168152505083816040019073ffffffffffffffffffffffffffffffffffffffff16908173ffffffffffffffffffffffffffffffffffffffff168152505080905095945050505050565b6101a060405190810160405280600073ffffffffffffffffffffffffffffffffffffffff168152602001600073ffffffffffffffffffffffffffffffffffffffff168152602001600073ffffffffffffffffffffffffffffffffffffffff1681526020016000815260200160008152602001600061ffff168152602001600081526020016000815260200160008152602001600081526020016000151581526020016000151581526020016000151581525090565b6114c5806104056000396000f300606060405260043610610107576000357c0100000000000000000000000000000000000000000000000000000000900463ffffffff16806306a9d1a91461010c5780630c3f6acf146101355780632426493f1461016c578063385ac77114610181578063522c2178146101aa5780637df1f1b9146101d7578063854bec871461022c57806386f5bf8814610241578063875acfba14610272578063a36be9a11461029f578063a38aaa90146102c8578063b2016bd4146102f5578063b88b4ad51461034a578063c4c77e2514610373578063c710ccd614610388578063ca5f4282146103dd578063e8b5e51f14610406578063f5caccad1461041b578063ffabf9a814610430575b600080fd5b341561011757600080fd5b61011f610459565b6040518082815260200191505060405180910390f35b341561014057600080fd5b61014861045f565b6040518082600381111561015857fe5b60ff16815260200191505060405180910390f35b341561017757600080fd5b61017f610472565b005b341561018c57600080fd5b6101946105ec565b6040518082815260200191505060405180910390f35b34156101b557600080fd5b6101bd6105f9565b604051808215151515815260200191505060405180910390f35b34156101e257600080fd5b6101ea6106b6565b604051808273ffffffffffffffffffffffffffffffffffffffff1673ffffffffffffffffffffffffffffffffffffffff16815260200191505060405180910390f35b341561023757600080fd5b61023f6106e3565b005b341561024c57600080fd5b610254610855565b604051808261ffff1661ffff16815260200191505060405180910390f35b341561027d57600080fd5b61028561086f565b604051808215151515815260200191505060405180910390f35b34156102aa57600080fd5b6102b2610947565b6040518082815260200191505060405180910390f35b34156102d357600080fd5b6102db61094d565b604051808215151515815260200191505060405180910390f35b341561030057600080fd5b610308610a24565b604051808273ffffffffffffffffffffffffffffffffffffffff1673ffffffffffffffffffffffffffffffffffffffff16815260200191505060405180910390f35b341561035557600080fd5b61035d610a51565b6040518082815260200191505060405180910390f35b341561037e57600080fd5b610386610a57565b005b341561039357600080fd5b61039b610b9d565b604051808273ffffffffffffffffffffffffffffffffffffffff1673ffffffffffffffffffffffffffffffffffffffff16815260200191505060405180910390f35b34156103e857600080fd5b6103f0610bca565b6040518082815260200191505060405180910390f35b341561041157600080fd5b610419610bd7565b005b341561042657600080fd5b61042e610e6f565b005b341561043b57600080fd5b610443610fbf565b6040518082815260200191505060405180910390f35b60025481565b600460009054906101000a900460ff1681565b6001600381111561047f57fe5b600460009054906101000a900460ff16600381111561049a57fe5b1480156104a8575043600254105b156104ba576104b5610fc5565b6104ff565b600260038111156104c757fe5b600460009054906101000a900460ff1660038111156104e257fe5b1480156104f0575043600354105b156104fe576104fd6110d4565b5b5b600380600381111561050d57fe5b600460009054906101000a900460ff16600381111561052857fe5b14151561053457600080fd5b600573__InvestorLedger________________________6353942b029091336040518363ffffffff167c0100000000000000000000000000000000000000000000000000000000028152600401808381526020018273ffffffffffffffffffffffffffffffffffffffff1673ffffffffffffffffffffffffffffffffffffffff1681526020019250505060006040518083038186803b15156105d557600080fd5b6102c65a03f415156105e657600080fd5b50505050565b6000600560080154905090565b60006001600381111561060857fe5b600460009054906101000a900460ff16600381111561062357fe5b148015610631575043600254105b156106435761063e610fc5565b610688565b6002600381111561065057fe5b600460009054906101000a900460ff16600381111561066b57fe5b148015610679575043600354105b15610687576106866110d4565b5b5b6001600381111561069557fe5b600460009054906101000a900460ff1660038111156106b057fe5b14905090565b6000600560020160009054906101000a900473ffffffffffffffffffffffffffffffffffffffff16905090565b600160038111156106f057fe5b600460009054906101000a900460ff16600381111561070b57fe5b148015610719575043600254105b1561072b57610726610fc5565b610770565b6002600381111561073857fe5b600460009054906101000a900460ff16600381111561075357fe5b148015610761575043600354105b1561076f5761076e6110d4565b5b5b600280600381111561077e57fe5b600460009054906101000a900460ff16600381111561079957fe5b1415156107a557600080fd5b600573__InvestorLedger________________________63d47a243a90916040518263ffffffff167c01000000000000000000000000000000000000000000000000000000000281526004018082815260200191505060006040518083038186803b151561081257600080fd5b6102c65a03f4151561082357600080fd5b5050506003600460006101000a81548160ff0219169083600381111561084557fe5b02179055506108526111e3565b50565b60006005800160009054906101000a900461ffff16905090565b60006001600381111561087e57fe5b600460009054906101000a900460ff16600381111561089957fe5b1480156108a7575043600254105b156108b9576108b4610fc5565b6108fe565b600260038111156108c657fe5b600460009054906101000a900460ff1660038111156108e157fe5b1480156108ef575043600354105b156108fd576108fc6110d4565b5b5b60038081111561090a57fe5b600460009054906101000a900460ff16600381111561092557fe5b14801561094257506005600b0160019054906101000a900460ff16155b905090565b60035481565b60006001600381111561095c57fe5b600460009054906101000a900460ff16600381111561097757fe5b148015610985575043600254105b1561099757610992610fc5565b6109dc565b600260038111156109a457fe5b600460009054906101000a900460ff1660038111156109bf57fe5b1480156109cd575043600354105b156109db576109da6110d4565b5b5b6003808111156109e857fe5b600460009054906101000a900460ff166003811115610a0357fe5b148015610a1f57506005600b0160019054906101000a900460ff165b905090565b6000600560000160009054906101000a900473ffffffffffffffffffffffffffffffffffffffff16905090565b60005481565b60016003811115610a6457fe5b600460009054906101000a900460ff166003811115610a7f57fe5b148015610a8d575043600254105b15610a9f57610a9a610fc5565b610ae4565b60026003811115610aac57fe5b600460009054906101000a900460ff166003811115610ac757fe5b148015610ad5575043600354105b15610ae357610ae26110d4565b5b5b6002806003811115610af257fe5b600460009054906101000a900460ff166003811115610b0d57fe5b141515610b1957600080fd5b600573__InvestorLedger________________________6396d4a53890916040518263ffffffff167c01000000000000000000000000000000000000000000000000000000000281526004018082815260200191505060006040518083038186803b1515610b8657600080fd5b6102c65a03f41515610b9757600080fd5b50505050565b6000600560010160009054906101000a900473ffffffffffffffffffffffffffffffffffffffff16905090565b6000600560040154905090565b60016003811115610be457fe5b600460009054906101000a900460ff166003811115610bff57fe5b148015610c0d575043600254105b15610c1f57610c1a610fc5565b610c64565b60026003811115610c2c57fe5b600460009054906101000a900460ff166003811115610c4757fe5b148015610c55575043600354105b15610c6357610c626110d4565b5b5b6001806003811115610c7257fe5b600460009054906101000a900460ff166003811115610c8d57fe5b141515610c9957600080fd5b600573__InvestorLedger________________________630d7e4c279091336040518363ffffffff167c0100000000000000000000000000000000000000000000000000000000028152600401808381526020018273ffffffffffffffffffffffffffffffffffffffff1673ffffffffffffffffffffffffffffffffffffffff1681526020019250505060006040518083038186803b1515610d3a57600080fd5b6102c65a03f41515610d4b57600080fd5b5050503373ffffffffffffffffffffffffffffffffffffffff16600560020160009054906101000a900473ffffffffffffffffffffffffffffffffffffffff1673ffffffffffffffffffffffffffffffffffffffff167f44dd6835c3e7844115d380f7c1dd6082ad5a4231ec873985a11fcaf370c2348160405160405180910390a3600573__InvestorLedger________________________639b197bc490916000604051602001526040518263ffffffff167c01000000000000000000000000000000000000000000000000000000000281526004018082815260200191505060206040518083038186803b1515610e4357600080fd5b6102c65a03f41515610e5457600080fd5b5050506040518051905015610e6c57610e6b611271565b5b50565b6000806003811115610e7d57fe5b600460009054906101000a900460ff166003811115610e9857fe5b141515610ea457600080fd5b600573__InvestorLedger________________________63aa586fea90916040518263ffffffff167c01000000000000000000000000000000000000000000000000000000000281526004018082815260200191505060006040518083038186803b1515610f1157600080fd5b6102c65a03f41515610f2257600080fd5b5050506001600460006101000a81548160ff02191690836003811115610f4457fe5b02179055506000544301600281905550600560020160009054906101000a900473ffffffffffffffffffffffffffffffffffffffff1673ffffffffffffffffffffffffffffffffffffffff167fe8a4175c0c55b38116edd863f28855d5af500a0d2ad4df217ba5bf5a94b4ff4660405160405180910390a250565b60015481565b600573__InvestorLedger________________________630905979a90916040518263ffffffff167c01000000000000000000000000000000000000000000000000000000000281526004018082815260200191505060006040518083038186803b151561103257600080fd5b6102c65a03f4151561104357600080fd5b5050506003600460006101000a81548160ff0219169083600381111561106557fe5b0217905550600560020160009054906101000a900473ffffffffffffffffffffffffffffffffffffffff1673ffffffffffffffffffffffffffffffffffffffff167f2d7d63a3f6363a400f86dfab75def6477b6609fe5369c2a63c5e437941d80f4c60405160405180910390a2565b600573__InvestorLedger________________________63578bdfa890916040518263ffffffff167c01000000000000000000000000000000000000000000000000000000000281526004018082815260200191505060006040518083038186803b151561114157600080fd5b6102c65a03f4151561115257600080fd5b5050506003600460006101000a81548160ff0219169083600381111561117457fe5b0217905550600560020160009054906101000a900473ffffffffffffffffffffffffffffffffffffffff1673ffffffffffffffffffffffffffffffffffffffff167ff4e5cf42cbb1d0c6c91e16d925349feb6c5d970652f6ec77b1ff1262f7284cd560405160405180910390a2565b6003600460006101000a81548160ff0219169083600381111561120257fe5b0217905550600560020160009054906101000a900473ffffffffffffffffffffffffffffffffffffffff1673ffffffffffffffffffffffffffffffffffffffff167f3c1036d8e135b143151b235d86c485eef7bf99e4b66a1ea56a1839e90e006ab160405160405180910390a2565b60015443016003819055506002600460006101000a81548160ff0219169083600381111561129b57fe5b0217905550600560020160009054906101000a900473ffffffffffffffffffffffffffffffffffffffff1673ffffffffffffffffffffffffffffffffffffffff167fdca26b403a05652a5cb9004bc5f09efcd16e056c08d332d9612661b782c4ab0960405160405180910390a2565b6113126113e4565b85816000019073ffffffffffffffffffffffffffffffffffffffff16908173ffffffffffffffffffffffffffffffffffffffff168152505084816020019073ffffffffffffffffffffffffffffffffffffffff16908173ffffffffffffffffffffffffffffffffffffffff168152505082816080018181525050818160a0019061ffff16908161ffff168152505083816040019073ffffffffffffffffffffffffffffffffffffffff16908173ffffffffffffffffffffffffffffffffffffffff168152505080905095945050505050565b6101a060405190810160405280600073ffffffffffffffffffffffffffffffffffffffff168152602001600073ffffffffffffffffffffffffffffffffffffffff168152602001600073ffffffffffffffffffffffffffffffffffffffff1681526020016000815260200160008152602001600061ffff1681526020016000815260200160008152602001600081526020016000815260200160001515815260200160001515815260200160001515815250905600a165627a7a72305820afbdc3b508992ad484092d6164165613562127212156def8b53b3eb28e7bbe200029",
  "source": "pragma solidity ^0.4.11;\n\nimport \"./IAtestor.sol\";\nimport \"./InvestorLedger.sol\";\nimport \"../tokens/IToken.sol\";\n\n\ncontract Loan {\n    // Set only during begining phases and not changed afterwards\n    uint256 public fundraisingBlocksCount;\n    uint256 public paybackBlocksCount;\n\n    // Contract changing state\n    uint256 public fundraisingDeadline = 0;\n    uint256 public paybackDeadline = 0;\n    State   public currentState = State.CollateralCollection;\n    \n    using InvestorLedger for InvestorLedger.Ledger;\n    InvestorLedger.Ledger ledger;   \n\n    event FundraisingBegins(address indexed liege);\n    event NewInvestment(address indexed liege, address indexed trustee);\n    event FundraisingSucessfull(address indexed liege);\n    event FundraisingFailed(address indexed liege);\n    event LoanPaidback(address indexed liege);\n    event LoanDefaulted(address indexed liege);\n\n    modifier atState(State _state) {\n        require(currentState == _state);\n\n        _;\n    }\n\n    modifier timedTransitions() {\n        if (currentState == State.Fundraising && fundraisingDeadline < block.number) {\n            onFundraisingFail();\n        } else if (currentState == State.Payback && paybackDeadline < block.number) {\n            onPaybackFailure();\n        }\n\n        _;\n    }\n\n    function Loan(\n        //IAtestor _atestator,\n        IToken _collateralToken,\n        IToken _loanToken,\n        address _liege,\n        uint256 _amountWanted,\n        uint16  _interestPermil,\n        uint256 _fundraisingBlocksCount,\n        uint256 _paybackBlocksCount\n    ) {\n        //require(_atestator.isVerified(_liege));\n        \n        ledger = InvestorLedger.openAccount(\n            _collateralToken,\n            _loanToken,\n            _liege,\n            _amountWanted,\n            _interestPermil\n        );\n        \n        fundraisingBlocksCount = _fundraisingBlocksCount;\n        paybackBlocksCount = _paybackBlocksCount;\n    }\n\n    function collateralToken() constant returns (IToken tokenAddress) {\n        return ledger.collateralToken;\n    }\n\n    function borrowedToken() constant returns (IToken tokenAddress) {\n        return ledger.loanToken;\n    }\n\n    function amountWanted() constant returns (uint256 _amountWanted) {\n        return ledger.totalLoanNeeded;\n    }\n\n    function borrower() constant returns (address _borrower) {\n        return ledger.liege;\n    }\n\n    function interestPermil() constant returns (uint16 _interestPermil) {\n        return ledger.interestPermil;\n    }\n\n    function isFundraising() timedTransitions constant returns (bool _isFundraising) {\n        return currentState == State.Fundraising;\n    }\n\n    function isPaidback() timedTransitions constant returns (bool _isPaidback) {\n        return currentState == State.Finished && !ledger.loanDefaulted;\n    }\n\n    function isDefaulted() timedTransitions constant returns (bool _isDefaulted) {\n        return currentState == State.Finished && ledger.loanDefaulted;\n    }\n\n    function amountGathered() constant returns (uint256 _totalAmount) {\n        return ledger.totalAmountGathered;\n    }\n\n    function gatherCollateral() atState(State.CollateralCollection) {\n        ledger.gatherCollateral();\n\n        currentState = State.Fundraising;\n        fundraisingDeadline = block.number + fundraisingBlocksCount;\n\n        FundraisingBegins(ledger.liege);\n    }\n\n    function invest() timedTransitions atState(State.Fundraising) {\n        ledger.gatherInvestment(msg.sender);\n\n        NewInvestment(ledger.liege, msg.sender);\n\n        if (ledger.isFullyFunded())\n            onFundraisingSuccess();\n    }\n\n    function payback() timedTransitions atState(State.Payback) {\n        ledger.gatherPayback();\n        currentState = State.Finished;\n\n        onPaybackSucess();\n    }\n\n    function widthrawInvestment() timedTransitions atState(State.Finished) {\n        ledger.withdrawInvestment(msg.sender);\n    }\n\n    function withdrawLoan() timedTransitions atState(State.Payback) {\n        ledger.releaseLoanToBorrower();\n    }\n\n    function onFundraisingSuccess() private {\n        paybackDeadline = block.number + paybackBlocksCount;\n        currentState = State.Payback;\n        \n        FundraisingSucessfull(ledger.liege);\n    }\n\n    function onFundraisingFail() private {\n        ledger.markCancelled();\n        currentState = State.Finished;\n\n        FundraisingFailed(ledger.liege);\n    }\n\n    function onPaybackSucess() private {\n        currentState = State.Finished;\n\n        LoanPaidback(ledger.liege);\n    }\n\n    function onPaybackFailure() private {\n        ledger.markDefaulted();\n        currentState = State.Finished;\n\n        LoanDefaulted(ledger.liege);\n    }\n\n    enum State {\n        CollateralCollection,\n        Fundraising,\n        Payback,\n        Finished\n    }\n}\n",
  "sourcePath": "/home/q3k/Work/getline/getline/dapp/contracts/loans/Loan.sol",
  "compiler": {
    "name": "solc",
    "version": "0.4.18+commit.9cf6e910.Emscripten.clang"
  },
  "schemaVersion": "1.0.1",
  "updatedAt": "2017-11-13T20:08:18.438Z"
}