{
  "contractName": "Math",
  "abi": [
    {
      "constant": true,
      "inputs": [
        {
          "name": "a",
          "type": "uint256"
        },
        {
          "name": "b",
          "type": "uint256"
        }
      ],
      "name": "min",
      "outputs": [
        {
          "name": "",
          "type": "uint256"
        }
      ],
      "payable": false,
      "stateMutability": "pure",
      "type": "function"
    }
  ],
  "bytecode": "0x6060604052341561000f57600080fd5b60bd8061001d6000396000f300606060405260043610603f576000357c0100000000000000000000000000000000000000000000000000000000900463ffffffff1680637ae2b5c7146044575b600080fd5b606160048080359060200190919080359060200190919050506077565b6040518082815260200191505060405180910390f35b600081831015608757829050608b565b8190505b929150505600a165627a7a72305820d08c454c308510deba7d8be4fc8b820585702955deaf1dce3cb7db2d556b7fa20029",
  "source": "pragma solidity ^0.4.11;\n\n\nlibrary Math {\n    function min(uint a, uint b) pure public returns (uint) {\n        if (a < b)\n            return a;\n        else\n            return b;\n    }\n}\n",
  "sourcePath": "/home/q3k/Work/getline/getline/dapp/contracts/common/Math.sol",
  "compiler": {
    "name": "solc",
    "version": "0.4.18+commit.9cf6e910.Emscripten.clang"
  },
  "schemaVersion": "1.0.1",
  "updatedAt": "2017-12-22T18:00:39.536Z"
}