{
  "contractName": "MockAtestor",
  "abi": [
    {
      "constant": true,
      "inputs": [
        {
          "name": "_checkedUser",
          "type": "address"
        }
      ],
      "name": "isVerified",
      "outputs": [
        {
          "name": "success",
          "type": "bool"
        }
      ],
      "payable": false,
      "stateMutability": "view",
      "type": "function"
    },
    {
      "inputs": [
        {
          "name": "_result",
          "type": "bool"
        }
      ],
      "payable": false,
      "stateMutability": "nonpayable",
      "type": "constructor"
    }
  ],
  "bytecode": "0x6060604052341561000f57600080fd5b60405160208061012983398101604052808051906020019091905050806000806101000a81548160ff0219169083151502179055505060d6806100536000396000f300606060405260043610603f576000357c0100000000000000000000000000000000000000000000000000000000900463ffffffff168063b9209e33146044575b600080fd5b3415604e57600080fd5b6078600480803573ffffffffffffffffffffffffffffffffffffffff169060200190919050506092565b604051808215151515815260200191505060405180910390f35b60008060009054906101000a900460ff1690509190505600a165627a7a72305820c5b4f755f9667618fce5c248eea8e8928710faea685df7cc277e7386102f41300029",
  "source": "pragma solidity ^0.4.11;\n\nimport \"./IAtestor.sol\";\n\n\ncontract MockAtestor is IAtestor {\n    bool result;\n\n    function MockAtestor(bool _result) {\n        result = _result;\n    }\n    \n    function isVerified(address _checkedUser) constant returns (bool success) {\n        return result;\n    }\n}\n",
  "sourcePath": "/home/q3k/Work/getline/getline/dapp/contracts/loans/MockAtestor.sol",
  "compiler": {
    "name": "solc",
    "version": "0.4.18+commit.9cf6e910.Emscripten.clang"
  },
  "schemaVersion": "1.0.1",
  "updatedAt": "2017-12-22T17:57:04.825Z"
}